{
	"contracts/example.sol": {
		"ERC721": {
			"abi": [
				{
					"inputs": [
						{
							"internalType": "string",
							"name": "name_",
							"type": "string"
						},
						{
							"internalType": "string",
							"name": "symbol_",
							"type": "string"
						}
					],
					"stateMutability": "nonpayable",
					"type": "constructor"
				},
				{
					"anonymous": false,
					"inputs": [
						{
							"indexed": true,
							"internalType": "address",
							"name": "_owner",
							"type": "address"
						},
						{
							"indexed": true,
							"internalType": "address",
							"name": "_approved",
							"type": "address"
						},
						{
							"indexed": true,
							"internalType": "uint256",
							"name": "_tokenId",
							"type": "uint256"
						}
					],
					"name": "Approval",
					"type": "event"
				},
				{
					"anonymous": false,
					"inputs": [
						{
							"indexed": true,
							"internalType": "address",
							"name": "_owner",
							"type": "address"
						},
						{
							"indexed": true,
							"internalType": "address",
							"name": "_operator",
							"type": "address"
						},
						{
							"indexed": false,
							"internalType": "bool",
							"name": "_approved",
							"type": "bool"
						}
					],
					"name": "ApprovalForAll",
					"type": "event"
				},
				{
					"anonymous": false,
					"inputs": [
						{
							"indexed": true,
							"internalType": "address",
							"name": "_from",
							"type": "address"
						},
						{
							"indexed": true,
							"internalType": "address",
							"name": "_to",
							"type": "address"
						},
						{
							"indexed": true,
							"internalType": "uint256",
							"name": "_tokenId",
							"type": "uint256"
						}
					],
					"name": "Transfer",
					"type": "event"
				},
				{
					"inputs": [
						{
							"internalType": "address",
							"name": "_approved",
							"type": "address"
						},
						{
							"internalType": "uint256",
							"name": "_tokenId",
							"type": "uint256"
						}
					],
					"name": "approve",
					"outputs": [],
					"stateMutability": "payable",
					"type": "function"
				},
				{
					"inputs": [
						{
							"internalType": "address",
							"name": "_owner",
							"type": "address"
						}
					],
					"name": "balanceOf",
					"outputs": [
						{
							"internalType": "uint256",
							"name": "",
							"type": "uint256"
						}
					],
					"stateMutability": "view",
					"type": "function"
				},
				{
					"inputs": [
						{
							"internalType": "uint256",
							"name": "_tokenId",
							"type": "uint256"
						}
					],
					"name": "getApproved",
					"outputs": [
						{
							"internalType": "address",
							"name": "",
							"type": "address"
						}
					],
					"stateMutability": "view",
					"type": "function"
				},
				{
					"inputs": [
						{
							"internalType": "address",
							"name": "_owner",
							"type": "address"
						},
						{
							"internalType": "address",
							"name": "_operator",
							"type": "address"
						}
					],
					"name": "isApprovedForAll",
					"outputs": [
						{
							"internalType": "bool",
							"name": "",
							"type": "bool"
						}
					],
					"stateMutability": "view",
					"type": "function"
				},
				{
					"inputs": [
						{
							"internalType": "string",
							"name": "_tokenURI",
							"type": "string"
						}
					],
					"name": "mint",
					"outputs": [],
					"stateMutability": "nonpayable",
					"type": "function"
				},
				{
					"inputs": [],
					"name": "name",
					"outputs": [
						{
							"internalType": "string",
							"name": "",
							"type": "string"
						}
					],
					"stateMutability": "view",
					"type": "function"
				},
				{
					"inputs": [
						{
							"internalType": "uint256",
							"name": "_tokenId",
							"type": "uint256"
						}
					],
					"name": "ownerOf",
					"outputs": [
						{
							"internalType": "address",
							"name": "",
							"type": "address"
						}
					],
					"stateMutability": "view",
					"type": "function"
				},
				{
					"inputs": [
						{
							"internalType": "address",
							"name": "_operator",
							"type": "address"
						},
						{
							"internalType": "bool",
							"name": "_approved",
							"type": "bool"
						}
					],
					"name": "setApprovalForAll",
					"outputs": [],
					"stateMutability": "nonpayable",
					"type": "function"
				},
				{
					"inputs": [
						{
							"internalType": "bytes4",
							"name": "interfaceId",
							"type": "bytes4"
						}
					],
					"name": "supportsInterface",
					"outputs": [
						{
							"internalType": "bool",
							"name": "",
							"type": "bool"
						}
					],
					"stateMutability": "pure",
					"type": "function"
				},
				{
					"inputs": [],
					"name": "symbol",
					"outputs": [
						{
							"internalType": "string",
							"name": "",
							"type": "string"
						}
					],
					"stateMutability": "view",
					"type": "function"
				},
				{
					"inputs": [
						{
							"internalType": "uint256",
							"name": "tokenId",
							"type": "uint256"
						}
					],
					"name": "tokenURI",
					"outputs": [
						{
							"internalType": "string",
							"name": "",
							"type": "string"
						}
					],
					"stateMutability": "view",
					"type": "function"
				},
				{
					"inputs": [
						{
							"internalType": "address",
							"name": "_from",
							"type": "address"
						},
						{
							"internalType": "address",
							"name": "_to",
							"type": "address"
						},
						{
							"internalType": "uint256",
							"name": "_tokenId",
							"type": "uint256"
						}
					],
					"name": "transferFrom",
					"outputs": [],
					"stateMutability": "payable",
					"type": "function"
				},
				{
					"inputs": [],
					"name": "viewMyTokens",
					"outputs": [
						{
							"internalType": "uint256[]",
							"name": "",
							"type": "uint256[]"
						}
					],
					"stateMutability": "view",
					"type": "function"
				}
			],
			"devdoc": {
				"kind": "dev",
				"methods": {},
				"version": 1
			},
			"evm": {
				"assembly": "    /* \"contracts/example.sol\":1113:5693  contract ERC721 is IERC721 {... */\n  mstore(0x40, 0x80)\n    /* \"contracts/example.sol\":1251:1364  constructor(string memory name_, string memory symbol_) {... */\n  callvalue\n  dup1\n  iszero\n  tag_1\n  jumpi\n  0x00\n  dup1\n  revert\ntag_1:\n  pop\n  mload(0x40)\n  sub(codesize, bytecodeSize)\n  dup1\n  bytecodeSize\n  dup4\n  codecopy\n  dup2\n  dup2\n  add\n  0x40\n  mstore\n  dup2\n  add\n  swap1\n  tag_2\n  swap2\n  swap1\n  tag_3\n  jump\t// in\ntag_2:\n    /* \"contracts/example.sol\":1325:1330  name_ */\n  dup2\n    /* \"contracts/example.sol\":1317:1322  _name */\n  0x00\n    /* \"contracts/example.sol\":1317:1330  _name = name_ */\n  swap1\n  dup1\n  mload\n  swap1\n  0x20\n  add\n  swap1\n  tag_6\n  swap3\n  swap2\n  swap1\n  tag_7\n  jump\t// in\ntag_6:\n  pop\n    /* \"contracts/example.sol\":1350:1357  symbol_ */\n  dup1\n    /* \"contracts/example.sol\":1340:1347  _symbol */\n  0x01\n    /* \"contracts/example.sol\":1340:1357  _symbol = symbol_ */\n  swap1\n  dup1\n  mload\n  swap1\n  0x20\n  add\n  swap1\n  tag_8\n  swap3\n  swap2\n  swap1\n  tag_7\n  jump\t// in\ntag_8:\n  pop\n    /* \"contracts/example.sol\":1251:1364  constructor(string memory name_, string memory symbol_) {... */\n  pop\n  pop\n    /* \"contracts/example.sol\":1113:5693  contract ERC721 is IERC721 {... */\n  jump(tag_9)\ntag_7:\n  dup3\n  dup1\n  sload\n  tag_10\n  swap1\n  tag_11\n  jump\t// in\ntag_10:\n  swap1\n  0x00\n  mstore\n  keccak256(0x00, 0x20)\n  swap1\n  0x1f\n  add\n  0x20\n  swap1\n  div\n  dup2\n  add\n  swap3\n  dup3\n  tag_13\n  jumpi\n  0x00\n  dup6\n  sstore\n  jump(tag_12)\ntag_13:\n  dup3\n  0x1f\n  lt\n  tag_14\n  jumpi\n  dup1\n  mload\n  not(0xff)\n  and\n  dup4\n  dup1\n  add\n  or\n  dup6\n  sstore\n  jump(tag_12)\ntag_14:\n  dup3\n  dup1\n  add\n  0x01\n  add\n  dup6\n  sstore\n  dup3\n  iszero\n  tag_12\n  jumpi\n  swap2\n  dup3\n  add\ntag_15:\n  dup3\n  dup2\n  gt\n  iszero\n  tag_16\n  jumpi\n  dup3\n  mload\n  dup3\n  sstore\n  swap2\n  0x20\n  add\n  swap2\n  swap1\n  0x01\n  add\n  swap1\n  jump(tag_15)\ntag_16:\ntag_12:\n  pop\n  swap1\n  pop\n  tag_17\n  swap2\n  swap1\n  tag_18\n  jump\t// in\ntag_17:\n  pop\n  swap1\n  jump\t// out\ntag_18:\ntag_19:\n  dup1\n  dup3\n  gt\n  iszero\n  tag_20\n  jumpi\n  0x00\n  dup2\n  0x00\n  swap1\n  sstore\n  pop\n  0x01\n  add\n  jump(tag_19)\ntag_20:\n  pop\n  swap1\n  jump\t// out\n    /* \"#utility.yul\":7:360   */\ntag_22:\n  0x00\n    /* \"#utility.yul\":121:186   */\n  tag_24\n    /* \"#utility.yul\":136:185   */\n  tag_25\n    /* \"#utility.yul\":178:184   */\n  dup5\n    /* \"#utility.yul\":136:185   */\n  tag_26\n  jump\t// in\ntag_25:\n    /* \"#utility.yul\":121:186   */\n  tag_27\n  jump\t// in\ntag_24:\n    /* \"#utility.yul\":112:186   */\n  swap1\n  pop\n    /* \"#utility.yul\":209:215   */\n  dup3\n    /* \"#utility.yul\":202:207   */\n  dup2\n    /* \"#utility.yul\":195:216   */\n  mstore\n    /* \"#utility.yul\":247:251   */\n  0x20\n    /* \"#utility.yul\":240:245   */\n  dup2\n    /* \"#utility.yul\":236:252   */\n  add\n    /* \"#utility.yul\":285:288   */\n  dup5\n    /* \"#utility.yul\":276:282   */\n  dup5\n    /* \"#utility.yul\":271:274   */\n  dup5\n    /* \"#utility.yul\":267:283   */\n  add\n    /* \"#utility.yul\":264:289   */\n  gt\n    /* \"#utility.yul\":261:263   */\n  iszero\n  tag_28\n  jumpi\n    /* \"#utility.yul\":302:303   */\n  0x00\n    /* \"#utility.yul\":299:300   */\n  dup1\n    /* \"#utility.yul\":292:304   */\n  revert\n    /* \"#utility.yul\":261:263   */\ntag_28:\n    /* \"#utility.yul\":315:354   */\n  tag_29\n    /* \"#utility.yul\":347:353   */\n  dup5\n    /* \"#utility.yul\":342:345   */\n  dup3\n    /* \"#utility.yul\":337:340   */\n  dup6\n    /* \"#utility.yul\":315:354   */\n  tag_30\n  jump\t// in\ntag_29:\n    /* \"#utility.yul\":102:360   */\n  pop\n  swap4\n  swap3\n  pop\n  pop\n  pop\n  jump\t// out\n    /* \"#utility.yul\":380:668   */\ntag_31:\n  0x00\n    /* \"#utility.yul\":496:499   */\n  dup3\n    /* \"#utility.yul\":489:493   */\n  0x1f\n    /* \"#utility.yul\":481:487   */\n  dup4\n    /* \"#utility.yul\":477:494   */\n  add\n    /* \"#utility.yul\":473:500   */\n  slt\n    /* \"#utility.yul\":463:465   */\n  tag_33\n  jumpi\n    /* \"#utility.yul\":514:515   */\n  0x00\n    /* \"#utility.yul\":511:512   */\n  dup1\n    /* \"#utility.yul\":504:516   */\n  revert\n    /* \"#utility.yul\":463:465   */\ntag_33:\n    /* \"#utility.yul\":547:553   */\n  dup2\n    /* \"#utility.yul\":541:554   */\n  mload\n    /* \"#utility.yul\":572:662   */\n  tag_34\n    /* \"#utility.yul\":658:661   */\n  dup5\n    /* \"#utility.yul\":650:656   */\n  dup3\n    /* \"#utility.yul\":643:647   */\n  0x20\n    /* \"#utility.yul\":635:641   */\n  dup7\n    /* \"#utility.yul\":631:648   */\n  add\n    /* \"#utility.yul\":572:662   */\n  tag_22\n  jump\t// in\ntag_34:\n    /* \"#utility.yul\":563:662   */\n  swap2\n  pop\n    /* \"#utility.yul\":453:668   */\n  pop\n  swap3\n  swap2\n  pop\n  pop\n  jump\t// out\n    /* \"#utility.yul\":674:1326   */\ntag_3:\n  0x00\n  dup1\n    /* \"#utility.yul\":830:832   */\n  0x40\n    /* \"#utility.yul\":818:827   */\n  dup4\n    /* \"#utility.yul\":809:816   */\n  dup6\n    /* \"#utility.yul\":805:828   */\n  sub\n    /* \"#utility.yul\":801:833   */\n  slt\n    /* \"#utility.yul\":798:800   */\n  iszero\n  tag_36\n  jumpi\n    /* \"#utility.yul\":846:847   */\n  0x00\n    /* \"#utility.yul\":843:844   */\n  dup1\n    /* \"#utility.yul\":836:848   */\n  revert\n    /* \"#utility.yul\":798:800   */\ntag_36:\n    /* \"#utility.yul\":910:911   */\n  0x00\n    /* \"#utility.yul\":899:908   */\n  dup4\n    /* \"#utility.yul\":895:912   */\n  add\n    /* \"#utility.yul\":889:913   */\n  mload\n    /* \"#utility.yul\":940:958   */\n  0xffffffffffffffff\n    /* \"#utility.yul\":932:938   */\n  dup2\n    /* \"#utility.yul\":929:959   */\n  gt\n    /* \"#utility.yul\":926:928   */\n  iszero\n  tag_37\n  jumpi\n    /* \"#utility.yul\":972:973   */\n  0x00\n    /* \"#utility.yul\":969:970   */\n  dup1\n    /* \"#utility.yul\":962:974   */\n  revert\n    /* \"#utility.yul\":926:928   */\ntag_37:\n    /* \"#utility.yul\":1000:1074   */\n  tag_38\n    /* \"#utility.yul\":1066:1073   */\n  dup6\n    /* \"#utility.yul\":1057:1063   */\n  dup3\n    /* \"#utility.yul\":1046:1055   */\n  dup7\n    /* \"#utility.yul\":1042:1064   */\n  add\n    /* \"#utility.yul\":1000:1074   */\n  tag_31\n  jump\t// in\ntag_38:\n    /* \"#utility.yul\":990:1074   */\n  swap3\n  pop\n    /* \"#utility.yul\":860:1084   */\n  pop\n    /* \"#utility.yul\":1144:1146   */\n  0x20\n    /* \"#utility.yul\":1133:1142   */\n  dup4\n    /* \"#utility.yul\":1129:1147   */\n  add\n    /* \"#utility.yul\":1123:1148   */\n  mload\n    /* \"#utility.yul\":1175:1193   */\n  0xffffffffffffffff\n    /* \"#utility.yul\":1167:1173   */\n  dup2\n    /* \"#utility.yul\":1164:1194   */\n  gt\n    /* \"#utility.yul\":1161:1163   */\n  iszero\n  tag_39\n  jumpi\n    /* \"#utility.yul\":1207:1208   */\n  0x00\n    /* \"#utility.yul\":1204:1205   */\n  dup1\n    /* \"#utility.yul\":1197:1209   */\n  revert\n    /* \"#utility.yul\":1161:1163   */\ntag_39:\n    /* \"#utility.yul\":1235:1309   */\n  tag_40\n    /* \"#utility.yul\":1301:1308   */\n  dup6\n    /* \"#utility.yul\":1292:1298   */\n  dup3\n    /* \"#utility.yul\":1281:1290   */\n  dup7\n    /* \"#utility.yul\":1277:1299   */\n  add\n    /* \"#utility.yul\":1235:1309   */\n  tag_31\n  jump\t// in\ntag_40:\n    /* \"#utility.yul\":1225:1309   */\n  swap2\n  pop\n    /* \"#utility.yul\":1094:1319   */\n  pop\n    /* \"#utility.yul\":788:1326   */\n  swap3\n  pop\n  swap3\n  swap1\n  pop\n  jump\t// out\n    /* \"#utility.yul\":1332:1615   */\ntag_27:\n  0x00\n    /* \"#utility.yul\":1398:1400   */\n  0x40\n    /* \"#utility.yul\":1392:1401   */\n  mload\n    /* \"#utility.yul\":1382:1401   */\n  swap1\n  pop\n    /* \"#utility.yul\":1440:1444   */\n  dup2\n    /* \"#utility.yul\":1432:1438   */\n  dup2\n    /* \"#utility.yul\":1428:1445   */\n  add\n    /* \"#utility.yul\":1547:1553   */\n  dup2\n    /* \"#utility.yul\":1535:1545   */\n  dup2\n    /* \"#utility.yul\":1532:1554   */\n  lt\n    /* \"#utility.yul\":1511:1529   */\n  0xffffffffffffffff\n    /* \"#utility.yul\":1499:1509   */\n  dup3\n    /* \"#utility.yul\":1496:1530   */\n  gt\n    /* \"#utility.yul\":1493:1555   */\n  or\n    /* \"#utility.yul\":1490:1492   */\n  iszero\n  tag_42\n  jumpi\n    /* \"#utility.yul\":1558:1576   */\n  tag_43\n  tag_44\n  jump\t// in\ntag_43:\n    /* \"#utility.yul\":1490:1492   */\ntag_42:\n    /* \"#utility.yul\":1598:1608   */\n  dup1\n    /* \"#utility.yul\":1594:1596   */\n  0x40\n    /* \"#utility.yul\":1587:1609   */\n  mstore\n    /* \"#utility.yul\":1372:1615   */\n  pop\n  swap2\n  swap1\n  pop\n  jump\t// out\n    /* \"#utility.yul\":1621:1953   */\ntag_26:\n  0x00\n    /* \"#utility.yul\":1773:1791   */\n  0xffffffffffffffff\n    /* \"#utility.yul\":1765:1771   */\n  dup3\n    /* \"#utility.yul\":1762:1792   */\n  gt\n    /* \"#utility.yul\":1759:1761   */\n  iszero\n  tag_46\n  jumpi\n    /* \"#utility.yul\":1795:1813   */\n  tag_47\n  tag_44\n  jump\t// in\ntag_47:\n    /* \"#utility.yul\":1759:1761   */\ntag_46:\n    /* \"#utility.yul\":1880:1884   */\n  0x1f\n    /* \"#utility.yul\":1876:1885   */\n  not\n    /* \"#utility.yul\":1869:1873   */\n  0x1f\n    /* \"#utility.yul\":1861:1867   */\n  dup4\n    /* \"#utility.yul\":1857:1874   */\n  add\n    /* \"#utility.yul\":1853:1886   */\n  and\n    /* \"#utility.yul\":1845:1886   */\n  swap1\n  pop\n    /* \"#utility.yul\":1941:1945   */\n  0x20\n    /* \"#utility.yul\":1935:1939   */\n  dup2\n    /* \"#utility.yul\":1931:1946   */\n  add\n    /* \"#utility.yul\":1923:1946   */\n  swap1\n  pop\n    /* \"#utility.yul\":1688:1953   */\n  swap2\n  swap1\n  pop\n  jump\t// out\n    /* \"#utility.yul\":1959:2266   */\ntag_30:\n    /* \"#utility.yul\":2027:2028   */\n  0x00\n    /* \"#utility.yul\":2037:2150   */\ntag_49:\n    /* \"#utility.yul\":2051:2057   */\n  dup4\n    /* \"#utility.yul\":2048:2049   */\n  dup2\n    /* \"#utility.yul\":2045:2058   */\n  lt\n    /* \"#utility.yul\":2037:2150   */\n  iszero\n  tag_51\n  jumpi\n    /* \"#utility.yul\":2136:2137   */\n  dup1\n    /* \"#utility.yul\":2131:2134   */\n  dup3\n    /* \"#utility.yul\":2127:2138   */\n  add\n    /* \"#utility.yul\":2121:2139   */\n  mload\n    /* \"#utility.yul\":2117:2118   */\n  dup2\n    /* \"#utility.yul\":2112:2115   */\n  dup5\n    /* \"#utility.yul\":2108:2119   */\n  add\n    /* \"#utility.yul\":2101:2140   */\n  mstore\n    /* \"#utility.yul\":2073:2075   */\n  0x20\n    /* \"#utility.yul\":2070:2071   */\n  dup2\n    /* \"#utility.yul\":2066:2076   */\n  add\n    /* \"#utility.yul\":2061:2076   */\n  swap1\n  pop\n    /* \"#utility.yul\":2037:2150   */\n  jump(tag_49)\ntag_51:\n    /* \"#utility.yul\":2168:2174   */\n  dup4\n    /* \"#utility.yul\":2165:2166   */\n  dup2\n    /* \"#utility.yul\":2162:2175   */\n  gt\n    /* \"#utility.yul\":2159:2161   */\n  iszero\n  tag_52\n  jumpi\n    /* \"#utility.yul\":2248:2249   */\n  0x00\n    /* \"#utility.yul\":2239:2245   */\n  dup5\n    /* \"#utility.yul\":2234:2237   */\n  dup5\n    /* \"#utility.yul\":2230:2246   */\n  add\n    /* \"#utility.yul\":2223:2250   */\n  mstore\n    /* \"#utility.yul\":2159:2161   */\ntag_52:\n    /* \"#utility.yul\":2008:2266   */\n  pop\n  pop\n  pop\n  pop\n  jump\t// out\n    /* \"#utility.yul\":2272:2592   */\ntag_11:\n  0x00\n    /* \"#utility.yul\":2353:2354   */\n  0x02\n    /* \"#utility.yul\":2347:2351   */\n  dup3\n    /* \"#utility.yul\":2343:2355   */\n  div\n    /* \"#utility.yul\":2333:2355   */\n  swap1\n  pop\n    /* \"#utility.yul\":2400:2401   */\n  0x01\n    /* \"#utility.yul\":2394:2398   */\n  dup3\n    /* \"#utility.yul\":2390:2402   */\n  and\n    /* \"#utility.yul\":2421:2439   */\n  dup1\n    /* \"#utility.yul\":2411:2413   */\n  tag_54\n  jumpi\n    /* \"#utility.yul\":2477:2481   */\n  0x7f\n    /* \"#utility.yul\":2469:2475   */\n  dup3\n    /* \"#utility.yul\":2465:2482   */\n  and\n    /* \"#utility.yul\":2455:2482   */\n  swap2\n  pop\n    /* \"#utility.yul\":2411:2413   */\ntag_54:\n    /* \"#utility.yul\":2539:2541   */\n  0x20\n    /* \"#utility.yul\":2531:2537   */\n  dup3\n    /* \"#utility.yul\":2528:2542   */\n  lt\n    /* \"#utility.yul\":2508:2526   */\n  dup2\n    /* \"#utility.yul\":2505:2543   */\n  eq\n    /* \"#utility.yul\":2502:2504   */\n  iszero\n  tag_55\n  jumpi\n    /* \"#utility.yul\":2558:2576   */\n  tag_56\n  tag_57\n  jump\t// in\ntag_56:\n    /* \"#utility.yul\":2502:2504   */\ntag_55:\n    /* \"#utility.yul\":2323:2592   */\n  pop\n  swap2\n  swap1\n  pop\n  jump\t// out\n    /* \"#utility.yul\":2598:2778   */\ntag_57:\n    /* \"#utility.yul\":2646:2723   */\n  0x4e487b7100000000000000000000000000000000000000000000000000000000\n    /* \"#utility.yul\":2643:2644   */\n  0x00\n    /* \"#utility.yul\":2636:2724   */\n  mstore\n    /* \"#utility.yul\":2743:2747   */\n  0x22\n    /* \"#utility.yul\":2740:2741   */\n  0x04\n    /* \"#utility.yul\":2733:2748   */\n  mstore\n    /* \"#utility.yul\":2767:2771   */\n  0x24\n    /* \"#utility.yul\":2764:2765   */\n  0x00\n    /* \"#utility.yul\":2757:2772   */\n  revert\n    /* \"#utility.yul\":2784:2964   */\ntag_44:\n    /* \"#utility.yul\":2832:2909   */\n  0x4e487b7100000000000000000000000000000000000000000000000000000000\n    /* \"#utility.yul\":2829:2830   */\n  0x00\n    /* \"#utility.yul\":2822:2910   */\n  mstore\n    /* \"#utility.yul\":2929:2933   */\n  0x41\n    /* \"#utility.yul\":2926:2927   */\n  0x04\n    /* \"#utility.yul\":2919:2934   */\n  mstore\n    /* \"#utility.yul\":2953:2957   */\n  0x24\n    /* \"#utility.yul\":2950:2951   */\n  0x00\n    /* \"#utility.yul\":2943:2958   */\n  revert\n    /* \"contracts/example.sol\":1113:5693  contract ERC721 is IERC721 {... */\ntag_9:\n  dataSize(sub_0)\n  dup1\n  dataOffset(sub_0)\n  0x00\n  codecopy\n  0x00\n  return\nstop\n\nsub_0: assembly {\n        /* \"contracts/example.sol\":1113:5693  contract ERC721 is IERC721 {... */\n      mstore(0x40, 0x80)\n      jumpi(tag_1, lt(calldatasize, 0x04))\n      shr(0xe0, calldataload(0x00))\n      dup1\n      0x70a08231\n      gt\n      tag_15\n      jumpi\n      dup1\n      0xa5b12653\n      gt\n      tag_16\n      jumpi\n      dup1\n      0xa5b12653\n      eq\n      tag_11\n      jumpi\n      dup1\n      0xc87b56dd\n      eq\n      tag_12\n      jumpi\n      dup1\n      0xd85d3d27\n      eq\n      tag_13\n      jumpi\n      dup1\n      0xe985e9c5\n      eq\n      tag_14\n      jumpi\n      jump(tag_1)\n    tag_16:\n      dup1\n      0x70a08231\n      eq\n      tag_8\n      jumpi\n      dup1\n      0x95d89b41\n      eq\n      tag_9\n      jumpi\n      dup1\n      0xa22cb465\n      eq\n      tag_10\n      jumpi\n      jump(tag_1)\n    tag_15:\n      dup1\n      0x01ffc9a7\n      eq\n      tag_2\n      jumpi\n      dup1\n      0x06fdde03\n      eq\n      tag_3\n      jumpi\n      dup1\n      0x081812fc\n      eq\n      tag_4\n      jumpi\n      dup1\n      0x095ea7b3\n      eq\n      tag_5\n      jumpi\n      dup1\n      0x23b872dd\n      eq\n      tag_6\n      jumpi\n      dup1\n      0x6352211e\n      eq\n      tag_7\n      jumpi\n    tag_1:\n      0x00\n      dup1\n      revert\n        /* \"contracts/example.sol\":5561:5691  function supportsInterface(bytes4 interfaceId) public pure virtual returns(bool) {... */\n    tag_2:\n      callvalue\n      dup1\n      iszero\n      tag_17\n      jumpi\n      0x00\n      dup1\n      revert\n    tag_17:\n      pop\n      tag_18\n      0x04\n      dup1\n      calldatasize\n      sub\n      dup2\n      add\n      swap1\n      tag_19\n      swap2\n      swap1\n      tag_20\n      jump\t// in\n    tag_19:\n      tag_21\n      jump\t// in\n    tag_18:\n      mload(0x40)\n      tag_22\n      swap2\n      swap1\n      tag_23\n      jump\t// in\n    tag_22:\n      mload(0x40)\n      dup1\n      swap2\n      sub\n      swap1\n      return\n        /* \"contracts/example.sol\":1690:1779  function name() public view virtual returns (string memory) {... */\n    tag_3:\n      callvalue\n      dup1\n      iszero\n      tag_24\n      jumpi\n      0x00\n      dup1\n      revert\n    tag_24:\n      pop\n      tag_25\n      tag_26\n      jump\t// in\n    tag_25:\n      mload(0x40)\n      tag_27\n      swap2\n      swap1\n      tag_28\n      jump\t// in\n    tag_27:\n      mload(0x40)\n      dup1\n      swap2\n      sub\n      swap1\n      return\n        /* \"contracts/example.sol\":3514:3725  function getApproved(uint256 _tokenId) public view override returns (address) {... */\n    tag_4:\n      callvalue\n      dup1\n      iszero\n      tag_29\n      jumpi\n      0x00\n      dup1\n      revert\n    tag_29:\n      pop\n      tag_30\n      0x04\n      dup1\n      calldatasize\n      sub\n      dup2\n      add\n      swap1\n      tag_31\n      swap2\n      swap1\n      tag_32\n      jump\t// in\n    tag_31:\n      tag_33\n      jump\t// in\n    tag_30:\n      mload(0x40)\n      tag_34\n      swap2\n      swap1\n      tag_35\n      jump\t// in\n    tag_34:\n      mload(0x40)\n      dup1\n      swap2\n      sub\n      swap1\n      return\n        /* \"contracts/example.sol\":3893:4375  function approve(address _approved, uint256 _tokenId) public  payable override {... */\n    tag_5:\n      tag_36\n      0x04\n      dup1\n      calldatasize\n      sub\n      dup2\n      add\n      swap1\n      tag_37\n      swap2\n      swap1\n      tag_38\n      jump\t// in\n    tag_37:\n      tag_39\n      jump\t// in\n    tag_36:\n      stop\n        /* \"contracts/example.sol\":4730:5377  function transferFrom(address _from, address _to, uint256 _tokenId) public payable override {... */\n    tag_6:\n      tag_40\n      0x04\n      dup1\n      calldatasize\n      sub\n      dup2\n      add\n      swap1\n      tag_41\n      swap2\n      swap1\n      tag_42\n      jump\t// in\n    tag_41:\n      tag_43\n      jump\t// in\n    tag_40:\n      stop\n        /* \"contracts/example.sol\":2857:3085  function ownerOf(uint256 _tokenId) public view override returns (address){... */\n    tag_7:\n      callvalue\n      dup1\n      iszero\n      tag_44\n      jumpi\n      0x00\n      dup1\n      revert\n    tag_44:\n      pop\n      tag_45\n      0x04\n      dup1\n      calldatasize\n      sub\n      dup2\n      add\n      swap1\n      tag_46\n      swap2\n      swap1\n      tag_32\n      jump\t// in\n    tag_46:\n      tag_47\n      jump\t// in\n    tag_45:\n      mload(0x40)\n      tag_48\n      swap2\n      swap1\n      tag_35\n      jump\t// in\n    tag_48:\n      mload(0x40)\n      dup1\n      swap2\n      sub\n      swap1\n      return\n        /* \"contracts/example.sol\":2516:2716  function balanceOf(address _owner) public view override returns (uint256) {... */\n    tag_8:\n      callvalue\n      dup1\n      iszero\n      tag_49\n      jumpi\n      0x00\n      dup1\n      revert\n    tag_49:\n      pop\n      tag_50\n      0x04\n      dup1\n      calldatasize\n      sub\n      dup2\n      add\n      swap1\n      tag_51\n      swap2\n      swap1\n      tag_52\n      jump\t// in\n    tag_51:\n      tag_53\n      jump\t// in\n    tag_50:\n      mload(0x40)\n      tag_54\n      swap2\n      swap1\n      tag_55\n      jump\t// in\n    tag_54:\n      mload(0x40)\n      dup1\n      swap2\n      sub\n      swap1\n      return\n        /* \"contracts/example.sol\":1784:1877  function symbol() public view virtual returns (string memory) {... */\n    tag_9:\n      callvalue\n      dup1\n      iszero\n      tag_56\n      jumpi\n      0x00\n      dup1\n      revert\n    tag_56:\n      pop\n      tag_57\n      tag_58\n      jump\t// in\n    tag_57:\n      mload(0x40)\n      tag_59\n      swap2\n      swap1\n      tag_28\n      jump\t// in\n    tag_59:\n      mload(0x40)\n      dup1\n      swap2\n      sub\n      swap1\n      return\n        /* \"contracts/example.sol\":3091:3373  function setApprovalForAll(address _operator, bool _approved) public override {... */\n    tag_10:\n      callvalue\n      dup1\n      iszero\n      tag_60\n      jumpi\n      0x00\n      dup1\n      revert\n    tag_60:\n      pop\n      tag_61\n      0x04\n      dup1\n      calldatasize\n      sub\n      dup2\n      add\n      swap1\n      tag_62\n      swap2\n      swap1\n      tag_63\n      jump\t// in\n    tag_62:\n      tag_64\n      jump\t// in\n    tag_61:\n      stop\n        /* \"contracts/example.sol\":2746:2851  function viewMyTokens() public view returns(uint256[] memory){... */\n    tag_11:\n      callvalue\n      dup1\n      iszero\n      tag_65\n      jumpi\n      0x00\n      dup1\n      revert\n    tag_65:\n      pop\n      tag_66\n      tag_67\n      jump\t// in\n    tag_66:\n      mload(0x40)\n      tag_68\n      swap2\n      swap1\n      tag_69\n      jump\t// in\n    tag_68:\n      mload(0x40)\n      dup1\n      swap2\n      sub\n      swap1\n      return\n        /* \"contracts/example.sol\":1931:2138  function tokenURI(uint256 tokenId) public view returns (string memory) { // ERC721Metadata... */\n    tag_12:\n      callvalue\n      dup1\n      iszero\n      tag_70\n      jumpi\n      0x00\n      dup1\n      revert\n    tag_70:\n      pop\n      tag_71\n      0x04\n      dup1\n      calldatasize\n      sub\n      dup2\n      add\n      swap1\n      tag_72\n      swap2\n      swap1\n      tag_32\n      jump\t// in\n    tag_72:\n      tag_73\n      jump\t// in\n    tag_71:\n      mload(0x40)\n      tag_74\n      swap2\n      swap1\n      tag_28\n      jump\t// in\n    tag_74:\n      mload(0x40)\n      dup1\n      swap2\n      sub\n      swap1\n      return\n        /* \"contracts/example.sol\":2191:2511  function mint(string memory _tokenURI) public {... */\n    tag_13:\n      callvalue\n      dup1\n      iszero\n      tag_75\n      jumpi\n      0x00\n      dup1\n      revert\n    tag_75:\n      pop\n      tag_76\n      0x04\n      dup1\n      calldatasize\n      sub\n      dup2\n      add\n      swap1\n      tag_77\n      swap2\n      swap1\n      tag_78\n      jump\t// in\n    tag_77:\n      tag_79\n      jump\t// in\n    tag_76:\n      stop\n        /* \"contracts/example.sol\":3731:3888  function isApprovedForAll(address _owner, address _operator) public view override returns (bool){... */\n    tag_14:\n      callvalue\n      dup1\n      iszero\n      tag_80\n      jumpi\n      0x00\n      dup1\n      revert\n    tag_80:\n      pop\n      tag_81\n      0x04\n      dup1\n      calldatasize\n      sub\n      dup2\n      add\n      swap1\n      tag_82\n      swap2\n      swap1\n      tag_83\n      jump\t// in\n    tag_82:\n      tag_84\n      jump\t// in\n    tag_81:\n      mload(0x40)\n      tag_85\n      swap2\n      swap1\n      tag_23\n      jump\t// in\n    tag_85:\n      mload(0x40)\n      dup1\n      swap2\n      sub\n      swap1\n      return\n        /* \"contracts/example.sol\":5561:5691  function supportsInterface(bytes4 interfaceId) public pure virtual returns(bool) {... */\n    tag_21:\n        /* \"contracts/example.sol\":5636:5640  bool */\n      0x00\n        /* \"contracts/example.sol\":5674:5684  0x80ac58cd */\n      0x80ac58cd\n        /* \"contracts/example.sol\":5659:5684  interfaceId == 0x80ac58cd */\n      0xe0\n      shl\n        /* \"contracts/example.sol\":5659:5670  interfaceId */\n      dup3\n        /* \"contracts/example.sol\":5659:5684  interfaceId == 0x80ac58cd */\n      not(0xffffffffffffffffffffffffffffffffffffffffffffffffffffffff)\n      and\n      eq\n        /* \"contracts/example.sol\":5652:5684  return interfaceId == 0x80ac58cd */\n      swap1\n      pop\n        /* \"contracts/example.sol\":5561:5691  function supportsInterface(bytes4 interfaceId) public pure virtual returns(bool) {... */\n      swap2\n      swap1\n      pop\n      jump\t// out\n        /* \"contracts/example.sol\":1690:1779  function name() public view virtual returns (string memory) {... */\n    tag_26:\n        /* \"contracts/example.sol\":1735:1748  string memory */\n      0x60\n        /* \"contracts/example.sol\":1767:1772  _name */\n      0x00\n        /* \"contracts/example.sol\":1760:1772  return _name */\n      dup1\n      sload\n      tag_88\n      swap1\n      tag_89\n      jump\t// in\n    tag_88:\n      dup1\n      0x1f\n      add\n      0x20\n      dup1\n      swap2\n      div\n      mul\n      0x20\n      add\n      mload(0x40)\n      swap1\n      dup2\n      add\n      0x40\n      mstore\n      dup1\n      swap3\n      swap2\n      swap1\n      dup2\n      dup2\n      mstore\n      0x20\n      add\n      dup3\n      dup1\n      sload\n      tag_90\n      swap1\n      tag_89\n      jump\t// in\n    tag_90:\n      dup1\n      iszero\n      tag_91\n      jumpi\n      dup1\n      0x1f\n      lt\n      tag_92\n      jumpi\n      0x0100\n      dup1\n      dup4\n      sload\n      div\n      mul\n      dup4\n      mstore\n      swap2\n      0x20\n      add\n      swap2\n      jump(tag_91)\n    tag_92:\n      dup3\n      add\n      swap2\n      swap1\n      0x00\n      mstore\n      keccak256(0x00, 0x20)\n      swap1\n    tag_93:\n      dup2\n      sload\n      dup2\n      mstore\n      swap1\n      0x01\n      add\n      swap1\n      0x20\n      add\n      dup1\n      dup4\n      gt\n      tag_93\n      jumpi\n      dup3\n      swap1\n      sub\n      0x1f\n      and\n      dup3\n      add\n      swap2\n    tag_91:\n      pop\n      pop\n      pop\n      pop\n      pop\n      swap1\n      pop\n        /* \"contracts/example.sol\":1690:1779  function name() public view virtual returns (string memory) {... */\n      swap1\n      jump\t// out\n        /* \"contracts/example.sol\":3514:3725  function getApproved(uint256 _tokenId) public view override returns (address) {... */\n    tag_33:\n        /* \"contracts/example.sol\":3583:3590  address */\n      0x00\n        /* \"contracts/example.sol\":3610:3627  _exists(_tokenId) */\n      tag_95\n        /* \"contracts/example.sol\":3618:3626  _tokenId */\n      dup3\n        /* \"contracts/example.sol\":3610:3617  _exists */\n      tag_96\n        /* \"contracts/example.sol\":3610:3627  _exists(_tokenId) */\n      jump\t// in\n    tag_95:\n        /* \"contracts/example.sol\":3602:3676  require(_exists(_tokenId), \"ERC721: approved query for nonexistent token\") */\n      tag_97\n      jumpi\n      mload(0x40)\n      0x08c379a000000000000000000000000000000000000000000000000000000000\n      dup2\n      mstore\n      0x04\n      add\n      tag_98\n      swap1\n      tag_99\n      jump\t// in\n    tag_98:\n      mload(0x40)\n      dup1\n      swap2\n      sub\n      swap1\n      revert\n    tag_97:\n        /* \"contracts/example.sol\":3693:3708  _tokenApprovals */\n      0x07\n        /* \"contracts/example.sol\":3693:3718  _tokenApprovals[_tokenId] */\n      0x00\n        /* \"contracts/example.sol\":3709:3717  _tokenId */\n      dup4\n        /* \"contracts/example.sol\":3693:3718  _tokenApprovals[_tokenId] */\n      dup2\n      mstore\n      0x20\n      add\n      swap1\n      dup2\n      mstore\n      0x20\n      add\n      0x00\n      keccak256\n      0x00\n      swap1\n      sload\n      swap1\n      0x0100\n      exp\n      swap1\n      div\n      0xffffffffffffffffffffffffffffffffffffffff\n      and\n        /* \"contracts/example.sol\":3686:3718  return _tokenApprovals[_tokenId] */\n      swap1\n      pop\n        /* \"contracts/example.sol\":3514:3725  function getApproved(uint256 _tokenId) public view override returns (address) {... */\n      swap2\n      swap1\n      pop\n      jump\t// out\n        /* \"contracts/example.sol\":3893:4375  function approve(address _approved, uint256 _tokenId) public  payable override {... */\n    tag_39:\n        /* \"contracts/example.sol\":3982:3995  address owner */\n      0x00\n        /* \"contracts/example.sol\":3998:4005  _owners */\n      0x05\n        /* \"contracts/example.sol\":3998:4015  _owners[_tokenId] */\n      0x00\n        /* \"contracts/example.sol\":4006:4014  _tokenId */\n      dup4\n        /* \"contracts/example.sol\":3998:4015  _owners[_tokenId] */\n      dup2\n      mstore\n      0x20\n      add\n      swap1\n      dup2\n      mstore\n      0x20\n      add\n      0x00\n      keccak256\n      0x00\n      swap1\n      sload\n      swap1\n      0x0100\n      exp\n      swap1\n      div\n      0xffffffffffffffffffffffffffffffffffffffff\n      and\n        /* \"contracts/example.sol\":3982:4015  address owner = _owners[_tokenId] */\n      swap1\n      pop\n        /* \"contracts/example.sol\":4046:4051  owner */\n      dup1\n        /* \"contracts/example.sol\":4033:4051  _approved != owner */\n      0xffffffffffffffffffffffffffffffffffffffff\n      and\n        /* \"contracts/example.sol\":4033:4042  _approved */\n      dup4\n        /* \"contracts/example.sol\":4033:4051  _approved != owner */\n      0xffffffffffffffffffffffffffffffffffffffff\n      and\n      eq\n      iszero\n        /* \"contracts/example.sol\":4025:4089  require(_approved != owner, \"ERC721: approval to current owner\") */\n      tag_101\n      jumpi\n      mload(0x40)\n      0x08c379a000000000000000000000000000000000000000000000000000000000\n      dup2\n      mstore\n      0x04\n      add\n      tag_102\n      swap1\n      tag_103\n      jump\t// in\n    tag_102:\n      mload(0x40)\n      dup1\n      swap2\n      sub\n      swap1\n      revert\n    tag_101:\n        /* \"contracts/example.sol\":4134:4139  owner */\n      dup1\n        /* \"contracts/example.sol\":4120:4139  msg.sender == owner */\n      0xffffffffffffffffffffffffffffffffffffffff\n      and\n        /* \"contracts/example.sol\":4120:4130  msg.sender */\n      caller\n        /* \"contracts/example.sol\":4120:4139  msg.sender == owner */\n      0xffffffffffffffffffffffffffffffffffffffff\n      and\n      eq\n        /* \"contracts/example.sol\":4120:4178  msg.sender == owner || isApprovedForAll(owner, msg.sender) */\n      dup1\n      tag_104\n      jumpi\n      pop\n        /* \"contracts/example.sol\":4143:4178  isApprovedForAll(owner, msg.sender) */\n      tag_105\n        /* \"contracts/example.sol\":4160:4165  owner */\n      dup2\n        /* \"contracts/example.sol\":4167:4177  msg.sender */\n      caller\n        /* \"contracts/example.sol\":4143:4159  isApprovedForAll */\n      tag_84\n        /* \"contracts/example.sol\":4143:4178  isApprovedForAll(owner, msg.sender) */\n      jump\t// in\n    tag_105:\n        /* \"contracts/example.sol\":4120:4178  msg.sender == owner || isApprovedForAll(owner, msg.sender) */\n    tag_104:\n        /* \"contracts/example.sol\":4099:4264  require(... */\n      tag_106\n      jumpi\n      mload(0x40)\n      0x08c379a000000000000000000000000000000000000000000000000000000000\n      dup2\n      mstore\n      0x04\n      add\n      tag_107\n      swap1\n      tag_108\n      jump\t// in\n    tag_107:\n      mload(0x40)\n      dup1\n      swap2\n      sub\n      swap1\n      revert\n    tag_106:\n        /* \"contracts/example.sol\":4302:4311  _approved */\n      dup3\n        /* \"contracts/example.sol\":4274:4289  _tokenApprovals */\n      0x07\n        /* \"contracts/example.sol\":4274:4299  _tokenApprovals[_tokenId] */\n      0x00\n        /* \"contracts/example.sol\":4290:4298  _tokenId */\n      dup5\n        /* \"contracts/example.sol\":4274:4299  _tokenApprovals[_tokenId] */\n      dup2\n      mstore\n      0x20\n      add\n      swap1\n      dup2\n      mstore\n      0x20\n      add\n      0x00\n      keccak256\n      0x00\n        /* \"contracts/example.sol\":4274:4311  _tokenApprovals[_tokenId] = _approved */\n      0x0100\n      exp\n      dup2\n      sload\n      dup2\n      0xffffffffffffffffffffffffffffffffffffffff\n      mul\n      not\n      and\n      swap1\n      dup4\n      0xffffffffffffffffffffffffffffffffffffffff\n      and\n      mul\n      or\n      swap1\n      sstore\n      pop\n        /* \"contracts/example.sol\":4358:4366  _tokenId */\n      dup2\n        /* \"contracts/example.sol\":4347:4356  _approved */\n      dup4\n        /* \"contracts/example.sol\":4326:4367  Approval(msg.sender, _approved, _tokenId) */\n      0xffffffffffffffffffffffffffffffffffffffff\n      and\n        /* \"contracts/example.sol\":4335:4345  msg.sender */\n      caller\n        /* \"contracts/example.sol\":4326:4367  Approval(msg.sender, _approved, _tokenId) */\n      0xffffffffffffffffffffffffffffffffffffffff\n      and\n      0x8c5be1e5ebec7d5bd14f71427d1e84f3dd0314c0f7b2291e5b200ac8c7c3b925\n      mload(0x40)\n      mload(0x40)\n      dup1\n      swap2\n      sub\n      swap1\n      log4\n        /* \"contracts/example.sol\":3893:4375  function approve(address _approved, uint256 _tokenId) public  payable override {... */\n      pop\n      pop\n      pop\n      jump\t// out\n        /* \"contracts/example.sol\":4730:5377  function transferFrom(address _from, address _to, uint256 _tokenId) public payable override {... */\n    tag_43:\n        /* \"contracts/example.sol\":4840:4880  _isApprovedOrOwner(msg.sender, _tokenId) */\n      tag_110\n        /* \"contracts/example.sol\":4859:4869  msg.sender */\n      caller\n        /* \"contracts/example.sol\":4871:4879  _tokenId */\n      dup3\n        /* \"contracts/example.sol\":4840:4858  _isApprovedOrOwner */\n      tag_111\n        /* \"contracts/example.sol\":4840:4880  _isApprovedOrOwner(msg.sender, _tokenId) */\n      jump\t// in\n    tag_110:\n        /* \"contracts/example.sol\":4832:4934  require(_isApprovedOrOwner(msg.sender, _tokenId), \"ERC721: transfer caller is not owner nor approved\") */\n      tag_112\n      jumpi\n      mload(0x40)\n      0x08c379a000000000000000000000000000000000000000000000000000000000\n      dup2\n      mstore\n      0x04\n      add\n      tag_113\n      swap1\n      tag_114\n      jump\t// in\n    tag_113:\n      mload(0x40)\n      dup1\n      swap2\n      sub\n      swap1\n      revert\n    tag_112:\n        /* \"contracts/example.sol\":4980:4985  _from */\n      dup3\n        /* \"contracts/example.sol\":4952:4985  ERC721.ownerOf(_tokenId) == _from */\n      0xffffffffffffffffffffffffffffffffffffffff\n      and\n        /* \"contracts/example.sol\":4952:4976  ERC721.ownerOf(_tokenId) */\n      tag_115\n        /* \"contracts/example.sol\":4967:4975  _tokenId */\n      dup3\n        /* \"contracts/example.sol\":4952:4966  ERC721.ownerOf */\n      tag_47\n        /* \"contracts/example.sol\":4952:4976  ERC721.ownerOf(_tokenId) */\n      jump\t// in\n    tag_115:\n        /* \"contracts/example.sol\":4952:4985  ERC721.ownerOf(_tokenId) == _from */\n      0xffffffffffffffffffffffffffffffffffffffff\n      and\n      eq\n        /* \"contracts/example.sol\":4944:5027  require(ERC721.ownerOf(_tokenId) == _from, \"ERC721: transfer from incorrect owner\") */\n      tag_116\n      jumpi\n      mload(0x40)\n      0x08c379a000000000000000000000000000000000000000000000000000000000\n      dup2\n      mstore\n      0x04\n      add\n      tag_117\n      swap1\n      tag_118\n      jump\t// in\n    tag_117:\n      mload(0x40)\n      dup1\n      swap2\n      sub\n      swap1\n      revert\n    tag_116:\n        /* \"contracts/example.sol\":5060:5061  0 */\n      0x00\n        /* \"contracts/example.sol\":5045:5062  _to != address(0) */\n      0xffffffffffffffffffffffffffffffffffffffff\n      and\n        /* \"contracts/example.sol\":5045:5048  _to */\n      dup3\n        /* \"contracts/example.sol\":5045:5062  _to != address(0) */\n      0xffffffffffffffffffffffffffffffffffffffff\n      and\n      eq\n      iszero\n        /* \"contracts/example.sol\":5037:5103  require(_to != address(0), \"ERC721: transfer to the zero address\") */\n      tag_119\n      jumpi\n      mload(0x40)\n      0x08c379a000000000000000000000000000000000000000000000000000000000\n      dup2\n      mstore\n      0x04\n      add\n      tag_120\n      swap1\n      tag_121\n      jump\t// in\n    tag_120:\n      mload(0x40)\n      dup1\n      swap2\n      sub\n      swap1\n      revert\n    tag_119:\n        /* \"contracts/example.sol\":5164:5193  approve(address(0), _tokenId) */\n      tag_122\n        /* \"contracts/example.sol\":5180:5181  0 */\n      0x00\n        /* \"contracts/example.sol\":5184:5192  _tokenId */\n      dup3\n        /* \"contracts/example.sol\":5164:5171  approve */\n      tag_39\n        /* \"contracts/example.sol\":5164:5193  approve(address(0), _tokenId) */\n      jump\t// in\n    tag_122:\n        /* \"contracts/example.sol\":5223:5224  1 */\n      0x01\n        /* \"contracts/example.sol\":5203:5212  _balances */\n      0x04\n        /* \"contracts/example.sol\":5203:5219  _balances[_from] */\n      0x00\n        /* \"contracts/example.sol\":5213:5218  _from */\n      dup6\n        /* \"contracts/example.sol\":5203:5219  _balances[_from] */\n      0xffffffffffffffffffffffffffffffffffffffff\n      and\n      0xffffffffffffffffffffffffffffffffffffffff\n      and\n      dup2\n      mstore\n      0x20\n      add\n      swap1\n      dup2\n      mstore\n      0x20\n      add\n      0x00\n      keccak256\n      0x00\n        /* \"contracts/example.sol\":5203:5224  _balances[_from] -= 1 */\n      dup3\n      dup3\n      sload\n      tag_123\n      swap2\n      swap1\n      tag_124\n      jump\t// in\n    tag_123:\n      swap3\n      pop\n      pop\n      dup2\n      swap1\n      sstore\n      pop\n        /* \"contracts/example.sol\":5252:5253  1 */\n      0x01\n        /* \"contracts/example.sol\":5234:5243  _balances */\n      0x04\n        /* \"contracts/example.sol\":5234:5248  _balances[_to] */\n      0x00\n        /* \"contracts/example.sol\":5244:5247  _to */\n      dup5\n        /* \"contracts/example.sol\":5234:5248  _balances[_to] */\n      0xffffffffffffffffffffffffffffffffffffffff\n      and\n      0xffffffffffffffffffffffffffffffffffffffff\n      and\n      dup2\n      mstore\n      0x20\n      add\n      swap1\n      dup2\n      mstore\n      0x20\n      add\n      0x00\n      keccak256\n      0x00\n        /* \"contracts/example.sol\":5234:5253  _balances[_to] += 1 */\n      dup3\n      dup3\n      sload\n      tag_125\n      swap2\n      swap1\n      tag_126\n      jump\t// in\n    tag_125:\n      swap3\n      pop\n      pop\n      dup2\n      swap1\n      sstore\n      pop\n        /* \"contracts/example.sol\":5283:5286  _to */\n      dup2\n        /* \"contracts/example.sol\":5263:5270  _owners */\n      0x05\n        /* \"contracts/example.sol\":5263:5280  _owners[_tokenId] */\n      0x00\n        /* \"contracts/example.sol\":5271:5279  _tokenId */\n      dup4\n        /* \"contracts/example.sol\":5263:5280  _owners[_tokenId] */\n      dup2\n      mstore\n      0x20\n      add\n      swap1\n      dup2\n      mstore\n      0x20\n      add\n      0x00\n      keccak256\n      0x00\n        /* \"contracts/example.sol\":5263:5286  _owners[_tokenId] = _to */\n      0x0100\n      exp\n      dup2\n      sload\n      dup2\n      0xffffffffffffffffffffffffffffffffffffffff\n      mul\n      not\n      and\n      swap1\n      dup4\n      0xffffffffffffffffffffffffffffffffffffffff\n      and\n      mul\n      or\n      swap1\n      sstore\n      pop\n        /* \"contracts/example.sol\":5296:5304  myTokens */\n      0x09\n        /* \"contracts/example.sol\":5296:5309  myTokens[_to] */\n      0x00\n        /* \"contracts/example.sol\":5305:5308  _to */\n      dup4\n        /* \"contracts/example.sol\":5296:5309  myTokens[_to] */\n      0xffffffffffffffffffffffffffffffffffffffff\n      and\n      0xffffffffffffffffffffffffffffffffffffffff\n      and\n      dup2\n      mstore\n      0x20\n      add\n      swap1\n      dup2\n      mstore\n      0x20\n      add\n      0x00\n      keccak256\n        /* \"contracts/example.sol\":5315:5323  _tokenId */\n      dup2\n        /* \"contracts/example.sol\":5296:5324  myTokens[_to].push(_tokenId) */\n      swap1\n      dup1\n      0x01\n      dup2\n      sload\n      add\n      dup1\n      dup3\n      sstore\n      dup1\n      swap2\n      pop\n      pop\n      0x01\n      swap1\n      sub\n      swap1\n      0x00\n      mstore\n      keccak256(0x00, 0x20)\n      add\n      0x00\n      swap1\n      swap2\n      swap1\n      swap2\n      swap1\n      swap2\n      pop\n      sstore\n        /* \"contracts/example.sol\":5360:5368  _tokenId */\n      dup1\n        /* \"contracts/example.sol\":5355:5358  _to */\n      dup3\n        /* \"contracts/example.sol\":5339:5369  Transfer(_from, _to, _tokenId) */\n      0xffffffffffffffffffffffffffffffffffffffff\n      and\n        /* \"contracts/example.sol\":5348:5353  _from */\n      dup5\n        /* \"contracts/example.sol\":5339:5369  Transfer(_from, _to, _tokenId) */\n      0xffffffffffffffffffffffffffffffffffffffff\n      and\n      0xddf252ad1be2c89b69c2b068fc378daa952ba7f163c4a11628f55a4df523b3ef\n      mload(0x40)\n      mload(0x40)\n      dup1\n      swap2\n      sub\n      swap1\n      log4\n        /* \"contracts/example.sol\":4730:5377  function transferFrom(address _from, address _to, uint256 _tokenId) public payable override {... */\n      pop\n      pop\n      pop\n      jump\t// out\n        /* \"contracts/example.sol\":2857:3085  function ownerOf(uint256 _tokenId) public view override returns (address){... */\n    tag_47:\n        /* \"contracts/example.sol\":2922:2929  address */\n      0x00\n        /* \"contracts/example.sol\":2940:2953  address owner */\n      dup1\n        /* \"contracts/example.sol\":2956:2963  _owners */\n      0x05\n        /* \"contracts/example.sol\":2956:2973  _owners[_tokenId] */\n      0x00\n        /* \"contracts/example.sol\":2964:2972  _tokenId */\n      dup5\n        /* \"contracts/example.sol\":2956:2973  _owners[_tokenId] */\n      dup2\n      mstore\n      0x20\n      add\n      swap1\n      dup2\n      mstore\n      0x20\n      add\n      0x00\n      keccak256\n      0x00\n      swap1\n      sload\n      swap1\n      0x0100\n      exp\n      swap1\n      div\n      0xffffffffffffffffffffffffffffffffffffffff\n      and\n        /* \"contracts/example.sol\":2940:2973  address owner = _owners[_tokenId] */\n      swap1\n      pop\n        /* \"contracts/example.sol\":3008:3009  0 */\n      0x00\n        /* \"contracts/example.sol\":2991:3010  owner != address(0) */\n      0xffffffffffffffffffffffffffffffffffffffff\n      and\n        /* \"contracts/example.sol\":2991:2996  owner */\n      dup2\n        /* \"contracts/example.sol\":2991:3010  owner != address(0) */\n      0xffffffffffffffffffffffffffffffffffffffff\n      and\n      eq\n      iszero\n        /* \"contracts/example.sol\":2983:3056  require(owner != address(0), \"ERC721: owner query for nonexistent token\") */\n      tag_129\n      jumpi\n      mload(0x40)\n      0x08c379a000000000000000000000000000000000000000000000000000000000\n      dup2\n      mstore\n      0x04\n      add\n      tag_130\n      swap1\n      tag_131\n      jump\t// in\n    tag_130:\n      mload(0x40)\n      dup1\n      swap2\n      sub\n      swap1\n      revert\n    tag_129:\n        /* \"contracts/example.sol\":3073:3078  owner */\n      dup1\n        /* \"contracts/example.sol\":3066:3078  return owner */\n      swap2\n      pop\n      pop\n        /* \"contracts/example.sol\":2857:3085  function ownerOf(uint256 _tokenId) public view override returns (address){... */\n      swap2\n      swap1\n      pop\n      jump\t// out\n        /* \"contracts/example.sol\":2516:2716  function balanceOf(address _owner) public view override returns (uint256) {... */\n    tag_53:\n        /* \"contracts/example.sol\":2581:2588  uint256 */\n      0x00\n        /* \"contracts/example.sol\":2626:2627  0 */\n      dup1\n        /* \"contracts/example.sol\":2608:2628  _owner != address(0) */\n      0xffffffffffffffffffffffffffffffffffffffff\n      and\n        /* \"contracts/example.sol\":2608:2614  _owner */\n      dup3\n        /* \"contracts/example.sol\":2608:2628  _owner != address(0) */\n      0xffffffffffffffffffffffffffffffffffffffff\n      and\n      eq\n      iszero\n        /* \"contracts/example.sol\":2600:2675  require(_owner != address(0), \"ERC721: balance query for the zero address\") */\n      tag_133\n      jumpi\n      mload(0x40)\n      0x08c379a000000000000000000000000000000000000000000000000000000000\n      dup2\n      mstore\n      0x04\n      add\n      tag_134\n      swap1\n      tag_135\n      jump\t// in\n    tag_134:\n      mload(0x40)\n      dup1\n      swap2\n      sub\n      swap1\n      revert\n    tag_133:\n        /* \"contracts/example.sol\":2692:2701  _balances */\n      0x04\n        /* \"contracts/example.sol\":2692:2709  _balances[_owner] */\n      0x00\n        /* \"contracts/example.sol\":2702:2708  _owner */\n      dup4\n        /* \"contracts/example.sol\":2692:2709  _balances[_owner] */\n      0xffffffffffffffffffffffffffffffffffffffff\n      and\n      0xffffffffffffffffffffffffffffffffffffffff\n      and\n      dup2\n      mstore\n      0x20\n      add\n      swap1\n      dup2\n      mstore\n      0x20\n      add\n      0x00\n      keccak256\n      sload\n        /* \"contracts/example.sol\":2685:2709  return _balances[_owner] */\n      swap1\n      pop\n        /* \"contracts/example.sol\":2516:2716  function balanceOf(address _owner) public view override returns (uint256) {... */\n      swap2\n      swap1\n      pop\n      jump\t// out\n        /* \"contracts/example.sol\":1784:1877  function symbol() public view virtual returns (string memory) {... */\n    tag_58:\n        /* \"contracts/example.sol\":1831:1844  string memory */\n      0x60\n        /* \"contracts/example.sol\":1863:1870  _symbol */\n      0x01\n        /* \"contracts/example.sol\":1856:1870  return _symbol */\n      dup1\n      sload\n      tag_137\n      swap1\n      tag_89\n      jump\t// in\n    tag_137:\n      dup1\n      0x1f\n      add\n      0x20\n      dup1\n      swap2\n      div\n      mul\n      0x20\n      add\n      mload(0x40)\n      swap1\n      dup2\n      add\n      0x40\n      mstore\n      dup1\n      swap3\n      swap2\n      swap1\n      dup2\n      dup2\n      mstore\n      0x20\n      add\n      dup3\n      dup1\n      sload\n      tag_138\n      swap1\n      tag_89\n      jump\t// in\n    tag_138:\n      dup1\n      iszero\n      tag_139\n      jumpi\n      dup1\n      0x1f\n      lt\n      tag_140\n      jumpi\n      0x0100\n      dup1\n      dup4\n      sload\n      div\n      mul\n      dup4\n      mstore\n      swap2\n      0x20\n      add\n      swap2\n      jump(tag_139)\n    tag_140:\n      dup3\n      add\n      swap2\n      swap1\n      0x00\n      mstore\n      keccak256(0x00, 0x20)\n      swap1\n    tag_141:\n      dup2\n      sload\n      dup2\n      mstore\n      swap1\n      0x01\n      add\n      swap1\n      0x20\n      add\n      dup1\n      dup4\n      gt\n      tag_141\n      jumpi\n      dup3\n      swap1\n      sub\n      0x1f\n      and\n      dup3\n      add\n      swap2\n    tag_139:\n      pop\n      pop\n      pop\n      pop\n      pop\n      swap1\n      pop\n        /* \"contracts/example.sol\":1784:1877  function symbol() public view virtual returns (string memory) {... */\n      swap1\n      jump\t// out\n        /* \"contracts/example.sol\":3091:3373  function setApprovalForAll(address _operator, bool _approved) public override {... */\n    tag_64:\n        /* \"contracts/example.sol\":3201:3210  _operator */\n      dup2\n        /* \"contracts/example.sol\":3187:3210  msg.sender != _operator */\n      0xffffffffffffffffffffffffffffffffffffffff\n      and\n        /* \"contracts/example.sol\":3187:3197  msg.sender */\n      caller\n        /* \"contracts/example.sol\":3187:3210  msg.sender != _operator */\n      0xffffffffffffffffffffffffffffffffffffffff\n      and\n      eq\n      iszero\n        /* \"contracts/example.sol\":3179:3240  require(msg.sender != _operator, \"ERC721: approve to caller\") */\n      tag_143\n      jumpi\n      mload(0x40)\n      0x08c379a000000000000000000000000000000000000000000000000000000000\n      dup2\n      mstore\n      0x04\n      add\n      tag_144\n      swap1\n      tag_145\n      jump\t// in\n    tag_144:\n      mload(0x40)\n      dup1\n      swap2\n      sub\n      swap1\n      revert\n    tag_143:\n        /* \"contracts/example.sol\":3294:3303  _approved */\n      dup1\n        /* \"contracts/example.sol\":3250:3268  _operatorApprovals */\n      0x06\n        /* \"contracts/example.sol\":3250:3280  _operatorApprovals[msg.sender] */\n      0x00\n        /* \"contracts/example.sol\":3269:3279  msg.sender */\n      caller\n        /* \"contracts/example.sol\":3250:3280  _operatorApprovals[msg.sender] */\n      0xffffffffffffffffffffffffffffffffffffffff\n      and\n      0xffffffffffffffffffffffffffffffffffffffff\n      and\n      dup2\n      mstore\n      0x20\n      add\n      swap1\n      dup2\n      mstore\n      0x20\n      add\n      0x00\n      keccak256\n        /* \"contracts/example.sol\":3250:3291  _operatorApprovals[msg.sender][_operator] */\n      0x00\n        /* \"contracts/example.sol\":3281:3290  _operator */\n      dup5\n        /* \"contracts/example.sol\":3250:3291  _operatorApprovals[msg.sender][_operator] */\n      0xffffffffffffffffffffffffffffffffffffffff\n      and\n      0xffffffffffffffffffffffffffffffffffffffff\n      and\n      dup2\n      mstore\n      0x20\n      add\n      swap1\n      dup2\n      mstore\n      0x20\n      add\n      0x00\n      keccak256\n      0x00\n        /* \"contracts/example.sol\":3250:3303  _operatorApprovals[msg.sender][_operator] = _approved */\n      0x0100\n      exp\n      dup2\n      sload\n      dup2\n      0xff\n      mul\n      not\n      and\n      swap1\n      dup4\n      iszero\n      iszero\n      mul\n      or\n      swap1\n      sstore\n      pop\n        /* \"contracts/example.sol\":3345:3354  _operator */\n      dup2\n        /* \"contracts/example.sol\":3318:3366  ApprovalForAll(msg.sender, _operator, _approved) */\n      0xffffffffffffffffffffffffffffffffffffffff\n      and\n        /* \"contracts/example.sol\":3333:3343  msg.sender */\n      caller\n        /* \"contracts/example.sol\":3318:3366  ApprovalForAll(msg.sender, _operator, _approved) */\n      0xffffffffffffffffffffffffffffffffffffffff\n      and\n      0x17307eab39ab6107e8899845ad3d59bd9653f200f220920489ca2b5937696c31\n        /* \"contracts/example.sol\":3356:3365  _approved */\n      dup4\n        /* \"contracts/example.sol\":3318:3366  ApprovalForAll(msg.sender, _operator, _approved) */\n      mload(0x40)\n      tag_146\n      swap2\n      swap1\n      tag_23\n      jump\t// in\n    tag_146:\n      mload(0x40)\n      dup1\n      swap2\n      sub\n      swap1\n      log3\n        /* \"contracts/example.sol\":3091:3373  function setApprovalForAll(address _operator, bool _approved) public override {... */\n      pop\n      pop\n      jump\t// out\n        /* \"contracts/example.sol\":2746:2851  function viewMyTokens() public view returns(uint256[] memory){... */\n    tag_67:\n        /* \"contracts/example.sol\":2790:2806  uint256[] memory */\n      0x60\n        /* \"contracts/example.sol\":2824:2832  myTokens */\n      0x09\n        /* \"contracts/example.sol\":2824:2844  myTokens[msg.sender] */\n      0x00\n        /* \"contracts/example.sol\":2833:2843  msg.sender */\n      caller\n        /* \"contracts/example.sol\":2824:2844  myTokens[msg.sender] */\n      0xffffffffffffffffffffffffffffffffffffffff\n      and\n      0xffffffffffffffffffffffffffffffffffffffff\n      and\n      dup2\n      mstore\n      0x20\n      add\n      swap1\n      dup2\n      mstore\n      0x20\n      add\n      0x00\n      keccak256\n        /* \"contracts/example.sol\":2817:2844  return myTokens[msg.sender] */\n      dup1\n      sload\n      dup1\n      0x20\n      mul\n      0x20\n      add\n      mload(0x40)\n      swap1\n      dup2\n      add\n      0x40\n      mstore\n      dup1\n      swap3\n      swap2\n      swap1\n      dup2\n      dup2\n      mstore\n      0x20\n      add\n      dup3\n      dup1\n      sload\n      dup1\n      iszero\n      tag_148\n      jumpi\n      0x20\n      mul\n      dup3\n      add\n      swap2\n      swap1\n      0x00\n      mstore\n      keccak256(0x00, 0x20)\n      swap1\n    tag_149:\n      dup2\n      sload\n      dup2\n      mstore\n      0x20\n      add\n      swap1\n      0x01\n      add\n      swap1\n      dup1\n      dup4\n      gt\n      tag_149\n      jumpi\n    tag_148:\n      pop\n      pop\n      pop\n      pop\n      pop\n      swap1\n      pop\n        /* \"contracts/example.sol\":2746:2851  function viewMyTokens() public view returns(uint256[] memory){... */\n      swap1\n      jump\t// out\n        /* \"contracts/example.sol\":1931:2138  function tokenURI(uint256 tokenId) public view returns (string memory) { // ERC721Metadata... */\n    tag_73:\n        /* \"contracts/example.sol\":1987:2000  string memory */\n      0x60\n        /* \"contracts/example.sol\":2066:2067  0 */\n      0x00\n        /* \"contracts/example.sol\":2038:2068  _owners[tokenId] != address(0) */\n      0xffffffffffffffffffffffffffffffffffffffff\n      and\n        /* \"contracts/example.sol\":2038:2045  _owners */\n      0x05\n        /* \"contracts/example.sol\":2038:2054  _owners[tokenId] */\n      0x00\n        /* \"contracts/example.sol\":2046:2053  tokenId */\n      dup5\n        /* \"contracts/example.sol\":2038:2054  _owners[tokenId] */\n      dup2\n      mstore\n      0x20\n      add\n      swap1\n      dup2\n      mstore\n      0x20\n      add\n      0x00\n      keccak256\n      0x00\n      swap1\n      sload\n      swap1\n      0x0100\n      exp\n      swap1\n      div\n      0xffffffffffffffffffffffffffffffffffffffff\n      and\n        /* \"contracts/example.sol\":2038:2068  _owners[tokenId] != address(0) */\n      0xffffffffffffffffffffffffffffffffffffffff\n      and\n      eq\n      iszero\n        /* \"contracts/example.sol\":2030:2095  require(_owners[tokenId] != address(0), \"TokenId does not exist\") */\n      tag_151\n      jumpi\n      mload(0x40)\n      0x08c379a000000000000000000000000000000000000000000000000000000000\n      dup2\n      mstore\n      0x04\n      add\n      tag_152\n      swap1\n      tag_153\n      jump\t// in\n    tag_152:\n      mload(0x40)\n      dup1\n      swap2\n      sub\n      swap1\n      revert\n    tag_151:\n        /* \"contracts/example.sol\":2112:2122  _tokenURIs */\n      0x08\n        /* \"contracts/example.sol\":2112:2131  _tokenURIs[tokenId] */\n      0x00\n        /* \"contracts/example.sol\":2123:2130  tokenId */\n      dup4\n        /* \"contracts/example.sol\":2112:2131  _tokenURIs[tokenId] */\n      dup2\n      mstore\n      0x20\n      add\n      swap1\n      dup2\n      mstore\n      0x20\n      add\n      0x00\n      keccak256\n        /* \"contracts/example.sol\":2105:2131  return _tokenURIs[tokenId] */\n      dup1\n      sload\n      tag_154\n      swap1\n      tag_89\n      jump\t// in\n    tag_154:\n      dup1\n      0x1f\n      add\n      0x20\n      dup1\n      swap2\n      div\n      mul\n      0x20\n      add\n      mload(0x40)\n      swap1\n      dup2\n      add\n      0x40\n      mstore\n      dup1\n      swap3\n      swap2\n      swap1\n      dup2\n      dup2\n      mstore\n      0x20\n      add\n      dup3\n      dup1\n      sload\n      tag_155\n      swap1\n      tag_89\n      jump\t// in\n    tag_155:\n      dup1\n      iszero\n      tag_156\n      jumpi\n      dup1\n      0x1f\n      lt\n      tag_157\n      jumpi\n      0x0100\n      dup1\n      dup4\n      sload\n      div\n      mul\n      dup4\n      mstore\n      swap2\n      0x20\n      add\n      swap2\n      jump(tag_156)\n    tag_157:\n      dup3\n      add\n      swap2\n      swap1\n      0x00\n      mstore\n      keccak256(0x00, 0x20)\n      swap1\n    tag_158:\n      dup2\n      sload\n      dup2\n      mstore\n      swap1\n      0x01\n      add\n      swap1\n      0x20\n      add\n      dup1\n      dup4\n      gt\n      tag_158\n      jumpi\n      dup3\n      swap1\n      sub\n      0x1f\n      and\n      dup3\n      add\n      swap2\n    tag_156:\n      pop\n      pop\n      pop\n      pop\n      pop\n      swap1\n      pop\n        /* \"contracts/example.sol\":1931:2138  function tokenURI(uint256 tokenId) public view returns (string memory) { // ERC721Metadata... */\n      swap2\n      swap1\n      pop\n      jump\t// out\n        /* \"contracts/example.sol\":2191:2511  function mint(string memory _tokenURI) public {... */\n    tag_79:\n        /* \"contracts/example.sol\":2262:2263  1 */\n      0x01\n        /* \"contracts/example.sol\":2248:2258  tokenCount */\n      0x02\n      0x00\n        /* \"contracts/example.sol\":2248:2263  tokenCount += 1 */\n      dup3\n      dup3\n      sload\n      tag_160\n      swap2\n      swap1\n      tag_126\n      jump\t// in\n    tag_160:\n      swap3\n      pop\n      pop\n      dup2\n      swap1\n      sstore\n      pop\n        /* \"contracts/example.sol\":2309:2310  1 */\n      0x01\n        /* \"contracts/example.sol\":2284:2293  _balances */\n      0x04\n        /* \"contracts/example.sol\":2284:2305  _balances[msg.sender] */\n      0x00\n        /* \"contracts/example.sol\":2294:2304  msg.sender */\n      caller\n        /* \"contracts/example.sol\":2284:2305  _balances[msg.sender] */\n      0xffffffffffffffffffffffffffffffffffffffff\n      and\n      0xffffffffffffffffffffffffffffffffffffffff\n      and\n      dup2\n      mstore\n      0x20\n      add\n      swap1\n      dup2\n      mstore\n      0x20\n      add\n      0x00\n      keccak256\n      0x00\n        /* \"contracts/example.sol\":2284:2310  _balances[msg.sender] += 1 */\n      dup3\n      dup3\n      sload\n      tag_161\n      swap2\n      swap1\n      tag_126\n      jump\t// in\n    tag_161:\n      swap3\n      pop\n      pop\n      dup2\n      swap1\n      sstore\n      pop\n        /* \"contracts/example.sol\":2342:2352  msg.sender */\n      caller\n        /* \"contracts/example.sol\":2320:2327  _owners */\n      0x05\n        /* \"contracts/example.sol\":2320:2339  _owners[tokenCount] */\n      0x00\n        /* \"contracts/example.sol\":2328:2338  tokenCount */\n      sload(0x02)\n        /* \"contracts/example.sol\":2320:2339  _owners[tokenCount] */\n      dup2\n      mstore\n      0x20\n      add\n      swap1\n      dup2\n      mstore\n      0x20\n      add\n      0x00\n      keccak256\n      0x00\n        /* \"contracts/example.sol\":2320:2352  _owners[tokenCount] = msg.sender */\n      0x0100\n      exp\n      dup2\n      sload\n      dup2\n      0xffffffffffffffffffffffffffffffffffffffff\n      mul\n      not\n      and\n      swap1\n      dup4\n      0xffffffffffffffffffffffffffffffffffffffff\n      and\n      mul\n      or\n      swap1\n      sstore\n      pop\n        /* \"contracts/example.sol\":2387:2396  _tokenURI */\n      dup1\n        /* \"contracts/example.sol\":2362:2372  _tokenURIs */\n      0x08\n        /* \"contracts/example.sol\":2362:2384  _tokenURIs[tokenCount] */\n      0x00\n        /* \"contracts/example.sol\":2373:2383  tokenCount */\n      sload(0x02)\n        /* \"contracts/example.sol\":2362:2384  _tokenURIs[tokenCount] */\n      dup2\n      mstore\n      0x20\n      add\n      swap1\n      dup2\n      mstore\n      0x20\n      add\n      0x00\n      keccak256\n        /* \"contracts/example.sol\":2362:2396  _tokenURIs[tokenCount] = _tokenURI */\n      swap1\n      dup1\n      mload\n      swap1\n      0x20\n      add\n      swap1\n      tag_162\n      swap3\n      swap2\n      swap1\n      tag_163\n      jump\t// in\n    tag_162:\n      pop\n        /* \"contracts/example.sol\":2407:2415  myTokens */\n      0x09\n        /* \"contracts/example.sol\":2407:2427  myTokens[msg.sender] */\n      0x00\n        /* \"contracts/example.sol\":2416:2426  msg.sender */\n      caller\n        /* \"contracts/example.sol\":2407:2427  myTokens[msg.sender] */\n      0xffffffffffffffffffffffffffffffffffffffff\n      and\n      0xffffffffffffffffffffffffffffffffffffffff\n      and\n      dup2\n      mstore\n      0x20\n      add\n      swap1\n      dup2\n      mstore\n      0x20\n      add\n      0x00\n      keccak256\n        /* \"contracts/example.sol\":2433:2443  tokenCount */\n      sload(0x02)\n        /* \"contracts/example.sol\":2407:2444  myTokens[msg.sender].push(tokenCount) */\n      swap1\n      dup1\n      0x01\n      dup2\n      sload\n      add\n      dup1\n      dup3\n      sstore\n      dup1\n      swap2\n      pop\n      pop\n      0x01\n      swap1\n      sub\n      swap1\n      0x00\n      mstore\n      keccak256(0x00, 0x20)\n      add\n      0x00\n      swap1\n      swap2\n      swap1\n      swap2\n      swap1\n      swap2\n      pop\n      sstore\n        /* \"contracts/example.sol\":2493:2503  tokenCount */\n      sload(0x02)\n        /* \"contracts/example.sol\":2481:2491  msg.sender */\n      caller\n        /* \"contracts/example.sol\":2460:2504  Transfer(address(0), msg.sender, tokenCount) */\n      0xffffffffffffffffffffffffffffffffffffffff\n      and\n        /* \"contracts/example.sol\":2477:2478  0 */\n      0x00\n        /* \"contracts/example.sol\":2460:2504  Transfer(address(0), msg.sender, tokenCount) */\n      0xffffffffffffffffffffffffffffffffffffffff\n      and\n      0xddf252ad1be2c89b69c2b068fc378daa952ba7f163c4a11628f55a4df523b3ef\n      mload(0x40)\n      mload(0x40)\n      dup1\n      swap2\n      sub\n      swap1\n      log4\n        /* \"contracts/example.sol\":2191:2511  function mint(string memory _tokenURI) public {... */\n      pop\n      jump\t// out\n        /* \"contracts/example.sol\":3731:3888  function isApprovedForAll(address _owner, address _operator) public view override returns (bool){... */\n    tag_84:\n        /* \"contracts/example.sol\":3822:3826  bool */\n      0x00\n        /* \"contracts/example.sol\":3844:3862  _operatorApprovals */\n      0x06\n        /* \"contracts/example.sol\":3844:3870  _operatorApprovals[_owner] */\n      0x00\n        /* \"contracts/example.sol\":3863:3869  _owner */\n      dup5\n        /* \"contracts/example.sol\":3844:3870  _operatorApprovals[_owner] */\n      0xffffffffffffffffffffffffffffffffffffffff\n      and\n      0xffffffffffffffffffffffffffffffffffffffff\n      and\n      dup2\n      mstore\n      0x20\n      add\n      swap1\n      dup2\n      mstore\n      0x20\n      add\n      0x00\n      keccak256\n        /* \"contracts/example.sol\":3844:3881  _operatorApprovals[_owner][_operator] */\n      0x00\n        /* \"contracts/example.sol\":3871:3880  _operator */\n      dup4\n        /* \"contracts/example.sol\":3844:3881  _operatorApprovals[_owner][_operator] */\n      0xffffffffffffffffffffffffffffffffffffffff\n      and\n      0xffffffffffffffffffffffffffffffffffffffff\n      and\n      dup2\n      mstore\n      0x20\n      add\n      swap1\n      dup2\n      mstore\n      0x20\n      add\n      0x00\n      keccak256\n      0x00\n      swap1\n      sload\n      swap1\n      0x0100\n      exp\n      swap1\n      div\n      0xff\n      and\n        /* \"contracts/example.sol\":3837:3881  return _operatorApprovals[_owner][_operator] */\n      swap1\n      pop\n        /* \"contracts/example.sol\":3731:3888  function isApprovedForAll(address _owner, address _operator) public view override returns (bool){... */\n      swap3\n      swap2\n      pop\n      pop\n      jump\t// out\n        /* \"contracts/example.sol\":3383:3508  function _exists(uint256 tokenId) internal view virtual returns (bool) {... */\n    tag_96:\n        /* \"contracts/example.sol\":3448:3452  bool */\n      0x00\n        /* \"contracts/example.sol\":3499:3500  0 */\n      dup1\n        /* \"contracts/example.sol\":3471:3501  _owners[tokenId] != address(0) */\n      0xffffffffffffffffffffffffffffffffffffffff\n      and\n        /* \"contracts/example.sol\":3471:3478  _owners */\n      0x05\n        /* \"contracts/example.sol\":3471:3487  _owners[tokenId] */\n      0x00\n        /* \"contracts/example.sol\":3479:3486  tokenId */\n      dup5\n        /* \"contracts/example.sol\":3471:3487  _owners[tokenId] */\n      dup2\n      mstore\n      0x20\n      add\n      swap1\n      dup2\n      mstore\n      0x20\n      add\n      0x00\n      keccak256\n      0x00\n      swap1\n      sload\n      swap1\n      0x0100\n      exp\n      swap1\n      div\n      0xffffffffffffffffffffffffffffffffffffffff\n      and\n        /* \"contracts/example.sol\":3471:3501  _owners[tokenId] != address(0) */\n      0xffffffffffffffffffffffffffffffffffffffff\n      and\n      eq\n      iszero\n        /* \"contracts/example.sol\":3464:3501  return _owners[tokenId] != address(0) */\n      swap1\n      pop\n        /* \"contracts/example.sol\":3383:3508  function _exists(uint256 tokenId) internal view virtual returns (bool) {... */\n      swap2\n      swap1\n      pop\n      jump\t// out\n        /* \"contracts/example.sol\":4380:4724  function _isApprovedOrOwner(address spender, uint256 tokenId) internal view virtual returns (bool) {... */\n    tag_111:\n        /* \"contracts/example.sol\":4473:4477  bool */\n      0x00\n        /* \"contracts/example.sol\":4497:4513  _exists(tokenId) */\n      tag_168\n        /* \"contracts/example.sol\":4505:4512  tokenId */\n      dup3\n        /* \"contracts/example.sol\":4497:4504  _exists */\n      tag_96\n        /* \"contracts/example.sol\":4497:4513  _exists(tokenId) */\n      jump\t// in\n    tag_168:\n        /* \"contracts/example.sol\":4489:4562  require(_exists(tokenId), \"ERC721: operator query for nonexistent token\") */\n      tag_169\n      jumpi\n      mload(0x40)\n      0x08c379a000000000000000000000000000000000000000000000000000000000\n      dup2\n      mstore\n      0x04\n      add\n      tag_170\n      swap1\n      tag_171\n      jump\t// in\n    tag_170:\n      mload(0x40)\n      dup1\n      swap2\n      sub\n      swap1\n      revert\n    tag_169:\n        /* \"contracts/example.sol\":4572:4585  address owner */\n      0x00\n        /* \"contracts/example.sol\":4588:4611  ERC721.ownerOf(tokenId) */\n      tag_172\n        /* \"contracts/example.sol\":4603:4610  tokenId */\n      dup4\n        /* \"contracts/example.sol\":4588:4602  ERC721.ownerOf */\n      tag_47\n        /* \"contracts/example.sol\":4588:4611  ERC721.ownerOf(tokenId) */\n      jump\t// in\n    tag_172:\n        /* \"contracts/example.sol\":4572:4611  address owner = ERC721.ownerOf(tokenId) */\n      swap1\n      pop\n        /* \"contracts/example.sol\":4640:4645  owner */\n      dup1\n        /* \"contracts/example.sol\":4629:4645  spender == owner */\n      0xffffffffffffffffffffffffffffffffffffffff\n      and\n        /* \"contracts/example.sol\":4629:4636  spender */\n      dup5\n        /* \"contracts/example.sol\":4629:4645  spender == owner */\n      0xffffffffffffffffffffffffffffffffffffffff\n      and\n      eq\n        /* \"contracts/example.sol\":4629:4680  spender == owner || getApproved(tokenId) == spender */\n      dup1\n      tag_173\n      jumpi\n      pop\n        /* \"contracts/example.sol\":4673:4680  spender */\n      dup4\n        /* \"contracts/example.sol\":4649:4680  getApproved(tokenId) == spender */\n      0xffffffffffffffffffffffffffffffffffffffff\n      and\n        /* \"contracts/example.sol\":4649:4669  getApproved(tokenId) */\n      tag_174\n        /* \"contracts/example.sol\":4661:4668  tokenId */\n      dup5\n        /* \"contracts/example.sol\":4649:4660  getApproved */\n      tag_33\n        /* \"contracts/example.sol\":4649:4669  getApproved(tokenId) */\n      jump\t// in\n    tag_174:\n        /* \"contracts/example.sol\":4649:4680  getApproved(tokenId) == spender */\n      0xffffffffffffffffffffffffffffffffffffffff\n      and\n      eq\n        /* \"contracts/example.sol\":4629:4680  spender == owner || getApproved(tokenId) == spender */\n    tag_173:\n        /* \"contracts/example.sol\":4629:4716  spender == owner || getApproved(tokenId) == spender || isApprovedForAll(owner, spender) */\n      dup1\n      tag_175\n      jumpi\n      pop\n        /* \"contracts/example.sol\":4684:4716  isApprovedForAll(owner, spender) */\n      tag_176\n        /* \"contracts/example.sol\":4701:4706  owner */\n      dup2\n        /* \"contracts/example.sol\":4708:4715  spender */\n      dup6\n        /* \"contracts/example.sol\":4684:4700  isApprovedForAll */\n      tag_84\n        /* \"contracts/example.sol\":4684:4716  isApprovedForAll(owner, spender) */\n      jump\t// in\n    tag_176:\n        /* \"contracts/example.sol\":4629:4716  spender == owner || getApproved(tokenId) == spender || isApprovedForAll(owner, spender) */\n    tag_175:\n        /* \"contracts/example.sol\":4621:4717  return (spender == owner || getApproved(tokenId) == spender || isApprovedForAll(owner, spender)) */\n      swap2\n      pop\n      pop\n        /* \"contracts/example.sol\":4380:4724  function _isApprovedOrOwner(address spender, uint256 tokenId) internal view virtual returns (bool) {... */\n      swap3\n      swap2\n      pop\n      pop\n      jump\t// out\n    tag_163:\n      dup3\n      dup1\n      sload\n      tag_177\n      swap1\n      tag_89\n      jump\t// in\n    tag_177:\n      swap1\n      0x00\n      mstore\n      keccak256(0x00, 0x20)\n      swap1\n      0x1f\n      add\n      0x20\n      swap1\n      div\n      dup2\n      add\n      swap3\n      dup3\n      tag_179\n      jumpi\n      0x00\n      dup6\n      sstore\n      jump(tag_178)\n    tag_179:\n      dup3\n      0x1f\n      lt\n      tag_180\n      jumpi\n      dup1\n      mload\n      not(0xff)\n      and\n      dup4\n      dup1\n      add\n      or\n      dup6\n      sstore\n      jump(tag_178)\n    tag_180:\n      dup3\n      dup1\n      add\n      0x01\n      add\n      dup6\n      sstore\n      dup3\n      iszero\n      tag_178\n      jumpi\n      swap2\n      dup3\n      add\n    tag_181:\n      dup3\n      dup2\n      gt\n      iszero\n      tag_182\n      jumpi\n      dup3\n      mload\n      dup3\n      sstore\n      swap2\n      0x20\n      add\n      swap2\n      swap1\n      0x01\n      add\n      swap1\n      jump(tag_181)\n    tag_182:\n    tag_178:\n      pop\n      swap1\n      pop\n      tag_183\n      swap2\n      swap1\n      tag_184\n      jump\t// in\n    tag_183:\n      pop\n      swap1\n      jump\t// out\n    tag_184:\n    tag_185:\n      dup1\n      dup3\n      gt\n      iszero\n      tag_186\n      jumpi\n      0x00\n      dup2\n      0x00\n      swap1\n      sstore\n      pop\n      0x01\n      add\n      jump(tag_185)\n    tag_186:\n      pop\n      swap1\n      jump\t// out\n        /* \"#utility.yul\":7:351   */\n    tag_188:\n      0x00\n        /* \"#utility.yul\":110:175   */\n      tag_190\n        /* \"#utility.yul\":125:174   */\n      tag_191\n        /* \"#utility.yul\":167:173   */\n      dup5\n        /* \"#utility.yul\":125:174   */\n      tag_192\n      jump\t// in\n    tag_191:\n        /* \"#utility.yul\":110:175   */\n      tag_193\n      jump\t// in\n    tag_190:\n        /* \"#utility.yul\":101:175   */\n      swap1\n      pop\n        /* \"#utility.yul\":198:204   */\n      dup3\n        /* \"#utility.yul\":191:196   */\n      dup2\n        /* \"#utility.yul\":184:205   */\n      mstore\n        /* \"#utility.yul\":236:240   */\n      0x20\n        /* \"#utility.yul\":229:234   */\n      dup2\n        /* \"#utility.yul\":225:241   */\n      add\n        /* \"#utility.yul\":274:277   */\n      dup5\n        /* \"#utility.yul\":265:271   */\n      dup5\n        /* \"#utility.yul\":260:263   */\n      dup5\n        /* \"#utility.yul\":256:272   */\n      add\n        /* \"#utility.yul\":253:278   */\n      gt\n        /* \"#utility.yul\":250:252   */\n      iszero\n      tag_194\n      jumpi\n        /* \"#utility.yul\":291:292   */\n      0x00\n        /* \"#utility.yul\":288:289   */\n      dup1\n        /* \"#utility.yul\":281:293   */\n      revert\n        /* \"#utility.yul\":250:252   */\n    tag_194:\n        /* \"#utility.yul\":304:345   */\n      tag_195\n        /* \"#utility.yul\":338:344   */\n      dup5\n        /* \"#utility.yul\":333:336   */\n      dup3\n        /* \"#utility.yul\":328:331   */\n      dup6\n        /* \"#utility.yul\":304:345   */\n      tag_196\n      jump\t// in\n    tag_195:\n        /* \"#utility.yul\":91:351   */\n      pop\n      swap4\n      swap3\n      pop\n      pop\n      pop\n      jump\t// out\n        /* \"#utility.yul\":357:496   */\n    tag_197:\n      0x00\n        /* \"#utility.yul\":441:447   */\n      dup2\n        /* \"#utility.yul\":428:448   */\n      calldataload\n        /* \"#utility.yul\":419:448   */\n      swap1\n      pop\n        /* \"#utility.yul\":457:490   */\n      tag_199\n        /* \"#utility.yul\":484:489   */\n      dup2\n        /* \"#utility.yul\":457:490   */\n      tag_200\n      jump\t// in\n    tag_199:\n        /* \"#utility.yul\":409:496   */\n      swap3\n      swap2\n      pop\n      pop\n      jump\t// out\n        /* \"#utility.yul\":502:635   */\n    tag_201:\n      0x00\n        /* \"#utility.yul\":583:589   */\n      dup2\n        /* \"#utility.yul\":570:590   */\n      calldataload\n        /* \"#utility.yul\":561:590   */\n      swap1\n      pop\n        /* \"#utility.yul\":599:629   */\n      tag_203\n        /* \"#utility.yul\":623:628   */\n      dup2\n        /* \"#utility.yul\":599:629   */\n      tag_204\n      jump\t// in\n    tag_203:\n        /* \"#utility.yul\":551:635   */\n      swap3\n      swap2\n      pop\n      pop\n      jump\t// out\n        /* \"#utility.yul\":641:778   */\n    tag_205:\n      0x00\n        /* \"#utility.yul\":724:730   */\n      dup2\n        /* \"#utility.yul\":711:731   */\n      calldataload\n        /* \"#utility.yul\":702:731   */\n      swap1\n      pop\n        /* \"#utility.yul\":740:772   */\n      tag_207\n        /* \"#utility.yul\":766:771   */\n      dup2\n        /* \"#utility.yul\":740:772   */\n      tag_208\n      jump\t// in\n    tag_207:\n        /* \"#utility.yul\":692:778   */\n      swap3\n      swap2\n      pop\n      pop\n      jump\t// out\n        /* \"#utility.yul\":798:1071   */\n    tag_209:\n      0x00\n        /* \"#utility.yul\":903:906   */\n      dup3\n        /* \"#utility.yul\":896:900   */\n      0x1f\n        /* \"#utility.yul\":888:894   */\n      dup4\n        /* \"#utility.yul\":884:901   */\n      add\n        /* \"#utility.yul\":880:907   */\n      slt\n        /* \"#utility.yul\":870:872   */\n      tag_211\n      jumpi\n        /* \"#utility.yul\":921:922   */\n      0x00\n        /* \"#utility.yul\":918:919   */\n      dup1\n        /* \"#utility.yul\":911:923   */\n      revert\n        /* \"#utility.yul\":870:872   */\n    tag_211:\n        /* \"#utility.yul\":961:967   */\n      dup2\n        /* \"#utility.yul\":948:968   */\n      calldataload\n        /* \"#utility.yul\":986:1065   */\n      tag_212\n        /* \"#utility.yul\":1061:1064   */\n      dup5\n        /* \"#utility.yul\":1053:1059   */\n      dup3\n        /* \"#utility.yul\":1046:1050   */\n      0x20\n        /* \"#utility.yul\":1038:1044   */\n      dup7\n        /* \"#utility.yul\":1034:1051   */\n      add\n        /* \"#utility.yul\":986:1065   */\n      tag_188\n      jump\t// in\n    tag_212:\n        /* \"#utility.yul\":977:1065   */\n      swap2\n      pop\n        /* \"#utility.yul\":860:1071   */\n      pop\n      swap3\n      swap2\n      pop\n      pop\n      jump\t// out\n        /* \"#utility.yul\":1077:1216   */\n    tag_213:\n      0x00\n        /* \"#utility.yul\":1161:1167   */\n      dup2\n        /* \"#utility.yul\":1148:1168   */\n      calldataload\n        /* \"#utility.yul\":1139:1168   */\n      swap1\n      pop\n        /* \"#utility.yul\":1177:1210   */\n      tag_215\n        /* \"#utility.yul\":1204:1209   */\n      dup2\n        /* \"#utility.yul\":1177:1210   */\n      tag_216\n      jump\t// in\n    tag_215:\n        /* \"#utility.yul\":1129:1216   */\n      swap3\n      swap2\n      pop\n      pop\n      jump\t// out\n        /* \"#utility.yul\":1222:1484   */\n    tag_52:\n      0x00\n        /* \"#utility.yul\":1330:1332   */\n      0x20\n        /* \"#utility.yul\":1318:1327   */\n      dup3\n        /* \"#utility.yul\":1309:1316   */\n      dup5\n        /* \"#utility.yul\":1305:1328   */\n      sub\n        /* \"#utility.yul\":1301:1333   */\n      slt\n        /* \"#utility.yul\":1298:1300   */\n      iszero\n      tag_218\n      jumpi\n        /* \"#utility.yul\":1346:1347   */\n      0x00\n        /* \"#utility.yul\":1343:1344   */\n      dup1\n        /* \"#utility.yul\":1336:1348   */\n      revert\n        /* \"#utility.yul\":1298:1300   */\n    tag_218:\n        /* \"#utility.yul\":1389:1390   */\n      0x00\n        /* \"#utility.yul\":1414:1467   */\n      tag_219\n        /* \"#utility.yul\":1459:1466   */\n      dup5\n        /* \"#utility.yul\":1450:1456   */\n      dup3\n        /* \"#utility.yul\":1439:1448   */\n      dup6\n        /* \"#utility.yul\":1435:1457   */\n      add\n        /* \"#utility.yul\":1414:1467   */\n      tag_197\n      jump\t// in\n    tag_219:\n        /* \"#utility.yul\":1404:1467   */\n      swap2\n      pop\n        /* \"#utility.yul\":1360:1477   */\n      pop\n        /* \"#utility.yul\":1288:1484   */\n      swap3\n      swap2\n      pop\n      pop\n      jump\t// out\n        /* \"#utility.yul\":1490:1897   */\n    tag_83:\n      0x00\n      dup1\n        /* \"#utility.yul\":1615:1617   */\n      0x40\n        /* \"#utility.yul\":1603:1612   */\n      dup4\n        /* \"#utility.yul\":1594:1601   */\n      dup6\n        /* \"#utility.yul\":1590:1613   */\n      sub\n        /* \"#utility.yul\":1586:1618   */\n      slt\n        /* \"#utility.yul\":1583:1585   */\n      iszero\n      tag_221\n      jumpi\n        /* \"#utility.yul\":1631:1632   */\n      0x00\n        /* \"#utility.yul\":1628:1629   */\n      dup1\n        /* \"#utility.yul\":1621:1633   */\n      revert\n        /* \"#utility.yul\":1583:1585   */\n    tag_221:\n        /* \"#utility.yul\":1674:1675   */\n      0x00\n        /* \"#utility.yul\":1699:1752   */\n      tag_222\n        /* \"#utility.yul\":1744:1751   */\n      dup6\n        /* \"#utility.yul\":1735:1741   */\n      dup3\n        /* \"#utility.yul\":1724:1733   */\n      dup7\n        /* \"#utility.yul\":1720:1742   */\n      add\n        /* \"#utility.yul\":1699:1752   */\n      tag_197\n      jump\t// in\n    tag_222:\n        /* \"#utility.yul\":1689:1752   */\n      swap3\n      pop\n        /* \"#utility.yul\":1645:1762   */\n      pop\n        /* \"#utility.yul\":1801:1803   */\n      0x20\n        /* \"#utility.yul\":1827:1880   */\n      tag_223\n        /* \"#utility.yul\":1872:1879   */\n      dup6\n        /* \"#utility.yul\":1863:1869   */\n      dup3\n        /* \"#utility.yul\":1852:1861   */\n      dup7\n        /* \"#utility.yul\":1848:1870   */\n      add\n        /* \"#utility.yul\":1827:1880   */\n      tag_197\n      jump\t// in\n    tag_223:\n        /* \"#utility.yul\":1817:1880   */\n      swap2\n      pop\n        /* \"#utility.yul\":1772:1890   */\n      pop\n        /* \"#utility.yul\":1573:1897   */\n      swap3\n      pop\n      swap3\n      swap1\n      pop\n      jump\t// out\n        /* \"#utility.yul\":1903:2455   */\n    tag_42:\n      0x00\n      dup1\n      0x00\n        /* \"#utility.yul\":2045:2047   */\n      0x60\n        /* \"#utility.yul\":2033:2042   */\n      dup5\n        /* \"#utility.yul\":2024:2031   */\n      dup7\n        /* \"#utility.yul\":2020:2043   */\n      sub\n        /* \"#utility.yul\":2016:2048   */\n      slt\n        /* \"#utility.yul\":2013:2015   */\n      iszero\n      tag_225\n      jumpi\n        /* \"#utility.yul\":2061:2062   */\n      0x00\n        /* \"#utility.yul\":2058:2059   */\n      dup1\n        /* \"#utility.yul\":2051:2063   */\n      revert\n        /* \"#utility.yul\":2013:2015   */\n    tag_225:\n        /* \"#utility.yul\":2104:2105   */\n      0x00\n        /* \"#utility.yul\":2129:2182   */\n      tag_226\n        /* \"#utility.yul\":2174:2181   */\n      dup7\n        /* \"#utility.yul\":2165:2171   */\n      dup3\n        /* \"#utility.yul\":2154:2163   */\n      dup8\n        /* \"#utility.yul\":2150:2172   */\n      add\n        /* \"#utility.yul\":2129:2182   */\n      tag_197\n      jump\t// in\n    tag_226:\n        /* \"#utility.yul\":2119:2182   */\n      swap4\n      pop\n        /* \"#utility.yul\":2075:2192   */\n      pop\n        /* \"#utility.yul\":2231:2233   */\n      0x20\n        /* \"#utility.yul\":2257:2310   */\n      tag_227\n        /* \"#utility.yul\":2302:2309   */\n      dup7\n        /* \"#utility.yul\":2293:2299   */\n      dup3\n        /* \"#utility.yul\":2282:2291   */\n      dup8\n        /* \"#utility.yul\":2278:2300   */\n      add\n        /* \"#utility.yul\":2257:2310   */\n      tag_197\n      jump\t// in\n    tag_227:\n        /* \"#utility.yul\":2247:2310   */\n      swap3\n      pop\n        /* \"#utility.yul\":2202:2320   */\n      pop\n        /* \"#utility.yul\":2359:2361   */\n      0x40\n        /* \"#utility.yul\":2385:2438   */\n      tag_228\n        /* \"#utility.yul\":2430:2437   */\n      dup7\n        /* \"#utility.yul\":2421:2427   */\n      dup3\n        /* \"#utility.yul\":2410:2419   */\n      dup8\n        /* \"#utility.yul\":2406:2428   */\n      add\n        /* \"#utility.yul\":2385:2438   */\n      tag_213\n      jump\t// in\n    tag_228:\n        /* \"#utility.yul\":2375:2438   */\n      swap2\n      pop\n        /* \"#utility.yul\":2330:2448   */\n      pop\n        /* \"#utility.yul\":2003:2455   */\n      swap3\n      pop\n      swap3\n      pop\n      swap3\n      jump\t// out\n        /* \"#utility.yul\":2461:2862   */\n    tag_63:\n      0x00\n      dup1\n        /* \"#utility.yul\":2583:2585   */\n      0x40\n        /* \"#utility.yul\":2571:2580   */\n      dup4\n        /* \"#utility.yul\":2562:2569   */\n      dup6\n        /* \"#utility.yul\":2558:2581   */\n      sub\n        /* \"#utility.yul\":2554:2586   */\n      slt\n        /* \"#utility.yul\":2551:2553   */\n      iszero\n      tag_230\n      jumpi\n        /* \"#utility.yul\":2599:2600   */\n      0x00\n        /* \"#utility.yul\":2596:2597   */\n      dup1\n        /* \"#utility.yul\":2589:2601   */\n      revert\n        /* \"#utility.yul\":2551:2553   */\n    tag_230:\n        /* \"#utility.yul\":2642:2643   */\n      0x00\n        /* \"#utility.yul\":2667:2720   */\n      tag_231\n        /* \"#utility.yul\":2712:2719   */\n      dup6\n        /* \"#utility.yul\":2703:2709   */\n      dup3\n        /* \"#utility.yul\":2692:2701   */\n      dup7\n        /* \"#utility.yul\":2688:2710   */\n      add\n        /* \"#utility.yul\":2667:2720   */\n      tag_197\n      jump\t// in\n    tag_231:\n        /* \"#utility.yul\":2657:2720   */\n      swap3\n      pop\n        /* \"#utility.yul\":2613:2730   */\n      pop\n        /* \"#utility.yul\":2769:2771   */\n      0x20\n        /* \"#utility.yul\":2795:2845   */\n      tag_232\n        /* \"#utility.yul\":2837:2844   */\n      dup6\n        /* \"#utility.yul\":2828:2834   */\n      dup3\n        /* \"#utility.yul\":2817:2826   */\n      dup7\n        /* \"#utility.yul\":2813:2835   */\n      add\n        /* \"#utility.yul\":2795:2845   */\n      tag_201\n      jump\t// in\n    tag_232:\n        /* \"#utility.yul\":2785:2845   */\n      swap2\n      pop\n        /* \"#utility.yul\":2740:2855   */\n      pop\n        /* \"#utility.yul\":2541:2862   */\n      swap3\n      pop\n      swap3\n      swap1\n      pop\n      jump\t// out\n        /* \"#utility.yul\":2868:3275   */\n    tag_38:\n      0x00\n      dup1\n        /* \"#utility.yul\":2993:2995   */\n      0x40\n        /* \"#utility.yul\":2981:2990   */\n      dup4\n        /* \"#utility.yul\":2972:2979   */\n      dup6\n        /* \"#utility.yul\":2968:2991   */\n      sub\n        /* \"#utility.yul\":2964:2996   */\n      slt\n        /* \"#utility.yul\":2961:2963   */\n      iszero\n      tag_234\n      jumpi\n        /* \"#utility.yul\":3009:3010   */\n      0x00\n        /* \"#utility.yul\":3006:3007   */\n      dup1\n        /* \"#utility.yul\":2999:3011   */\n      revert\n        /* \"#utility.yul\":2961:2963   */\n    tag_234:\n        /* \"#utility.yul\":3052:3053   */\n      0x00\n        /* \"#utility.yul\":3077:3130   */\n      tag_235\n        /* \"#utility.yul\":3122:3129   */\n      dup6\n        /* \"#utility.yul\":3113:3119   */\n      dup3\n        /* \"#utility.yul\":3102:3111   */\n      dup7\n        /* \"#utility.yul\":3098:3120   */\n      add\n        /* \"#utility.yul\":3077:3130   */\n      tag_197\n      jump\t// in\n    tag_235:\n        /* \"#utility.yul\":3067:3130   */\n      swap3\n      pop\n        /* \"#utility.yul\":3023:3140   */\n      pop\n        /* \"#utility.yul\":3179:3181   */\n      0x20\n        /* \"#utility.yul\":3205:3258   */\n      tag_236\n        /* \"#utility.yul\":3250:3257   */\n      dup6\n        /* \"#utility.yul\":3241:3247   */\n      dup3\n        /* \"#utility.yul\":3230:3239   */\n      dup7\n        /* \"#utility.yul\":3226:3248   */\n      add\n        /* \"#utility.yul\":3205:3258   */\n      tag_213\n      jump\t// in\n    tag_236:\n        /* \"#utility.yul\":3195:3258   */\n      swap2\n      pop\n        /* \"#utility.yul\":3150:3268   */\n      pop\n        /* \"#utility.yul\":2951:3275   */\n      swap3\n      pop\n      swap3\n      swap1\n      pop\n      jump\t// out\n        /* \"#utility.yul\":3281:3541   */\n    tag_20:\n      0x00\n        /* \"#utility.yul\":3388:3390   */\n      0x20\n        /* \"#utility.yul\":3376:3385   */\n      dup3\n        /* \"#utility.yul\":3367:3374   */\n      dup5\n        /* \"#utility.yul\":3363:3386   */\n      sub\n        /* \"#utility.yul\":3359:3391   */\n      slt\n        /* \"#utility.yul\":3356:3358   */\n      iszero\n      tag_238\n      jumpi\n        /* \"#utility.yul\":3404:3405   */\n      0x00\n        /* \"#utility.yul\":3401:3402   */\n      dup1\n        /* \"#utility.yul\":3394:3406   */\n      revert\n        /* \"#utility.yul\":3356:3358   */\n    tag_238:\n        /* \"#utility.yul\":3447:3448   */\n      0x00\n        /* \"#utility.yul\":3472:3524   */\n      tag_239\n        /* \"#utility.yul\":3516:3523   */\n      dup5\n        /* \"#utility.yul\":3507:3513   */\n      dup3\n        /* \"#utility.yul\":3496:3505   */\n      dup6\n        /* \"#utility.yul\":3492:3514   */\n      add\n        /* \"#utility.yul\":3472:3524   */\n      tag_205\n      jump\t// in\n    tag_239:\n        /* \"#utility.yul\":3462:3524   */\n      swap2\n      pop\n        /* \"#utility.yul\":3418:3534   */\n      pop\n        /* \"#utility.yul\":3346:3541   */\n      swap3\n      swap2\n      pop\n      pop\n      jump\t// out\n        /* \"#utility.yul\":3547:3922   */\n    tag_78:\n      0x00\n        /* \"#utility.yul\":3665:3667   */\n      0x20\n        /* \"#utility.yul\":3653:3662   */\n      dup3\n        /* \"#utility.yul\":3644:3651   */\n      dup5\n        /* \"#utility.yul\":3640:3663   */\n      sub\n        /* \"#utility.yul\":3636:3668   */\n      slt\n        /* \"#utility.yul\":3633:3635   */\n      iszero\n      tag_241\n      jumpi\n        /* \"#utility.yul\":3681:3682   */\n      0x00\n        /* \"#utility.yul\":3678:3679   */\n      dup1\n        /* \"#utility.yul\":3671:3683   */\n      revert\n        /* \"#utility.yul\":3633:3635   */\n    tag_241:\n        /* \"#utility.yul\":3752:3753   */\n      0x00\n        /* \"#utility.yul\":3741:3750   */\n      dup3\n        /* \"#utility.yul\":3737:3754   */\n      add\n        /* \"#utility.yul\":3724:3755   */\n      calldataload\n        /* \"#utility.yul\":3782:3800   */\n      0xffffffffffffffff\n        /* \"#utility.yul\":3774:3780   */\n      dup2\n        /* \"#utility.yul\":3771:3801   */\n      gt\n        /* \"#utility.yul\":3768:3770   */\n      iszero\n      tag_242\n      jumpi\n        /* \"#utility.yul\":3814:3815   */\n      0x00\n        /* \"#utility.yul\":3811:3812   */\n      dup1\n        /* \"#utility.yul\":3804:3816   */\n      revert\n        /* \"#utility.yul\":3768:3770   */\n    tag_242:\n        /* \"#utility.yul\":3842:3905   */\n      tag_243\n        /* \"#utility.yul\":3897:3904   */\n      dup5\n        /* \"#utility.yul\":3888:3894   */\n      dup3\n        /* \"#utility.yul\":3877:3886   */\n      dup6\n        /* \"#utility.yul\":3873:3895   */\n      add\n        /* \"#utility.yul\":3842:3905   */\n      tag_209\n      jump\t// in\n    tag_243:\n        /* \"#utility.yul\":3832:3905   */\n      swap2\n      pop\n        /* \"#utility.yul\":3695:3915   */\n      pop\n        /* \"#utility.yul\":3623:3922   */\n      swap3\n      swap2\n      pop\n      pop\n      jump\t// out\n        /* \"#utility.yul\":3928:4190   */\n    tag_32:\n      0x00\n        /* \"#utility.yul\":4036:4038   */\n      0x20\n        /* \"#utility.yul\":4024:4033   */\n      dup3\n        /* \"#utility.yul\":4015:4022   */\n      dup5\n        /* \"#utility.yul\":4011:4034   */\n      sub\n        /* \"#utility.yul\":4007:4039   */\n      slt\n        /* \"#utility.yul\":4004:4006   */\n      iszero\n      tag_245\n      jumpi\n        /* \"#utility.yul\":4052:4053   */\n      0x00\n        /* \"#utility.yul\":4049:4050   */\n      dup1\n        /* \"#utility.yul\":4042:4054   */\n      revert\n        /* \"#utility.yul\":4004:4006   */\n    tag_245:\n        /* \"#utility.yul\":4095:4096   */\n      0x00\n        /* \"#utility.yul\":4120:4173   */\n      tag_246\n        /* \"#utility.yul\":4165:4172   */\n      dup5\n        /* \"#utility.yul\":4156:4162   */\n      dup3\n        /* \"#utility.yul\":4145:4154   */\n      dup6\n        /* \"#utility.yul\":4141:4163   */\n      add\n        /* \"#utility.yul\":4120:4173   */\n      tag_213\n      jump\t// in\n    tag_246:\n        /* \"#utility.yul\":4110:4173   */\n      swap2\n      pop\n        /* \"#utility.yul\":4066:4183   */\n      pop\n        /* \"#utility.yul\":3994:4190   */\n      swap3\n      swap2\n      pop\n      pop\n      jump\t// out\n        /* \"#utility.yul\":4196:4375   */\n    tag_247:\n      0x00\n        /* \"#utility.yul\":4286:4332   */\n      tag_249\n        /* \"#utility.yul\":4328:4331   */\n      dup4\n        /* \"#utility.yul\":4320:4326   */\n      dup4\n        /* \"#utility.yul\":4286:4332   */\n      tag_250\n      jump\t// in\n    tag_249:\n        /* \"#utility.yul\":4364:4368   */\n      0x20\n        /* \"#utility.yul\":4359:4362   */\n      dup4\n        /* \"#utility.yul\":4355:4369   */\n      add\n        /* \"#utility.yul\":4341:4369   */\n      swap1\n      pop\n        /* \"#utility.yul\":4276:4375   */\n      swap3\n      swap2\n      pop\n      pop\n      jump\t// out\n        /* \"#utility.yul\":4381:4499   */\n    tag_251:\n        /* \"#utility.yul\":4468:4492   */\n      tag_253\n        /* \"#utility.yul\":4486:4491   */\n      dup2\n        /* \"#utility.yul\":4468:4492   */\n      tag_254\n      jump\t// in\n    tag_253:\n        /* \"#utility.yul\":4463:4466   */\n      dup3\n        /* \"#utility.yul\":4456:4493   */\n      mstore\n        /* \"#utility.yul\":4446:4499   */\n      pop\n      pop\n      jump\t// out\n        /* \"#utility.yul\":4535:5267   */\n    tag_255:\n      0x00\n        /* \"#utility.yul\":4683:4737   */\n      tag_257\n        /* \"#utility.yul\":4731:4736   */\n      dup3\n        /* \"#utility.yul\":4683:4737   */\n      tag_258\n      jump\t// in\n    tag_257:\n        /* \"#utility.yul\":4753:4839   */\n      tag_259\n        /* \"#utility.yul\":4832:4838   */\n      dup2\n        /* \"#utility.yul\":4827:4830   */\n      dup6\n        /* \"#utility.yul\":4753:4839   */\n      tag_260\n      jump\t// in\n    tag_259:\n        /* \"#utility.yul\":4746:4839   */\n      swap4\n      pop\n        /* \"#utility.yul\":4863:4919   */\n      tag_261\n        /* \"#utility.yul\":4913:4918   */\n      dup4\n        /* \"#utility.yul\":4863:4919   */\n      tag_262\n      jump\t// in\n    tag_261:\n        /* \"#utility.yul\":4942:4949   */\n      dup1\n        /* \"#utility.yul\":4973:4974   */\n      0x00\n        /* \"#utility.yul\":4958:5242   */\n    tag_263:\n        /* \"#utility.yul\":4983:4989   */\n      dup4\n        /* \"#utility.yul\":4980:4981   */\n      dup2\n        /* \"#utility.yul\":4977:4990   */\n      lt\n        /* \"#utility.yul\":4958:5242   */\n      iszero\n      tag_265\n      jumpi\n        /* \"#utility.yul\":5059:5065   */\n      dup2\n        /* \"#utility.yul\":5053:5066   */\n      mload\n        /* \"#utility.yul\":5086:5149   */\n      tag_266\n        /* \"#utility.yul\":5145:5148   */\n      dup9\n        /* \"#utility.yul\":5130:5143   */\n      dup3\n        /* \"#utility.yul\":5086:5149   */\n      tag_247\n      jump\t// in\n    tag_266:\n        /* \"#utility.yul\":5079:5149   */\n      swap8\n      pop\n        /* \"#utility.yul\":5172:5232   */\n      tag_267\n        /* \"#utility.yul\":5225:5231   */\n      dup4\n        /* \"#utility.yul\":5172:5232   */\n      tag_268\n      jump\t// in\n    tag_267:\n        /* \"#utility.yul\":5162:5232   */\n      swap3\n      pop\n        /* \"#utility.yul\":5018:5242   */\n      pop\n        /* \"#utility.yul\":5005:5006   */\n      0x01\n        /* \"#utility.yul\":5002:5003   */\n      dup2\n        /* \"#utility.yul\":4998:5007   */\n      add\n        /* \"#utility.yul\":4993:5007   */\n      swap1\n      pop\n        /* \"#utility.yul\":4958:5242   */\n      jump(tag_263)\n    tag_265:\n        /* \"#utility.yul\":4962:4976   */\n      pop\n        /* \"#utility.yul\":5258:5261   */\n      dup6\n        /* \"#utility.yul\":5251:5261   */\n      swap4\n      pop\n        /* \"#utility.yul\":4659:5267   */\n      pop\n      pop\n      pop\n      swap3\n      swap2\n      pop\n      pop\n      jump\t// out\n        /* \"#utility.yul\":5273:5382   */\n    tag_269:\n        /* \"#utility.yul\":5354:5375   */\n      tag_271\n        /* \"#utility.yul\":5369:5374   */\n      dup2\n        /* \"#utility.yul\":5354:5375   */\n      tag_272\n      jump\t// in\n    tag_271:\n        /* \"#utility.yul\":5349:5352   */\n      dup3\n        /* \"#utility.yul\":5342:5376   */\n      mstore\n        /* \"#utility.yul\":5332:5382   */\n      pop\n      pop\n      jump\t// out\n        /* \"#utility.yul\":5388:5752   */\n    tag_273:\n      0x00\n        /* \"#utility.yul\":5504:5543   */\n      tag_275\n        /* \"#utility.yul\":5537:5542   */\n      dup3\n        /* \"#utility.yul\":5504:5543   */\n      tag_276\n      jump\t// in\n    tag_275:\n        /* \"#utility.yul\":5559:5630   */\n      tag_277\n        /* \"#utility.yul\":5623:5629   */\n      dup2\n        /* \"#utility.yul\":5618:5621   */\n      dup6\n        /* \"#utility.yul\":5559:5630   */\n      tag_278\n      jump\t// in\n    tag_277:\n        /* \"#utility.yul\":5552:5630   */\n      swap4\n      pop\n        /* \"#utility.yul\":5639:5691   */\n      tag_279\n        /* \"#utility.yul\":5684:5690   */\n      dup2\n        /* \"#utility.yul\":5679:5682   */\n      dup6\n        /* \"#utility.yul\":5672:5676   */\n      0x20\n        /* \"#utility.yul\":5665:5670   */\n      dup7\n        /* \"#utility.yul\":5661:5677   */\n      add\n        /* \"#utility.yul\":5639:5691   */\n      tag_280\n      jump\t// in\n    tag_279:\n        /* \"#utility.yul\":5716:5745   */\n      tag_281\n        /* \"#utility.yul\":5738:5744   */\n      dup2\n        /* \"#utility.yul\":5716:5745   */\n      tag_282\n      jump\t// in\n    tag_281:\n        /* \"#utility.yul\":5711:5714   */\n      dup5\n        /* \"#utility.yul\":5707:5746   */\n      add\n        /* \"#utility.yul\":5700:5746   */\n      swap2\n      pop\n        /* \"#utility.yul\":5480:5752   */\n      pop\n      swap3\n      swap2\n      pop\n      pop\n      jump\t// out\n        /* \"#utility.yul\":5758:6127   */\n    tag_283:\n      0x00\n        /* \"#utility.yul\":5921:5988   */\n      tag_285\n        /* \"#utility.yul\":5985:5987   */\n      0x25\n        /* \"#utility.yul\":5980:5983   */\n      dup4\n        /* \"#utility.yul\":5921:5988   */\n      tag_278\n      jump\t// in\n    tag_285:\n        /* \"#utility.yul\":5914:5988   */\n      swap2\n      pop\n        /* \"#utility.yul\":6018:6052   */\n      0x4552433732313a207472616e736665722066726f6d20696e636f727265637420\n        /* \"#utility.yul\":6014:6015   */\n      0x00\n        /* \"#utility.yul\":6009:6012   */\n      dup4\n        /* \"#utility.yul\":6005:6016   */\n      add\n        /* \"#utility.yul\":5998:6053   */\n      mstore\n        /* \"#utility.yul\":6084:6091   */\n      0x6f776e6572000000000000000000000000000000000000000000000000000000\n        /* \"#utility.yul\":6079:6081   */\n      0x20\n        /* \"#utility.yul\":6074:6077   */\n      dup4\n        /* \"#utility.yul\":6070:6082   */\n      add\n        /* \"#utility.yul\":6063:6092   */\n      mstore\n        /* \"#utility.yul\":6118:6120   */\n      0x40\n        /* \"#utility.yul\":6113:6116   */\n      dup3\n        /* \"#utility.yul\":6109:6121   */\n      add\n        /* \"#utility.yul\":6102:6121   */\n      swap1\n      pop\n        /* \"#utility.yul\":5904:6127   */\n      swap2\n      swap1\n      pop\n      jump\t// out\n        /* \"#utility.yul\":6133:6525   */\n    tag_286:\n      0x00\n        /* \"#utility.yul\":6296:6363   */\n      tag_288\n        /* \"#utility.yul\":6360:6362   */\n      0x3c\n        /* \"#utility.yul\":6355:6358   */\n      dup4\n        /* \"#utility.yul\":6296:6363   */\n      tag_278\n      jump\t// in\n    tag_288:\n        /* \"#utility.yul\":6289:6363   */\n      swap2\n      pop\n        /* \"#utility.yul\":6393:6427   */\n      0x4552433732313a20617070726f76652063616c6c6572206973206e6569746865\n        /* \"#utility.yul\":6389:6390   */\n      0x00\n        /* \"#utility.yul\":6384:6387   */\n      dup4\n        /* \"#utility.yul\":6380:6391   */\n      add\n        /* \"#utility.yul\":6373:6428   */\n      mstore\n        /* \"#utility.yul\":6459:6489   */\n      0x72206f776e6572206e6f7220617070726f76656420666f7220616c6c00000000\n        /* \"#utility.yul\":6454:6456   */\n      0x20\n        /* \"#utility.yul\":6449:6452   */\n      dup4\n        /* \"#utility.yul\":6445:6457   */\n      add\n        /* \"#utility.yul\":6438:6490   */\n      mstore\n        /* \"#utility.yul\":6516:6518   */\n      0x40\n        /* \"#utility.yul\":6511:6514   */\n      dup3\n        /* \"#utility.yul\":6507:6519   */\n      add\n        /* \"#utility.yul\":6500:6519   */\n      swap1\n      pop\n        /* \"#utility.yul\":6279:6525   */\n      swap2\n      swap1\n      pop\n      jump\t// out\n        /* \"#utility.yul\":6531:6899   */\n    tag_289:\n      0x00\n        /* \"#utility.yul\":6694:6761   */\n      tag_291\n        /* \"#utility.yul\":6758:6760   */\n      0x24\n        /* \"#utility.yul\":6753:6756   */\n      dup4\n        /* \"#utility.yul\":6694:6761   */\n      tag_278\n      jump\t// in\n    tag_291:\n        /* \"#utility.yul\":6687:6761   */\n      swap2\n      pop\n        /* \"#utility.yul\":6791:6825   */\n      0x4552433732313a207472616e7366657220746f20746865207a65726f20616464\n        /* \"#utility.yul\":6787:6788   */\n      0x00\n        /* \"#utility.yul\":6782:6785   */\n      dup4\n        /* \"#utility.yul\":6778:6789   */\n      add\n        /* \"#utility.yul\":6771:6826   */\n      mstore\n        /* \"#utility.yul\":6857:6863   */\n      0x7265737300000000000000000000000000000000000000000000000000000000\n        /* \"#utility.yul\":6852:6854   */\n      0x20\n        /* \"#utility.yul\":6847:6850   */\n      dup4\n        /* \"#utility.yul\":6843:6855   */\n      add\n        /* \"#utility.yul\":6836:6864   */\n      mstore\n        /* \"#utility.yul\":6890:6892   */\n      0x40\n        /* \"#utility.yul\":6885:6888   */\n      dup3\n        /* \"#utility.yul\":6881:6893   */\n      add\n        /* \"#utility.yul\":6874:6893   */\n      swap1\n      pop\n        /* \"#utility.yul\":6677:6899   */\n      swap2\n      swap1\n      pop\n      jump\t// out\n        /* \"#utility.yul\":6905:7228   */\n    tag_292:\n      0x00\n        /* \"#utility.yul\":7068:7135   */\n      tag_294\n        /* \"#utility.yul\":7132:7134   */\n      0x19\n        /* \"#utility.yul\":7127:7130   */\n      dup4\n        /* \"#utility.yul\":7068:7135   */\n      tag_278\n      jump\t// in\n    tag_294:\n        /* \"#utility.yul\":7061:7135   */\n      swap2\n      pop\n        /* \"#utility.yul\":7165:7192   */\n      0x4552433732313a20617070726f766520746f2063616c6c657200000000000000\n        /* \"#utility.yul\":7161:7162   */\n      0x00\n        /* \"#utility.yul\":7156:7159   */\n      dup4\n        /* \"#utility.yul\":7152:7163   */\n      add\n        /* \"#utility.yul\":7145:7193   */\n      mstore\n        /* \"#utility.yul\":7219:7221   */\n      0x20\n        /* \"#utility.yul\":7214:7217   */\n      dup3\n        /* \"#utility.yul\":7210:7222   */\n      add\n        /* \"#utility.yul\":7203:7222   */\n      swap1\n      pop\n        /* \"#utility.yul\":7051:7228   */\n      swap2\n      swap1\n      pop\n      jump\t// out\n        /* \"#utility.yul\":7234:7610   */\n    tag_295:\n      0x00\n        /* \"#utility.yul\":7397:7464   */\n      tag_297\n        /* \"#utility.yul\":7461:7463   */\n      0x2c\n        /* \"#utility.yul\":7456:7459   */\n      dup4\n        /* \"#utility.yul\":7397:7464   */\n      tag_278\n      jump\t// in\n    tag_297:\n        /* \"#utility.yul\":7390:7464   */\n      swap2\n      pop\n        /* \"#utility.yul\":7494:7528   */\n      0x4552433732313a206f70657261746f7220717565727920666f72206e6f6e6578\n        /* \"#utility.yul\":7490:7491   */\n      0x00\n        /* \"#utility.yul\":7485:7488   */\n      dup4\n        /* \"#utility.yul\":7481:7492   */\n      add\n        /* \"#utility.yul\":7474:7529   */\n      mstore\n        /* \"#utility.yul\":7560:7574   */\n      0x697374656e7420746f6b656e0000000000000000000000000000000000000000\n        /* \"#utility.yul\":7555:7557   */\n      0x20\n        /* \"#utility.yul\":7550:7553   */\n      dup4\n        /* \"#utility.yul\":7546:7558   */\n      add\n        /* \"#utility.yul\":7539:7575   */\n      mstore\n        /* \"#utility.yul\":7601:7603   */\n      0x40\n        /* \"#utility.yul\":7596:7599   */\n      dup3\n        /* \"#utility.yul\":7592:7604   */\n      add\n        /* \"#utility.yul\":7585:7604   */\n      swap1\n      pop\n        /* \"#utility.yul\":7380:7610   */\n      swap2\n      swap1\n      pop\n      jump\t// out\n        /* \"#utility.yul\":7616:7990   */\n    tag_298:\n      0x00\n        /* \"#utility.yul\":7779:7846   */\n      tag_300\n        /* \"#utility.yul\":7843:7845   */\n      0x2a\n        /* \"#utility.yul\":7838:7841   */\n      dup4\n        /* \"#utility.yul\":7779:7846   */\n      tag_278\n      jump\t// in\n    tag_300:\n        /* \"#utility.yul\":7772:7846   */\n      swap2\n      pop\n        /* \"#utility.yul\":7876:7910   */\n      0x4552433732313a2062616c616e636520717565727920666f7220746865207a65\n        /* \"#utility.yul\":7872:7873   */\n      0x00\n        /* \"#utility.yul\":7867:7870   */\n      dup4\n        /* \"#utility.yul\":7863:7874   */\n      add\n        /* \"#utility.yul\":7856:7911   */\n      mstore\n        /* \"#utility.yul\":7942:7954   */\n      0x726f206164647265737300000000000000000000000000000000000000000000\n        /* \"#utility.yul\":7937:7939   */\n      0x20\n        /* \"#utility.yul\":7932:7935   */\n      dup4\n        /* \"#utility.yul\":7928:7940   */\n      add\n        /* \"#utility.yul\":7921:7955   */\n      mstore\n        /* \"#utility.yul\":7981:7983   */\n      0x40\n        /* \"#utility.yul\":7976:7979   */\n      dup3\n        /* \"#utility.yul\":7972:7984   */\n      add\n        /* \"#utility.yul\":7965:7984   */\n      swap1\n      pop\n        /* \"#utility.yul\":7762:7990   */\n      swap2\n      swap1\n      pop\n      jump\t// out\n        /* \"#utility.yul\":7996:8369   */\n    tag_301:\n      0x00\n        /* \"#utility.yul\":8159:8226   */\n      tag_303\n        /* \"#utility.yul\":8223:8225   */\n      0x29\n        /* \"#utility.yul\":8218:8221   */\n      dup4\n        /* \"#utility.yul\":8159:8226   */\n      tag_278\n      jump\t// in\n    tag_303:\n        /* \"#utility.yul\":8152:8226   */\n      swap2\n      pop\n        /* \"#utility.yul\":8256:8290   */\n      0x4552433732313a206f776e657220717565727920666f72206e6f6e6578697374\n        /* \"#utility.yul\":8252:8253   */\n      0x00\n        /* \"#utility.yul\":8247:8250   */\n      dup4\n        /* \"#utility.yul\":8243:8254   */\n      add\n        /* \"#utility.yul\":8236:8291   */\n      mstore\n        /* \"#utility.yul\":8322:8333   */\n      0x656e7420746f6b656e0000000000000000000000000000000000000000000000\n        /* \"#utility.yul\":8317:8319   */\n      0x20\n        /* \"#utility.yul\":8312:8315   */\n      dup4\n        /* \"#utility.yul\":8308:8320   */\n      add\n        /* \"#utility.yul\":8301:8334   */\n      mstore\n        /* \"#utility.yul\":8360:8362   */\n      0x40\n        /* \"#utility.yul\":8355:8358   */\n      dup3\n        /* \"#utility.yul\":8351:8363   */\n      add\n        /* \"#utility.yul\":8344:8363   */\n      swap1\n      pop\n        /* \"#utility.yul\":8142:8369   */\n      swap2\n      swap1\n      pop\n      jump\t// out\n        /* \"#utility.yul\":8375:8751   */\n    tag_304:\n      0x00\n        /* \"#utility.yul\":8538:8605   */\n      tag_306\n        /* \"#utility.yul\":8602:8604   */\n      0x2c\n        /* \"#utility.yul\":8597:8600   */\n      dup4\n        /* \"#utility.yul\":8538:8605   */\n      tag_278\n      jump\t// in\n    tag_306:\n        /* \"#utility.yul\":8531:8605   */\n      swap2\n      pop\n        /* \"#utility.yul\":8635:8669   */\n      0x4552433732313a20617070726f76656420717565727920666f72206e6f6e6578\n        /* \"#utility.yul\":8631:8632   */\n      0x00\n        /* \"#utility.yul\":8626:8629   */\n      dup4\n        /* \"#utility.yul\":8622:8633   */\n      add\n        /* \"#utility.yul\":8615:8670   */\n      mstore\n        /* \"#utility.yul\":8701:8715   */\n      0x697374656e7420746f6b656e0000000000000000000000000000000000000000\n        /* \"#utility.yul\":8696:8698   */\n      0x20\n        /* \"#utility.yul\":8691:8694   */\n      dup4\n        /* \"#utility.yul\":8687:8699   */\n      add\n        /* \"#utility.yul\":8680:8716   */\n      mstore\n        /* \"#utility.yul\":8742:8744   */\n      0x40\n        /* \"#utility.yul\":8737:8740   */\n      dup3\n        /* \"#utility.yul\":8733:8745   */\n      add\n        /* \"#utility.yul\":8726:8745   */\n      swap1\n      pop\n        /* \"#utility.yul\":8521:8751   */\n      swap2\n      swap1\n      pop\n      jump\t// out\n        /* \"#utility.yul\":8757:9122   */\n    tag_307:\n      0x00\n        /* \"#utility.yul\":8920:8987   */\n      tag_309\n        /* \"#utility.yul\":8984:8986   */\n      0x21\n        /* \"#utility.yul\":8979:8982   */\n      dup4\n        /* \"#utility.yul\":8920:8987   */\n      tag_278\n      jump\t// in\n    tag_309:\n        /* \"#utility.yul\":8913:8987   */\n      swap2\n      pop\n        /* \"#utility.yul\":9017:9051   */\n      0x4552433732313a20617070726f76616c20746f2063757272656e74206f776e65\n        /* \"#utility.yul\":9013:9014   */\n      0x00\n        /* \"#utility.yul\":9008:9011   */\n      dup4\n        /* \"#utility.yul\":9004:9015   */\n      add\n        /* \"#utility.yul\":8997:9052   */\n      mstore\n        /* \"#utility.yul\":9083:9086   */\n      0x7200000000000000000000000000000000000000000000000000000000000000\n        /* \"#utility.yul\":9078:9080   */\n      0x20\n        /* \"#utility.yul\":9073:9076   */\n      dup4\n        /* \"#utility.yul\":9069:9081   */\n      add\n        /* \"#utility.yul\":9062:9087   */\n      mstore\n        /* \"#utility.yul\":9113:9115   */\n      0x40\n        /* \"#utility.yul\":9108:9111   */\n      dup3\n        /* \"#utility.yul\":9104:9116   */\n      add\n        /* \"#utility.yul\":9097:9116   */\n      swap1\n      pop\n        /* \"#utility.yul\":8903:9122   */\n      swap2\n      swap1\n      pop\n      jump\t// out\n        /* \"#utility.yul\":9128:9448   */\n    tag_310:\n      0x00\n        /* \"#utility.yul\":9291:9358   */\n      tag_312\n        /* \"#utility.yul\":9355:9357   */\n      0x16\n        /* \"#utility.yul\":9350:9353   */\n      dup4\n        /* \"#utility.yul\":9291:9358   */\n      tag_278\n      jump\t// in\n    tag_312:\n        /* \"#utility.yul\":9284:9358   */\n      swap2\n      pop\n        /* \"#utility.yul\":9388:9412   */\n      0x546f6b656e496420646f6573206e6f7420657869737400000000000000000000\n        /* \"#utility.yul\":9384:9385   */\n      0x00\n        /* \"#utility.yul\":9379:9382   */\n      dup4\n        /* \"#utility.yul\":9375:9386   */\n      add\n        /* \"#utility.yul\":9368:9413   */\n      mstore\n        /* \"#utility.yul\":9439:9441   */\n      0x20\n        /* \"#utility.yul\":9434:9437   */\n      dup3\n        /* \"#utility.yul\":9430:9442   */\n      add\n        /* \"#utility.yul\":9423:9442   */\n      swap1\n      pop\n        /* \"#utility.yul\":9274:9448   */\n      swap2\n      swap1\n      pop\n      jump\t// out\n        /* \"#utility.yul\":9454:9835   */\n    tag_313:\n      0x00\n        /* \"#utility.yul\":9617:9684   */\n      tag_315\n        /* \"#utility.yul\":9681:9683   */\n      0x31\n        /* \"#utility.yul\":9676:9679   */\n      dup4\n        /* \"#utility.yul\":9617:9684   */\n      tag_278\n      jump\t// in\n    tag_315:\n        /* \"#utility.yul\":9610:9684   */\n      swap2\n      pop\n        /* \"#utility.yul\":9714:9748   */\n      0x4552433732313a207472616e736665722063616c6c6572206973206e6f74206f\n        /* \"#utility.yul\":9710:9711   */\n      0x00\n        /* \"#utility.yul\":9705:9708   */\n      dup4\n        /* \"#utility.yul\":9701:9712   */\n      add\n        /* \"#utility.yul\":9694:9749   */\n      mstore\n        /* \"#utility.yul\":9780:9799   */\n      0x776e6572206e6f7220617070726f766564000000000000000000000000000000\n        /* \"#utility.yul\":9775:9777   */\n      0x20\n        /* \"#utility.yul\":9770:9773   */\n      dup4\n        /* \"#utility.yul\":9766:9778   */\n      add\n        /* \"#utility.yul\":9759:9800   */\n      mstore\n        /* \"#utility.yul\":9826:9828   */\n      0x40\n        /* \"#utility.yul\":9821:9824   */\n      dup3\n        /* \"#utility.yul\":9817:9829   */\n      add\n        /* \"#utility.yul\":9810:9829   */\n      swap1\n      pop\n        /* \"#utility.yul\":9600:9835   */\n      swap2\n      swap1\n      pop\n      jump\t// out\n        /* \"#utility.yul\":9841:9949   */\n    tag_250:\n        /* \"#utility.yul\":9918:9942   */\n      tag_317\n        /* \"#utility.yul\":9936:9941   */\n      dup2\n        /* \"#utility.yul\":9918:9942   */\n      tag_318\n      jump\t// in\n    tag_317:\n        /* \"#utility.yul\":9913:9916   */\n      dup3\n        /* \"#utility.yul\":9906:9943   */\n      mstore\n        /* \"#utility.yul\":9896:9949   */\n      pop\n      pop\n      jump\t// out\n        /* \"#utility.yul\":9955:10073   */\n    tag_319:\n        /* \"#utility.yul\":10042:10066   */\n      tag_321\n        /* \"#utility.yul\":10060:10065   */\n      dup2\n        /* \"#utility.yul\":10042:10066   */\n      tag_318\n      jump\t// in\n    tag_321:\n        /* \"#utility.yul\":10037:10040   */\n      dup3\n        /* \"#utility.yul\":10030:10067   */\n      mstore\n        /* \"#utility.yul\":10020:10073   */\n      pop\n      pop\n      jump\t// out\n        /* \"#utility.yul\":10079:10301   */\n    tag_35:\n      0x00\n        /* \"#utility.yul\":10210:10212   */\n      0x20\n        /* \"#utility.yul\":10199:10208   */\n      dup3\n        /* \"#utility.yul\":10195:10213   */\n      add\n        /* \"#utility.yul\":10187:10213   */\n      swap1\n      pop\n        /* \"#utility.yul\":10223:10294   */\n      tag_323\n        /* \"#utility.yul\":10291:10292   */\n      0x00\n        /* \"#utility.yul\":10280:10289   */\n      dup4\n        /* \"#utility.yul\":10276:10293   */\n      add\n        /* \"#utility.yul\":10267:10273   */\n      dup5\n        /* \"#utility.yul\":10223:10294   */\n      tag_251\n      jump\t// in\n    tag_323:\n        /* \"#utility.yul\":10177:10301   */\n      swap3\n      swap2\n      pop\n      pop\n      jump\t// out\n        /* \"#utility.yul\":10307:10680   */\n    tag_69:\n      0x00\n        /* \"#utility.yul\":10488:10490   */\n      0x20\n        /* \"#utility.yul\":10477:10486   */\n      dup3\n        /* \"#utility.yul\":10473:10491   */\n      add\n        /* \"#utility.yul\":10465:10491   */\n      swap1\n      pop\n        /* \"#utility.yul\":10537:10546   */\n      dup2\n        /* \"#utility.yul\":10531:10535   */\n      dup2\n        /* \"#utility.yul\":10527:10547   */\n      sub\n        /* \"#utility.yul\":10523:10524   */\n      0x00\n        /* \"#utility.yul\":10512:10521   */\n      dup4\n        /* \"#utility.yul\":10508:10525   */\n      add\n        /* \"#utility.yul\":10501:10548   */\n      mstore\n        /* \"#utility.yul\":10565:10673   */\n      tag_325\n        /* \"#utility.yul\":10668:10672   */\n      dup2\n        /* \"#utility.yul\":10659:10665   */\n      dup5\n        /* \"#utility.yul\":10565:10673   */\n      tag_255\n      jump\t// in\n    tag_325:\n        /* \"#utility.yul\":10557:10673   */\n      swap1\n      pop\n        /* \"#utility.yul\":10455:10680   */\n      swap3\n      swap2\n      pop\n      pop\n      jump\t// out\n        /* \"#utility.yul\":10686:10896   */\n    tag_23:\n      0x00\n        /* \"#utility.yul\":10811:10813   */\n      0x20\n        /* \"#utility.yul\":10800:10809   */\n      dup3\n        /* \"#utility.yul\":10796:10814   */\n      add\n        /* \"#utility.yul\":10788:10814   */\n      swap1\n      pop\n        /* \"#utility.yul\":10824:10889   */\n      tag_327\n        /* \"#utility.yul\":10886:10887   */\n      0x00\n        /* \"#utility.yul\":10875:10884   */\n      dup4\n        /* \"#utility.yul\":10871:10888   */\n      add\n        /* \"#utility.yul\":10862:10868   */\n      dup5\n        /* \"#utility.yul\":10824:10889   */\n      tag_269\n      jump\t// in\n    tag_327:\n        /* \"#utility.yul\":10778:10896   */\n      swap3\n      swap2\n      pop\n      pop\n      jump\t// out\n        /* \"#utility.yul\":10902:11215   */\n    tag_28:\n      0x00\n        /* \"#utility.yul\":11053:11055   */\n      0x20\n        /* \"#utility.yul\":11042:11051   */\n      dup3\n        /* \"#utility.yul\":11038:11056   */\n      add\n        /* \"#utility.yul\":11030:11056   */\n      swap1\n      pop\n        /* \"#utility.yul\":11102:11111   */\n      dup2\n        /* \"#utility.yul\":11096:11100   */\n      dup2\n        /* \"#utility.yul\":11092:11112   */\n      sub\n        /* \"#utility.yul\":11088:11089   */\n      0x00\n        /* \"#utility.yul\":11077:11086   */\n      dup4\n        /* \"#utility.yul\":11073:11090   */\n      add\n        /* \"#utility.yul\":11066:11113   */\n      mstore\n        /* \"#utility.yul\":11130:11208   */\n      tag_329\n        /* \"#utility.yul\":11203:11207   */\n      dup2\n        /* \"#utility.yul\":11194:11200   */\n      dup5\n        /* \"#utility.yul\":11130:11208   */\n      tag_273\n      jump\t// in\n    tag_329:\n        /* \"#utility.yul\":11122:11208   */\n      swap1\n      pop\n        /* \"#utility.yul\":11020:11215   */\n      swap3\n      swap2\n      pop\n      pop\n      jump\t// out\n        /* \"#utility.yul\":11221:11640   */\n    tag_118:\n      0x00\n        /* \"#utility.yul\":11425:11427   */\n      0x20\n        /* \"#utility.yul\":11414:11423   */\n      dup3\n        /* \"#utility.yul\":11410:11428   */\n      add\n        /* \"#utility.yul\":11402:11428   */\n      swap1\n      pop\n        /* \"#utility.yul\":11474:11483   */\n      dup2\n        /* \"#utility.yul\":11468:11472   */\n      dup2\n        /* \"#utility.yul\":11464:11484   */\n      sub\n        /* \"#utility.yul\":11460:11461   */\n      0x00\n        /* \"#utility.yul\":11449:11458   */\n      dup4\n        /* \"#utility.yul\":11445:11462   */\n      add\n        /* \"#utility.yul\":11438:11485   */\n      mstore\n        /* \"#utility.yul\":11502:11633   */\n      tag_331\n        /* \"#utility.yul\":11628:11632   */\n      dup2\n        /* \"#utility.yul\":11502:11633   */\n      tag_283\n      jump\t// in\n    tag_331:\n        /* \"#utility.yul\":11494:11633   */\n      swap1\n      pop\n        /* \"#utility.yul\":11392:11640   */\n      swap2\n      swap1\n      pop\n      jump\t// out\n        /* \"#utility.yul\":11646:12065   */\n    tag_108:\n      0x00\n        /* \"#utility.yul\":11850:11852   */\n      0x20\n        /* \"#utility.yul\":11839:11848   */\n      dup3\n        /* \"#utility.yul\":11835:11853   */\n      add\n        /* \"#utility.yul\":11827:11853   */\n      swap1\n      pop\n        /* \"#utility.yul\":11899:11908   */\n      dup2\n        /* \"#utility.yul\":11893:11897   */\n      dup2\n        /* \"#utility.yul\":11889:11909   */\n      sub\n        /* \"#utility.yul\":11885:11886   */\n      0x00\n        /* \"#utility.yul\":11874:11883   */\n      dup4\n        /* \"#utility.yul\":11870:11887   */\n      add\n        /* \"#utility.yul\":11863:11910   */\n      mstore\n        /* \"#utility.yul\":11927:12058   */\n      tag_333\n        /* \"#utility.yul\":12053:12057   */\n      dup2\n        /* \"#utility.yul\":11927:12058   */\n      tag_286\n      jump\t// in\n    tag_333:\n        /* \"#utility.yul\":11919:12058   */\n      swap1\n      pop\n        /* \"#utility.yul\":11817:12065   */\n      swap2\n      swap1\n      pop\n      jump\t// out\n        /* \"#utility.yul\":12071:12490   */\n    tag_121:\n      0x00\n        /* \"#utility.yul\":12275:12277   */\n      0x20\n        /* \"#utility.yul\":12264:12273   */\n      dup3\n        /* \"#utility.yul\":12260:12278   */\n      add\n        /* \"#utility.yul\":12252:12278   */\n      swap1\n      pop\n        /* \"#utility.yul\":12324:12333   */\n      dup2\n        /* \"#utility.yul\":12318:12322   */\n      dup2\n        /* \"#utility.yul\":12314:12334   */\n      sub\n        /* \"#utility.yul\":12310:12311   */\n      0x00\n        /* \"#utility.yul\":12299:12308   */\n      dup4\n        /* \"#utility.yul\":12295:12312   */\n      add\n        /* \"#utility.yul\":12288:12335   */\n      mstore\n        /* \"#utility.yul\":12352:12483   */\n      tag_335\n        /* \"#utility.yul\":12478:12482   */\n      dup2\n        /* \"#utility.yul\":12352:12483   */\n      tag_289\n      jump\t// in\n    tag_335:\n        /* \"#utility.yul\":12344:12483   */\n      swap1\n      pop\n        /* \"#utility.yul\":12242:12490   */\n      swap2\n      swap1\n      pop\n      jump\t// out\n        /* \"#utility.yul\":12496:12915   */\n    tag_145:\n      0x00\n        /* \"#utility.yul\":12700:12702   */\n      0x20\n        /* \"#utility.yul\":12689:12698   */\n      dup3\n        /* \"#utility.yul\":12685:12703   */\n      add\n        /* \"#utility.yul\":12677:12703   */\n      swap1\n      pop\n        /* \"#utility.yul\":12749:12758   */\n      dup2\n        /* \"#utility.yul\":12743:12747   */\n      dup2\n        /* \"#utility.yul\":12739:12759   */\n      sub\n        /* \"#utility.yul\":12735:12736   */\n      0x00\n        /* \"#utility.yul\":12724:12733   */\n      dup4\n        /* \"#utility.yul\":12720:12737   */\n      add\n        /* \"#utility.yul\":12713:12760   */\n      mstore\n        /* \"#utility.yul\":12777:12908   */\n      tag_337\n        /* \"#utility.yul\":12903:12907   */\n      dup2\n        /* \"#utility.yul\":12777:12908   */\n      tag_292\n      jump\t// in\n    tag_337:\n        /* \"#utility.yul\":12769:12908   */\n      swap1\n      pop\n        /* \"#utility.yul\":12667:12915   */\n      swap2\n      swap1\n      pop\n      jump\t// out\n        /* \"#utility.yul\":12921:13340   */\n    tag_171:\n      0x00\n        /* \"#utility.yul\":13125:13127   */\n      0x20\n        /* \"#utility.yul\":13114:13123   */\n      dup3\n        /* \"#utility.yul\":13110:13128   */\n      add\n        /* \"#utility.yul\":13102:13128   */\n      swap1\n      pop\n        /* \"#utility.yul\":13174:13183   */\n      dup2\n        /* \"#utility.yul\":13168:13172   */\n      dup2\n        /* \"#utility.yul\":13164:13184   */\n      sub\n        /* \"#utility.yul\":13160:13161   */\n      0x00\n        /* \"#utility.yul\":13149:13158   */\n      dup4\n        /* \"#utility.yul\":13145:13162   */\n      add\n        /* \"#utility.yul\":13138:13185   */\n      mstore\n        /* \"#utility.yul\":13202:13333   */\n      tag_339\n        /* \"#utility.yul\":13328:13332   */\n      dup2\n        /* \"#utility.yul\":13202:13333   */\n      tag_295\n      jump\t// in\n    tag_339:\n        /* \"#utility.yul\":13194:13333   */\n      swap1\n      pop\n        /* \"#utility.yul\":13092:13340   */\n      swap2\n      swap1\n      pop\n      jump\t// out\n        /* \"#utility.yul\":13346:13765   */\n    tag_135:\n      0x00\n        /* \"#utility.yul\":13550:13552   */\n      0x20\n        /* \"#utility.yul\":13539:13548   */\n      dup3\n        /* \"#utility.yul\":13535:13553   */\n      add\n        /* \"#utility.yul\":13527:13553   */\n      swap1\n      pop\n        /* \"#utility.yul\":13599:13608   */\n      dup2\n        /* \"#utility.yul\":13593:13597   */\n      dup2\n        /* \"#utility.yul\":13589:13609   */\n      sub\n        /* \"#utility.yul\":13585:13586   */\n      0x00\n        /* \"#utility.yul\":13574:13583   */\n      dup4\n        /* \"#utility.yul\":13570:13587   */\n      add\n        /* \"#utility.yul\":13563:13610   */\n      mstore\n        /* \"#utility.yul\":13627:13758   */\n      tag_341\n        /* \"#utility.yul\":13753:13757   */\n      dup2\n        /* \"#utility.yul\":13627:13758   */\n      tag_298\n      jump\t// in\n    tag_341:\n        /* \"#utility.yul\":13619:13758   */\n      swap1\n      pop\n        /* \"#utility.yul\":13517:13765   */\n      swap2\n      swap1\n      pop\n      jump\t// out\n        /* \"#utility.yul\":13771:14190   */\n    tag_131:\n      0x00\n        /* \"#utility.yul\":13975:13977   */\n      0x20\n        /* \"#utility.yul\":13964:13973   */\n      dup3\n        /* \"#utility.yul\":13960:13978   */\n      add\n        /* \"#utility.yul\":13952:13978   */\n      swap1\n      pop\n        /* \"#utility.yul\":14024:14033   */\n      dup2\n        /* \"#utility.yul\":14018:14022   */\n      dup2\n        /* \"#utility.yul\":14014:14034   */\n      sub\n        /* \"#utility.yul\":14010:14011   */\n      0x00\n        /* \"#utility.yul\":13999:14008   */\n      dup4\n        /* \"#utility.yul\":13995:14012   */\n      add\n        /* \"#utility.yul\":13988:14035   */\n      mstore\n        /* \"#utility.yul\":14052:14183   */\n      tag_343\n        /* \"#utility.yul\":14178:14182   */\n      dup2\n        /* \"#utility.yul\":14052:14183   */\n      tag_301\n      jump\t// in\n    tag_343:\n        /* \"#utility.yul\":14044:14183   */\n      swap1\n      pop\n        /* \"#utility.yul\":13942:14190   */\n      swap2\n      swap1\n      pop\n      jump\t// out\n        /* \"#utility.yul\":14196:14615   */\n    tag_99:\n      0x00\n        /* \"#utility.yul\":14400:14402   */\n      0x20\n        /* \"#utility.yul\":14389:14398   */\n      dup3\n        /* \"#utility.yul\":14385:14403   */\n      add\n        /* \"#utility.yul\":14377:14403   */\n      swap1\n      pop\n        /* \"#utility.yul\":14449:14458   */\n      dup2\n        /* \"#utility.yul\":14443:14447   */\n      dup2\n        /* \"#utility.yul\":14439:14459   */\n      sub\n        /* \"#utility.yul\":14435:14436   */\n      0x00\n        /* \"#utility.yul\":14424:14433   */\n      dup4\n        /* \"#utility.yul\":14420:14437   */\n      add\n        /* \"#utility.yul\":14413:14460   */\n      mstore\n        /* \"#utility.yul\":14477:14608   */\n      tag_345\n        /* \"#utility.yul\":14603:14607   */\n      dup2\n        /* \"#utility.yul\":14477:14608   */\n      tag_304\n      jump\t// in\n    tag_345:\n        /* \"#utility.yul\":14469:14608   */\n      swap1\n      pop\n        /* \"#utility.yul\":14367:14615   */\n      swap2\n      swap1\n      pop\n      jump\t// out\n        /* \"#utility.yul\":14621:15040   */\n    tag_103:\n      0x00\n        /* \"#utility.yul\":14825:14827   */\n      0x20\n        /* \"#utility.yul\":14814:14823   */\n      dup3\n        /* \"#utility.yul\":14810:14828   */\n      add\n        /* \"#utility.yul\":14802:14828   */\n      swap1\n      pop\n        /* \"#utility.yul\":14874:14883   */\n      dup2\n        /* \"#utility.yul\":14868:14872   */\n      dup2\n        /* \"#utility.yul\":14864:14884   */\n      sub\n        /* \"#utility.yul\":14860:14861   */\n      0x00\n        /* \"#utility.yul\":14849:14858   */\n      dup4\n        /* \"#utility.yul\":14845:14862   */\n      add\n        /* \"#utility.yul\":14838:14885   */\n      mstore\n        /* \"#utility.yul\":14902:15033   */\n      tag_347\n        /* \"#utility.yul\":15028:15032   */\n      dup2\n        /* \"#utility.yul\":14902:15033   */\n      tag_307\n      jump\t// in\n    tag_347:\n        /* \"#utility.yul\":14894:15033   */\n      swap1\n      pop\n        /* \"#utility.yul\":14792:15040   */\n      swap2\n      swap1\n      pop\n      jump\t// out\n        /* \"#utility.yul\":15046:15465   */\n    tag_153:\n      0x00\n        /* \"#utility.yul\":15250:15252   */\n      0x20\n        /* \"#utility.yul\":15239:15248   */\n      dup3\n        /* \"#utility.yul\":15235:15253   */\n      add\n        /* \"#utility.yul\":15227:15253   */\n      swap1\n      pop\n        /* \"#utility.yul\":15299:15308   */\n      dup2\n        /* \"#utility.yul\":15293:15297   */\n      dup2\n        /* \"#utility.yul\":15289:15309   */\n      sub\n        /* \"#utility.yul\":15285:15286   */\n      0x00\n        /* \"#utility.yul\":15274:15283   */\n      dup4\n        /* \"#utility.yul\":15270:15287   */\n      add\n        /* \"#utility.yul\":15263:15310   */\n      mstore\n        /* \"#utility.yul\":15327:15458   */\n      tag_349\n        /* \"#utility.yul\":15453:15457   */\n      dup2\n        /* \"#utility.yul\":15327:15458   */\n      tag_310\n      jump\t// in\n    tag_349:\n        /* \"#utility.yul\":15319:15458   */\n      swap1\n      pop\n        /* \"#utility.yul\":15217:15465   */\n      swap2\n      swap1\n      pop\n      jump\t// out\n        /* \"#utility.yul\":15471:15890   */\n    tag_114:\n      0x00\n        /* \"#utility.yul\":15675:15677   */\n      0x20\n        /* \"#utility.yul\":15664:15673   */\n      dup3\n        /* \"#utility.yul\":15660:15678   */\n      add\n        /* \"#utility.yul\":15652:15678   */\n      swap1\n      pop\n        /* \"#utility.yul\":15724:15733   */\n      dup2\n        /* \"#utility.yul\":15718:15722   */\n      dup2\n        /* \"#utility.yul\":15714:15734   */\n      sub\n        /* \"#utility.yul\":15710:15711   */\n      0x00\n        /* \"#utility.yul\":15699:15708   */\n      dup4\n        /* \"#utility.yul\":15695:15712   */\n      add\n        /* \"#utility.yul\":15688:15735   */\n      mstore\n        /* \"#utility.yul\":15752:15883   */\n      tag_351\n        /* \"#utility.yul\":15878:15882   */\n      dup2\n        /* \"#utility.yul\":15752:15883   */\n      tag_313\n      jump\t// in\n    tag_351:\n        /* \"#utility.yul\":15744:15883   */\n      swap1\n      pop\n        /* \"#utility.yul\":15642:15890   */\n      swap2\n      swap1\n      pop\n      jump\t// out\n        /* \"#utility.yul\":15896:16118   */\n    tag_55:\n      0x00\n        /* \"#utility.yul\":16027:16029   */\n      0x20\n        /* \"#utility.yul\":16016:16025   */\n      dup3\n        /* \"#utility.yul\":16012:16030   */\n      add\n        /* \"#utility.yul\":16004:16030   */\n      swap1\n      pop\n        /* \"#utility.yul\":16040:16111   */\n      tag_353\n        /* \"#utility.yul\":16108:16109   */\n      0x00\n        /* \"#utility.yul\":16097:16106   */\n      dup4\n        /* \"#utility.yul\":16093:16110   */\n      add\n        /* \"#utility.yul\":16084:16090   */\n      dup5\n        /* \"#utility.yul\":16040:16111   */\n      tag_319\n      jump\t// in\n    tag_353:\n        /* \"#utility.yul\":15994:16118   */\n      swap3\n      swap2\n      pop\n      pop\n      jump\t// out\n        /* \"#utility.yul\":16124:16407   */\n    tag_193:\n      0x00\n        /* \"#utility.yul\":16190:16192   */\n      0x40\n        /* \"#utility.yul\":16184:16193   */\n      mload\n        /* \"#utility.yul\":16174:16193   */\n      swap1\n      pop\n        /* \"#utility.yul\":16232:16236   */\n      dup2\n        /* \"#utility.yul\":16224:16230   */\n      dup2\n        /* \"#utility.yul\":16220:16237   */\n      add\n        /* \"#utility.yul\":16339:16345   */\n      dup2\n        /* \"#utility.yul\":16327:16337   */\n      dup2\n        /* \"#utility.yul\":16324:16346   */\n      lt\n        /* \"#utility.yul\":16303:16321   */\n      0xffffffffffffffff\n        /* \"#utility.yul\":16291:16301   */\n      dup3\n        /* \"#utility.yul\":16288:16322   */\n      gt\n        /* \"#utility.yul\":16285:16347   */\n      or\n        /* \"#utility.yul\":16282:16284   */\n      iszero\n      tag_355\n      jumpi\n        /* \"#utility.yul\":16350:16368   */\n      tag_356\n      tag_357\n      jump\t// in\n    tag_356:\n        /* \"#utility.yul\":16282:16284   */\n    tag_355:\n        /* \"#utility.yul\":16390:16400   */\n      dup1\n        /* \"#utility.yul\":16386:16388   */\n      0x40\n        /* \"#utility.yul\":16379:16401   */\n      mstore\n        /* \"#utility.yul\":16164:16407   */\n      pop\n      swap2\n      swap1\n      pop\n      jump\t// out\n        /* \"#utility.yul\":16413:16745   */\n    tag_192:\n      0x00\n        /* \"#utility.yul\":16565:16583   */\n      0xffffffffffffffff\n        /* \"#utility.yul\":16557:16563   */\n      dup3\n        /* \"#utility.yul\":16554:16584   */\n      gt\n        /* \"#utility.yul\":16551:16553   */\n      iszero\n      tag_359\n      jumpi\n        /* \"#utility.yul\":16587:16605   */\n      tag_360\n      tag_357\n      jump\t// in\n    tag_360:\n        /* \"#utility.yul\":16551:16553   */\n    tag_359:\n        /* \"#utility.yul\":16672:16676   */\n      0x1f\n        /* \"#utility.yul\":16668:16677   */\n      not\n        /* \"#utility.yul\":16661:16665   */\n      0x1f\n        /* \"#utility.yul\":16653:16659   */\n      dup4\n        /* \"#utility.yul\":16649:16666   */\n      add\n        /* \"#utility.yul\":16645:16678   */\n      and\n        /* \"#utility.yul\":16637:16678   */\n      swap1\n      pop\n        /* \"#utility.yul\":16733:16737   */\n      0x20\n        /* \"#utility.yul\":16727:16731   */\n      dup2\n        /* \"#utility.yul\":16723:16738   */\n      add\n        /* \"#utility.yul\":16715:16738   */\n      swap1\n      pop\n        /* \"#utility.yul\":16480:16745   */\n      swap2\n      swap1\n      pop\n      jump\t// out\n        /* \"#utility.yul\":16751:16883   */\n    tag_262:\n      0x00\n        /* \"#utility.yul\":16841:16844   */\n      dup2\n        /* \"#utility.yul\":16833:16844   */\n      swap1\n      pop\n        /* \"#utility.yul\":16871:16875   */\n      0x20\n        /* \"#utility.yul\":16866:16869   */\n      dup3\n        /* \"#utility.yul\":16862:16876   */\n      add\n        /* \"#utility.yul\":16854:16876   */\n      swap1\n      pop\n        /* \"#utility.yul\":16823:16883   */\n      swap2\n      swap1\n      pop\n      jump\t// out\n        /* \"#utility.yul\":16889:17003   */\n    tag_258:\n      0x00\n        /* \"#utility.yul\":16990:16995   */\n      dup2\n        /* \"#utility.yul\":16984:16996   */\n      mload\n        /* \"#utility.yul\":16974:16996   */\n      swap1\n      pop\n        /* \"#utility.yul\":16963:17003   */\n      swap2\n      swap1\n      pop\n      jump\t// out\n        /* \"#utility.yul\":17009:17108   */\n    tag_276:\n      0x00\n        /* \"#utility.yul\":17095:17100   */\n      dup2\n        /* \"#utility.yul\":17089:17101   */\n      mload\n        /* \"#utility.yul\":17079:17101   */\n      swap1\n      pop\n        /* \"#utility.yul\":17068:17108   */\n      swap2\n      swap1\n      pop\n      jump\t// out\n        /* \"#utility.yul\":17114:17227   */\n    tag_268:\n      0x00\n        /* \"#utility.yul\":17216:17220   */\n      0x20\n        /* \"#utility.yul\":17211:17214   */\n      dup3\n        /* \"#utility.yul\":17207:17221   */\n      add\n        /* \"#utility.yul\":17199:17221   */\n      swap1\n      pop\n        /* \"#utility.yul\":17189:17227   */\n      swap2\n      swap1\n      pop\n      jump\t// out\n        /* \"#utility.yul\":17233:17417   */\n    tag_260:\n      0x00\n        /* \"#utility.yul\":17366:17372   */\n      dup3\n        /* \"#utility.yul\":17361:17364   */\n      dup3\n        /* \"#utility.yul\":17354:17373   */\n      mstore\n        /* \"#utility.yul\":17406:17410   */\n      0x20\n        /* \"#utility.yul\":17401:17404   */\n      dup3\n        /* \"#utility.yul\":17397:17411   */\n      add\n        /* \"#utility.yul\":17382:17411   */\n      swap1\n      pop\n        /* \"#utility.yul\":17344:17417   */\n      swap3\n      swap2\n      pop\n      pop\n      jump\t// out\n        /* \"#utility.yul\":17423:17592   */\n    tag_278:\n      0x00\n        /* \"#utility.yul\":17541:17547   */\n      dup3\n        /* \"#utility.yul\":17536:17539   */\n      dup3\n        /* \"#utility.yul\":17529:17548   */\n      mstore\n        /* \"#utility.yul\":17581:17585   */\n      0x20\n        /* \"#utility.yul\":17576:17579   */\n      dup3\n        /* \"#utility.yul\":17572:17586   */\n      add\n        /* \"#utility.yul\":17557:17586   */\n      swap1\n      pop\n        /* \"#utility.yul\":17519:17592   */\n      swap3\n      swap2\n      pop\n      pop\n      jump\t// out\n        /* \"#utility.yul\":17598:17903   */\n    tag_126:\n      0x00\n        /* \"#utility.yul\":17657:17677   */\n      tag_368\n        /* \"#utility.yul\":17675:17676   */\n      dup3\n        /* \"#utility.yul\":17657:17677   */\n      tag_318\n      jump\t// in\n    tag_368:\n        /* \"#utility.yul\":17652:17677   */\n      swap2\n      pop\n        /* \"#utility.yul\":17691:17711   */\n      tag_369\n        /* \"#utility.yul\":17709:17710   */\n      dup4\n        /* \"#utility.yul\":17691:17711   */\n      tag_318\n      jump\t// in\n    tag_369:\n        /* \"#utility.yul\":17686:17711   */\n      swap3\n      pop\n        /* \"#utility.yul\":17845:17846   */\n      dup3\n        /* \"#utility.yul\":17777:17843   */\n      0xffffffffffffffffffffffffffffffffffffffffffffffffffffffffffffffff\n        /* \"#utility.yul\":17773:17847   */\n      sub\n        /* \"#utility.yul\":17770:17771   */\n      dup3\n        /* \"#utility.yul\":17767:17848   */\n      gt\n        /* \"#utility.yul\":17764:17766   */\n      iszero\n      tag_370\n      jumpi\n        /* \"#utility.yul\":17851:17869   */\n      tag_371\n      tag_372\n      jump\t// in\n    tag_371:\n        /* \"#utility.yul\":17764:17766   */\n    tag_370:\n        /* \"#utility.yul\":17895:17896   */\n      dup3\n        /* \"#utility.yul\":17892:17893   */\n      dup3\n        /* \"#utility.yul\":17888:17897   */\n      add\n        /* \"#utility.yul\":17881:17897   */\n      swap1\n      pop\n        /* \"#utility.yul\":17642:17903   */\n      swap3\n      swap2\n      pop\n      pop\n      jump\t// out\n        /* \"#utility.yul\":17909:18100   */\n    tag_124:\n      0x00\n        /* \"#utility.yul\":17969:17989   */\n      tag_374\n        /* \"#utility.yul\":17987:17988   */\n      dup3\n        /* \"#utility.yul\":17969:17989   */\n      tag_318\n      jump\t// in\n    tag_374:\n        /* \"#utility.yul\":17964:17989   */\n      swap2\n      pop\n        /* \"#utility.yul\":18003:18023   */\n      tag_375\n        /* \"#utility.yul\":18021:18022   */\n      dup4\n        /* \"#utility.yul\":18003:18023   */\n      tag_318\n      jump\t// in\n    tag_375:\n        /* \"#utility.yul\":17998:18023   */\n      swap3\n      pop\n        /* \"#utility.yul\":18042:18043   */\n      dup3\n        /* \"#utility.yul\":18039:18040   */\n      dup3\n        /* \"#utility.yul\":18036:18044   */\n      lt\n        /* \"#utility.yul\":18033:18035   */\n      iszero\n      tag_376\n      jumpi\n        /* \"#utility.yul\":18047:18065   */\n      tag_377\n      tag_372\n      jump\t// in\n    tag_377:\n        /* \"#utility.yul\":18033:18035   */\n    tag_376:\n        /* \"#utility.yul\":18092:18093   */\n      dup3\n        /* \"#utility.yul\":18089:18090   */\n      dup3\n        /* \"#utility.yul\":18085:18094   */\n      sub\n        /* \"#utility.yul\":18077:18094   */\n      swap1\n      pop\n        /* \"#utility.yul\":17954:18100   */\n      swap3\n      swap2\n      pop\n      pop\n      jump\t// out\n        /* \"#utility.yul\":18106:18202   */\n    tag_254:\n      0x00\n        /* \"#utility.yul\":18172:18196   */\n      tag_379\n        /* \"#utility.yul\":18190:18195   */\n      dup3\n        /* \"#utility.yul\":18172:18196   */\n      tag_380\n      jump\t// in\n    tag_379:\n        /* \"#utility.yul\":18161:18196   */\n      swap1\n      pop\n        /* \"#utility.yul\":18151:18202   */\n      swap2\n      swap1\n      pop\n      jump\t// out\n        /* \"#utility.yul\":18208:18298   */\n    tag_272:\n      0x00\n        /* \"#utility.yul\":18285:18290   */\n      dup2\n        /* \"#utility.yul\":18278:18291   */\n      iszero\n        /* \"#utility.yul\":18271:18292   */\n      iszero\n        /* \"#utility.yul\":18260:18292   */\n      swap1\n      pop\n        /* \"#utility.yul\":18250:18298   */\n      swap2\n      swap1\n      pop\n      jump\t// out\n        /* \"#utility.yul\":18304:18453   */\n    tag_382:\n      0x00\n        /* \"#utility.yul\":18380:18446   */\n      0xffffffff00000000000000000000000000000000000000000000000000000000\n        /* \"#utility.yul\":18373:18378   */\n      dup3\n        /* \"#utility.yul\":18369:18447   */\n      and\n        /* \"#utility.yul\":18358:18447   */\n      swap1\n      pop\n        /* \"#utility.yul\":18348:18453   */\n      swap2\n      swap1\n      pop\n      jump\t// out\n        /* \"#utility.yul\":18459:18585   */\n    tag_380:\n      0x00\n        /* \"#utility.yul\":18536:18578   */\n      0xffffffffffffffffffffffffffffffffffffffff\n        /* \"#utility.yul\":18529:18534   */\n      dup3\n        /* \"#utility.yul\":18525:18579   */\n      and\n        /* \"#utility.yul\":18514:18579   */\n      swap1\n      pop\n        /* \"#utility.yul\":18504:18585   */\n      swap2\n      swap1\n      pop\n      jump\t// out\n        /* \"#utility.yul\":18591:18668   */\n    tag_318:\n      0x00\n        /* \"#utility.yul\":18657:18662   */\n      dup2\n        /* \"#utility.yul\":18646:18662   */\n      swap1\n      pop\n        /* \"#utility.yul\":18636:18668   */\n      swap2\n      swap1\n      pop\n      jump\t// out\n        /* \"#utility.yul\":18674:18828   */\n    tag_196:\n        /* \"#utility.yul\":18758:18764   */\n      dup3\n        /* \"#utility.yul\":18753:18756   */\n      dup2\n        /* \"#utility.yul\":18748:18751   */\n      dup4\n        /* \"#utility.yul\":18735:18765   */\n      calldatacopy\n        /* \"#utility.yul\":18820:18821   */\n      0x00\n        /* \"#utility.yul\":18811:18817   */\n      dup4\n        /* \"#utility.yul\":18806:18809   */\n      dup4\n        /* \"#utility.yul\":18802:18818   */\n      add\n        /* \"#utility.yul\":18795:18822   */\n      mstore\n        /* \"#utility.yul\":18725:18828   */\n      pop\n      pop\n      pop\n      jump\t// out\n        /* \"#utility.yul\":18834:19141   */\n    tag_280:\n        /* \"#utility.yul\":18902:18903   */\n      0x00\n        /* \"#utility.yul\":18912:19025   */\n    tag_388:\n        /* \"#utility.yul\":18926:18932   */\n      dup4\n        /* \"#utility.yul\":18923:18924   */\n      dup2\n        /* \"#utility.yul\":18920:18933   */\n      lt\n        /* \"#utility.yul\":18912:19025   */\n      iszero\n      tag_390\n      jumpi\n        /* \"#utility.yul\":19011:19012   */\n      dup1\n        /* \"#utility.yul\":19006:19009   */\n      dup3\n        /* \"#utility.yul\":19002:19013   */\n      add\n        /* \"#utility.yul\":18996:19014   */\n      mload\n        /* \"#utility.yul\":18992:18993   */\n      dup2\n        /* \"#utility.yul\":18987:18990   */\n      dup5\n        /* \"#utility.yul\":18983:18994   */\n      add\n        /* \"#utility.yul\":18976:19015   */\n      mstore\n        /* \"#utility.yul\":18948:18950   */\n      0x20\n        /* \"#utility.yul\":18945:18946   */\n      dup2\n        /* \"#utility.yul\":18941:18951   */\n      add\n        /* \"#utility.yul\":18936:18951   */\n      swap1\n      pop\n        /* \"#utility.yul\":18912:19025   */\n      jump(tag_388)\n    tag_390:\n        /* \"#utility.yul\":19043:19049   */\n      dup4\n        /* \"#utility.yul\":19040:19041   */\n      dup2\n        /* \"#utility.yul\":19037:19050   */\n      gt\n        /* \"#utility.yul\":19034:19036   */\n      iszero\n      tag_391\n      jumpi\n        /* \"#utility.yul\":19123:19124   */\n      0x00\n        /* \"#utility.yul\":19114:19120   */\n      dup5\n        /* \"#utility.yul\":19109:19112   */\n      dup5\n        /* \"#utility.yul\":19105:19121   */\n      add\n        /* \"#utility.yul\":19098:19125   */\n      mstore\n        /* \"#utility.yul\":19034:19036   */\n    tag_391:\n        /* \"#utility.yul\":18883:19141   */\n      pop\n      pop\n      pop\n      pop\n      jump\t// out\n        /* \"#utility.yul\":19147:19467   */\n    tag_89:\n      0x00\n        /* \"#utility.yul\":19228:19229   */\n      0x02\n        /* \"#utility.yul\":19222:19226   */\n      dup3\n        /* \"#utility.yul\":19218:19230   */\n      div\n        /* \"#utility.yul\":19208:19230   */\n      swap1\n      pop\n        /* \"#utility.yul\":19275:19276   */\n      0x01\n        /* \"#utility.yul\":19269:19273   */\n      dup3\n        /* \"#utility.yul\":19265:19277   */\n      and\n        /* \"#utility.yul\":19296:19314   */\n      dup1\n        /* \"#utility.yul\":19286:19288   */\n      tag_393\n      jumpi\n        /* \"#utility.yul\":19352:19356   */\n      0x7f\n        /* \"#utility.yul\":19344:19350   */\n      dup3\n        /* \"#utility.yul\":19340:19357   */\n      and\n        /* \"#utility.yul\":19330:19357   */\n      swap2\n      pop\n        /* \"#utility.yul\":19286:19288   */\n    tag_393:\n        /* \"#utility.yul\":19414:19416   */\n      0x20\n        /* \"#utility.yul\":19406:19412   */\n      dup3\n        /* \"#utility.yul\":19403:19417   */\n      lt\n        /* \"#utility.yul\":19383:19401   */\n      dup2\n        /* \"#utility.yul\":19380:19418   */\n      eq\n        /* \"#utility.yul\":19377:19379   */\n      iszero\n      tag_394\n      jumpi\n        /* \"#utility.yul\":19433:19451   */\n      tag_395\n      tag_396\n      jump\t// in\n    tag_395:\n        /* \"#utility.yul\":19377:19379   */\n    tag_394:\n        /* \"#utility.yul\":19198:19467   */\n      pop\n      swap2\n      swap1\n      pop\n      jump\t// out\n        /* \"#utility.yul\":19473:19653   */\n    tag_372:\n        /* \"#utility.yul\":19521:19598   */\n      0x4e487b7100000000000000000000000000000000000000000000000000000000\n        /* \"#utility.yul\":19518:19519   */\n      0x00\n        /* \"#utility.yul\":19511:19599   */\n      mstore\n        /* \"#utility.yul\":19618:19622   */\n      0x11\n        /* \"#utility.yul\":19615:19616   */\n      0x04\n        /* \"#utility.yul\":19608:19623   */\n      mstore\n        /* \"#utility.yul\":19642:19646   */\n      0x24\n        /* \"#utility.yul\":19639:19640   */\n      0x00\n        /* \"#utility.yul\":19632:19647   */\n      revert\n        /* \"#utility.yul\":19659:19839   */\n    tag_396:\n        /* \"#utility.yul\":19707:19784   */\n      0x4e487b7100000000000000000000000000000000000000000000000000000000\n        /* \"#utility.yul\":19704:19705   */\n      0x00\n        /* \"#utility.yul\":19697:19785   */\n      mstore\n        /* \"#utility.yul\":19804:19808   */\n      0x22\n        /* \"#utility.yul\":19801:19802   */\n      0x04\n        /* \"#utility.yul\":19794:19809   */\n      mstore\n        /* \"#utility.yul\":19828:19832   */\n      0x24\n        /* \"#utility.yul\":19825:19826   */\n      0x00\n        /* \"#utility.yul\":19818:19833   */\n      revert\n        /* \"#utility.yul\":19845:20025   */\n    tag_357:\n        /* \"#utility.yul\":19893:19970   */\n      0x4e487b7100000000000000000000000000000000000000000000000000000000\n        /* \"#utility.yul\":19890:19891   */\n      0x00\n        /* \"#utility.yul\":19883:19971   */\n      mstore\n        /* \"#utility.yul\":19990:19994   */\n      0x41\n        /* \"#utility.yul\":19987:19988   */\n      0x04\n        /* \"#utility.yul\":19980:19995   */\n      mstore\n        /* \"#utility.yul\":20014:20018   */\n      0x24\n        /* \"#utility.yul\":20011:20012   */\n      0x00\n        /* \"#utility.yul\":20004:20019   */\n      revert\n        /* \"#utility.yul\":20031:20133   */\n    tag_282:\n      0x00\n        /* \"#utility.yul\":20123:20125   */\n      0x1f\n        /* \"#utility.yul\":20119:20126   */\n      not\n        /* \"#utility.yul\":20114:20116   */\n      0x1f\n        /* \"#utility.yul\":20107:20112   */\n      dup4\n        /* \"#utility.yul\":20103:20117   */\n      add\n        /* \"#utility.yul\":20099:20127   */\n      and\n        /* \"#utility.yul\":20089:20127   */\n      swap1\n      pop\n        /* \"#utility.yul\":20079:20133   */\n      swap2\n      swap1\n      pop\n      jump\t// out\n        /* \"#utility.yul\":20139:20261   */\n    tag_200:\n        /* \"#utility.yul\":20212:20236   */\n      tag_402\n        /* \"#utility.yul\":20230:20235   */\n      dup2\n        /* \"#utility.yul\":20212:20236   */\n      tag_254\n      jump\t// in\n    tag_402:\n        /* \"#utility.yul\":20205:20210   */\n      dup2\n        /* \"#utility.yul\":20202:20237   */\n      eq\n        /* \"#utility.yul\":20192:20194   */\n      tag_403\n      jumpi\n        /* \"#utility.yul\":20251:20252   */\n      0x00\n        /* \"#utility.yul\":20248:20249   */\n      dup1\n        /* \"#utility.yul\":20241:20253   */\n      revert\n        /* \"#utility.yul\":20192:20194   */\n    tag_403:\n        /* \"#utility.yul\":20182:20261   */\n      pop\n      jump\t// out\n        /* \"#utility.yul\":20267:20383   */\n    tag_204:\n        /* \"#utility.yul\":20337:20358   */\n      tag_405\n        /* \"#utility.yul\":20352:20357   */\n      dup2\n        /* \"#utility.yul\":20337:20358   */\n      tag_272\n      jump\t// in\n    tag_405:\n        /* \"#utility.yul\":20330:20335   */\n      dup2\n        /* \"#utility.yul\":20327:20359   */\n      eq\n        /* \"#utility.yul\":20317:20319   */\n      tag_406\n      jumpi\n        /* \"#utility.yul\":20373:20374   */\n      0x00\n        /* \"#utility.yul\":20370:20371   */\n      dup1\n        /* \"#utility.yul\":20363:20375   */\n      revert\n        /* \"#utility.yul\":20317:20319   */\n    tag_406:\n        /* \"#utility.yul\":20307:20383   */\n      pop\n      jump\t// out\n        /* \"#utility.yul\":20389:20509   */\n    tag_208:\n        /* \"#utility.yul\":20461:20484   */\n      tag_408\n        /* \"#utility.yul\":20478:20483   */\n      dup2\n        /* \"#utility.yul\":20461:20484   */\n      tag_382\n      jump\t// in\n    tag_408:\n        /* \"#utility.yul\":20454:20459   */\n      dup2\n        /* \"#utility.yul\":20451:20485   */\n      eq\n        /* \"#utility.yul\":20441:20443   */\n      tag_409\n      jumpi\n        /* \"#utility.yul\":20499:20500   */\n      0x00\n        /* \"#utility.yul\":20496:20497   */\n      dup1\n        /* \"#utility.yul\":20489:20501   */\n      revert\n        /* \"#utility.yul\":20441:20443   */\n    tag_409:\n        /* \"#utility.yul\":20431:20509   */\n      pop\n      jump\t// out\n        /* \"#utility.yul\":20515:20637   */\n    tag_216:\n        /* \"#utility.yul\":20588:20612   */\n      tag_411\n        /* \"#utility.yul\":20606:20611   */\n      dup2\n        /* \"#utility.yul\":20588:20612   */\n      tag_318\n      jump\t// in\n    tag_411:\n        /* \"#utility.yul\":20581:20586   */\n      dup2\n        /* \"#utility.yul\":20578:20613   */\n      eq\n        /* \"#utility.yul\":20568:20570   */\n      tag_412\n      jumpi\n        /* \"#utility.yul\":20627:20628   */\n      0x00\n        /* \"#utility.yul\":20624:20625   */\n      dup1\n        /* \"#utility.yul\":20617:20629   */\n      revert\n        /* \"#utility.yul\":20568:20570   */\n    tag_412:\n        /* \"#utility.yul\":20558:20637   */\n      pop\n      jump\t// out\n\n    auxdata: 0xa26469706673582212205fced1f8a27cef1900951e811f19f40d3c360aec85239ca5c3974145b77794eb64736f6c63430008000033\n}\n",
				"bytecode": {
					"linkReferences": {},
					"object": "60806040523480156200001157600080fd5b50604051620022ef380380620022ef833981810160405281019062000037919062000193565b81600090805190602001906200004f92919062000071565b5080600190805190602001906200006892919062000071565b50505062000337565b8280546200007f90620002a3565b90600052602060002090601f016020900481019282620000a35760008555620000ef565b82601f10620000be57805160ff1916838001178555620000ef565b82800160010185558215620000ef579182015b82811115620000ee578251825591602001919060010190620000d1565b5b509050620000fe919062000102565b5090565b5b808211156200011d57600081600090555060010162000103565b5090565b60006200013862000132846200023a565b62000206565b9050828152602081018484840111156200015157600080fd5b6200015e8482856200026d565b509392505050565b600082601f8301126200017857600080fd5b81516200018a84826020860162000121565b91505092915050565b60008060408385031215620001a757600080fd5b600083015167ffffffffffffffff811115620001c257600080fd5b620001d08582860162000166565b925050602083015167ffffffffffffffff811115620001ee57600080fd5b620001fc8582860162000166565b9150509250929050565b6000604051905081810181811067ffffffffffffffff8211171562000230576200022f62000308565b5b8060405250919050565b600067ffffffffffffffff82111562000258576200025762000308565b5b601f19601f8301169050602081019050919050565b60005b838110156200028d57808201518184015260208101905062000270565b838111156200029d576000848401525b50505050565b60006002820490506001821680620002bc57607f821691505b60208210811415620002d357620002d2620002d9565b5b50919050565b7f4e487b7100000000000000000000000000000000000000000000000000000000600052602260045260246000fd5b7f4e487b7100000000000000000000000000000000000000000000000000000000600052604160045260246000fd5b611fa880620003476000396000f3fe6080604052600436106100c25760003560e01c806370a082311161007f578063a5b1265311610059578063a5b1265314610272578063c87b56dd1461029d578063d85d3d27146102da578063e985e9c514610303576100c2565b806370a08231146101e157806395d89b411461021e578063a22cb46514610249576100c2565b806301ffc9a7146100c757806306fdde0314610104578063081812fc1461012f578063095ea7b31461016c57806323b872dd146101885780636352211e146101a4575b600080fd5b3480156100d357600080fd5b506100ee60048036038101906100e991906114c7565b610340565b6040516100fb9190611a98565b60405180910390f35b34801561011057600080fd5b50610119610372565b6040516101269190611ab3565b60405180910390f35b34801561013b57600080fd5b5061015660048036038101906101519190611531565b610404565b6040516101639190611a5b565b60405180910390f35b6101866004803603810190610181919061148b565b610489565b005b6101a2600480360381019061019d9190611400565b610661565b005b3480156101b057600080fd5b506101cb60048036038101906101c69190611531565b610961565b6040516101d89190611a5b565b60405180910390f35b3480156101ed57600080fd5b506102086004803603810190610203919061139b565b610a13565b6040516102159190611c35565b60405180910390f35b34801561022a57600080fd5b50610233610acb565b6040516102409190611ab3565b60405180910390f35b34801561025557600080fd5b50610270600480360381019061026b919061144f565b610b5d565b005b34801561027e57600080fd5b50610287610cc9565b6040516102949190611a76565b60405180910390f35b3480156102a957600080fd5b506102c460048036038101906102bf9190611531565b610d5e565b6040516102d19190611ab3565b60405180910390f35b3480156102e657600080fd5b5061030160048036038101906102fc91906114f0565b610ea6565b005b34801561030f57600080fd5b5061032a600480360381019061032591906113c4565b61105e565b6040516103379190611a98565b60405180910390f35b60006380ac58cd60e01b827bffffffffffffffffffffffffffffffffffffffffffffffffffffffff1916149050919050565b60606000805461038190611e46565b80601f01602080910402602001604051908101604052809291908181526020018280546103ad90611e46565b80156103fa5780601f106103cf576101008083540402835291602001916103fa565b820191906000526020600020905b8154815290600101906020018083116103dd57829003601f168201915b5050505050905090565b600061040f826110f2565b61044e576040517f08c379a000000000000000000000000000000000000000000000000000000000815260040161044590611bb5565b60405180910390fd5b6007600083815260200190815260200160002060009054906101000a900473ffffffffffffffffffffffffffffffffffffffff169050919050565b60006005600083815260200190815260200160002060009054906101000a900473ffffffffffffffffffffffffffffffffffffffff1690508073ffffffffffffffffffffffffffffffffffffffff168373ffffffffffffffffffffffffffffffffffffffff161415610530576040517f08c379a000000000000000000000000000000000000000000000000000000000815260040161052790611bd5565b60405180910390fd5b8073ffffffffffffffffffffffffffffffffffffffff163373ffffffffffffffffffffffffffffffffffffffff161480610570575061056f813361105e565b5b6105af576040517f08c379a00000000000000000000000000000000000000000000000000000000081526004016105a690611af5565b60405180910390fd5b826007600084815260200190815260200160002060006101000a81548173ffffffffffffffffffffffffffffffffffffffff021916908373ffffffffffffffffffffffffffffffffffffffff160217905550818373ffffffffffffffffffffffffffffffffffffffff163373ffffffffffffffffffffffffffffffffffffffff167f8c5be1e5ebec7d5bd14f71427d1e84f3dd0314c0f7b2291e5b200ac8c7c3b92560405160405180910390a4505050565b61066b338261115e565b6106aa576040517f08c379a00000000000000000000000000000000000000000000000000000000081526004016106a190611c15565b60405180910390fd5b8273ffffffffffffffffffffffffffffffffffffffff166106ca82610961565b73ffffffffffffffffffffffffffffffffffffffff1614610720576040517f08c379a000000000000000000000000000000000000000000000000000000000815260040161071790611ad5565b60405180910390fd5b600073ffffffffffffffffffffffffffffffffffffffff168273ffffffffffffffffffffffffffffffffffffffff161415610790576040517f08c379a000000000000000000000000000000000000000000000000000000000815260040161078790611b15565b60405180910390fd5b61079b600082610489565b6001600460008573ffffffffffffffffffffffffffffffffffffffff1673ffffffffffffffffffffffffffffffffffffffff16815260200190815260200160002060008282546107eb9190611d5c565b925050819055506001600460008473ffffffffffffffffffffffffffffffffffffffff1673ffffffffffffffffffffffffffffffffffffffff16815260200190815260200160002060008282546108429190611d06565b92505081905550816005600083815260200190815260200160002060006101000a81548173ffffffffffffffffffffffffffffffffffffffff021916908373ffffffffffffffffffffffffffffffffffffffff160217905550600960008373ffffffffffffffffffffffffffffffffffffffff1673ffffffffffffffffffffffffffffffffffffffff168152602001908152602001600020819080600181540180825580915050600190039060005260206000200160009091909190915055808273ffffffffffffffffffffffffffffffffffffffff168473ffffffffffffffffffffffffffffffffffffffff167fddf252ad1be2c89b69c2b068fc378daa952ba7f163c4a11628f55a4df523b3ef60405160405180910390a4505050565b6000806005600084815260200190815260200160002060009054906101000a900473ffffffffffffffffffffffffffffffffffffffff169050600073ffffffffffffffffffffffffffffffffffffffff168173ffffffffffffffffffffffffffffffffffffffff161415610a0a576040517f08c379a0000000000000000000000000000000000000000000000000000000008152600401610a0190611b95565b60405180910390fd5b80915050919050565b60008073ffffffffffffffffffffffffffffffffffffffff168273ffffffffffffffffffffffffffffffffffffffff161415610a84576040517f08c379a0000000000000000000000000000000000000000000000000000000008152600401610a7b90611b75565b60405180910390fd5b600460008373ffffffffffffffffffffffffffffffffffffffff1673ffffffffffffffffffffffffffffffffffffffff168152602001908152602001600020549050919050565b606060018054610ada90611e46565b80601f0160208091040260200160405190810160405280929190818152602001828054610b0690611e46565b8015610b535780601f10610b2857610100808354040283529160200191610b53565b820191906000526020600020905b815481529060010190602001808311610b3657829003601f168201915b5050505050905090565b8173ffffffffffffffffffffffffffffffffffffffff163373ffffffffffffffffffffffffffffffffffffffff161415610bcc576040517f08c379a0000000000000000000000000000000000000000000000000000000008152600401610bc390611b35565b60405180910390fd5b80600660003373ffffffffffffffffffffffffffffffffffffffff1673ffffffffffffffffffffffffffffffffffffffff16815260200190815260200160002060008473ffffffffffffffffffffffffffffffffffffffff1673ffffffffffffffffffffffffffffffffffffffff16815260200190815260200160002060006101000a81548160ff0219169083151502179055508173ffffffffffffffffffffffffffffffffffffffff163373ffffffffffffffffffffffffffffffffffffffff167f17307eab39ab6107e8899845ad3d59bd9653f200f220920489ca2b5937696c3183604051610cbd9190611a98565b60405180910390a35050565b6060600960003373ffffffffffffffffffffffffffffffffffffffff1673ffffffffffffffffffffffffffffffffffffffff168152602001908152602001600020805480602002602001604051908101604052809291908181526020018280548015610d5457602002820191906000526020600020905b815481526020019060010190808311610d40575b5050505050905090565b6060600073ffffffffffffffffffffffffffffffffffffffff166005600084815260200190815260200160002060009054906101000a900473ffffffffffffffffffffffffffffffffffffffff1673ffffffffffffffffffffffffffffffffffffffff161415610e03576040517f08c379a0000000000000000000000000000000000000000000000000000000008152600401610dfa90611bf5565b60405180910390fd5b600860008381526020019081526020016000208054610e2190611e46565b80601f0160208091040260200160405190810160405280929190818152602001828054610e4d90611e46565b8015610e9a5780601f10610e6f57610100808354040283529160200191610e9a565b820191906000526020600020905b815481529060010190602001808311610e7d57829003601f168201915b50505050509050919050565b600160026000828254610eb99190611d06565b925050819055506001600460003373ffffffffffffffffffffffffffffffffffffffff1673ffffffffffffffffffffffffffffffffffffffff1681526020019081526020016000206000828254610f109190611d06565b925050819055503360056000600254815260200190815260200160002060006101000a81548173ffffffffffffffffffffffffffffffffffffffff021916908373ffffffffffffffffffffffffffffffffffffffff160217905550806008600060025481526020019081526020016000209080519060200190610f9492919061123c565b50600960003373ffffffffffffffffffffffffffffffffffffffff1673ffffffffffffffffffffffffffffffffffffffff16815260200190815260200160002060025490806001815401808255809150506001900390600052602060002001600090919091909150556002543373ffffffffffffffffffffffffffffffffffffffff16600073ffffffffffffffffffffffffffffffffffffffff167fddf252ad1be2c89b69c2b068fc378daa952ba7f163c4a11628f55a4df523b3ef60405160405180910390a450565b6000600660008473ffffffffffffffffffffffffffffffffffffffff1673ffffffffffffffffffffffffffffffffffffffff16815260200190815260200160002060008373ffffffffffffffffffffffffffffffffffffffff1673ffffffffffffffffffffffffffffffffffffffff16815260200190815260200160002060009054906101000a900460ff16905092915050565b60008073ffffffffffffffffffffffffffffffffffffffff166005600084815260200190815260200160002060009054906101000a900473ffffffffffffffffffffffffffffffffffffffff1673ffffffffffffffffffffffffffffffffffffffff1614159050919050565b6000611169826110f2565b6111a8576040517f08c379a000000000000000000000000000000000000000000000000000000000815260040161119f90611b55565b60405180910390fd5b60006111b383610961565b90508073ffffffffffffffffffffffffffffffffffffffff168473ffffffffffffffffffffffffffffffffffffffff16148061122257508373ffffffffffffffffffffffffffffffffffffffff1661120a84610404565b73ffffffffffffffffffffffffffffffffffffffff16145b806112335750611232818561105e565b5b91505092915050565b82805461124890611e46565b90600052602060002090601f01602090048101928261126a57600085556112b1565b82601f1061128357805160ff19168380011785556112b1565b828001600101855582156112b1579182015b828111156112b0578251825591602001919060010190611295565b5b5090506112be91906112c2565b5090565b5b808211156112db5760008160009055506001016112c3565b5090565b60006112f26112ed84611c81565b611c50565b90508281526020810184848401111561130a57600080fd5b611315848285611e04565b509392505050565b60008135905061132c81611f16565b92915050565b60008135905061134181611f2d565b92915050565b60008135905061135681611f44565b92915050565b600082601f83011261136d57600080fd5b813561137d8482602086016112df565b91505092915050565b60008135905061139581611f5b565b92915050565b6000602082840312156113ad57600080fd5b60006113bb8482850161131d565b91505092915050565b600080604083850312156113d757600080fd5b60006113e58582860161131d565b92505060206113f68582860161131d565b9150509250929050565b60008060006060848603121561141557600080fd5b60006114238682870161131d565b93505060206114348682870161131d565b925050604061144586828701611386565b9150509250925092565b6000806040838503121561146257600080fd5b60006114708582860161131d565b925050602061148185828601611332565b9150509250929050565b6000806040838503121561149e57600080fd5b60006114ac8582860161131d565b92505060206114bd85828601611386565b9150509250929050565b6000602082840312156114d957600080fd5b60006114e784828501611347565b91505092915050565b60006020828403121561150257600080fd5b600082013567ffffffffffffffff81111561151c57600080fd5b6115288482850161135c565b91505092915050565b60006020828403121561154357600080fd5b600061155184828501611386565b91505092915050565b60006115668383611a3d565b60208301905092915050565b61157b81611d90565b82525050565b600061158c82611cc1565b6115968185611ce4565b93506115a183611cb1565b8060005b838110156115d25781516115b9888261155a565b97506115c483611cd7565b9250506001810190506115a5565b5085935050505092915050565b6115e881611da2565b82525050565b60006115f982611ccc565b6116038185611cf5565b9350611613818560208601611e13565b61161c81611f05565b840191505092915050565b6000611634602583611cf5565b91507f4552433732313a207472616e736665722066726f6d20696e636f72726563742060008301527f6f776e65720000000000000000000000000000000000000000000000000000006020830152604082019050919050565b600061169a603c83611cf5565b91507f4552433732313a20617070726f76652063616c6c6572206973206e656974686560008301527f72206f776e6572206e6f7220617070726f76656420666f7220616c6c000000006020830152604082019050919050565b6000611700602483611cf5565b91507f4552433732313a207472616e7366657220746f20746865207a65726f2061646460008301527f72657373000000000000000000000000000000000000000000000000000000006020830152604082019050919050565b6000611766601983611cf5565b91507f4552433732313a20617070726f766520746f2063616c6c6572000000000000006000830152602082019050919050565b60006117a6602c83611cf5565b91507f4552433732313a206f70657261746f7220717565727920666f72206e6f6e657860008301527f697374656e7420746f6b656e00000000000000000000000000000000000000006020830152604082019050919050565b600061180c602a83611cf5565b91507f4552433732313a2062616c616e636520717565727920666f7220746865207a6560008301527f726f2061646472657373000000000000000000000000000000000000000000006020830152604082019050919050565b6000611872602983611cf5565b91507f4552433732313a206f776e657220717565727920666f72206e6f6e657869737460008301527f656e7420746f6b656e00000000000000000000000000000000000000000000006020830152604082019050919050565b60006118d8602c83611cf5565b91507f4552433732313a20617070726f76656420717565727920666f72206e6f6e657860008301527f697374656e7420746f6b656e00000000000000000000000000000000000000006020830152604082019050919050565b600061193e602183611cf5565b91507f4552433732313a20617070726f76616c20746f2063757272656e74206f776e6560008301527f72000000000000000000000000000000000000000000000000000000000000006020830152604082019050919050565b60006119a4601683611cf5565b91507f546f6b656e496420646f6573206e6f74206578697374000000000000000000006000830152602082019050919050565b60006119e4603183611cf5565b91507f4552433732313a207472616e736665722063616c6c6572206973206e6f74206f60008301527f776e6572206e6f7220617070726f7665640000000000000000000000000000006020830152604082019050919050565b611a4681611dfa565b82525050565b611a5581611dfa565b82525050565b6000602082019050611a706000830184611572565b92915050565b60006020820190508181036000830152611a908184611581565b905092915050565b6000602082019050611aad60008301846115df565b92915050565b60006020820190508181036000830152611acd81846115ee565b905092915050565b60006020820190508181036000830152611aee81611627565b9050919050565b60006020820190508181036000830152611b0e8161168d565b9050919050565b60006020820190508181036000830152611b2e816116f3565b9050919050565b60006020820190508181036000830152611b4e81611759565b9050919050565b60006020820190508181036000830152611b6e81611799565b9050919050565b60006020820190508181036000830152611b8e816117ff565b9050919050565b60006020820190508181036000830152611bae81611865565b9050919050565b60006020820190508181036000830152611bce816118cb565b9050919050565b60006020820190508181036000830152611bee81611931565b9050919050565b60006020820190508181036000830152611c0e81611997565b9050919050565b60006020820190508181036000830152611c2e816119d7565b9050919050565b6000602082019050611c4a6000830184611a4c565b92915050565b6000604051905081810181811067ffffffffffffffff82111715611c7757611c76611ed6565b5b8060405250919050565b600067ffffffffffffffff821115611c9c57611c9b611ed6565b5b601f19601f8301169050602081019050919050565b6000819050602082019050919050565b600081519050919050565b600081519050919050565b6000602082019050919050565b600082825260208201905092915050565b600082825260208201905092915050565b6000611d1182611dfa565b9150611d1c83611dfa565b9250827fffffffffffffffffffffffffffffffffffffffffffffffffffffffffffffffff03821115611d5157611d50611e78565b5b828201905092915050565b6000611d6782611dfa565b9150611d7283611dfa565b925082821015611d8557611d84611e78565b5b828203905092915050565b6000611d9b82611dda565b9050919050565b60008115159050919050565b60007fffffffff0000000000000000000000000000000000000000000000000000000082169050919050565b600073ffffffffffffffffffffffffffffffffffffffff82169050919050565b6000819050919050565b82818337600083830152505050565b60005b83811015611e31578082015181840152602081019050611e16565b83811115611e40576000848401525b50505050565b60006002820490506001821680611e5e57607f821691505b60208210811415611e7257611e71611ea7565b5b50919050565b7f4e487b7100000000000000000000000000000000000000000000000000000000600052601160045260246000fd5b7f4e487b7100000000000000000000000000000000000000000000000000000000600052602260045260246000fd5b7f4e487b7100000000000000000000000000000000000000000000000000000000600052604160045260246000fd5b6000601f19601f8301169050919050565b611f1f81611d90565b8114611f2a57600080fd5b50565b611f3681611da2565b8114611f4157600080fd5b50565b611f4d81611dae565b8114611f5857600080fd5b50565b611f6481611dfa565b8114611f6f57600080fd5b5056fea26469706673582212205fced1f8a27cef1900951e811f19f40d3c360aec85239ca5c3974145b77794eb64736f6c63430008000033",
					"opcodes": "PUSH1 0x80 PUSH1 0x40 MSTORE CALLVALUE DUP1 ISZERO PUSH3 0x11 JUMPI PUSH1 0x0 DUP1 REVERT JUMPDEST POP PUSH1 0x40 MLOAD PUSH3 0x22EF CODESIZE SUB DUP1 PUSH3 0x22EF DUP4 CODECOPY DUP2 DUP2 ADD PUSH1 0x40 MSTORE DUP2 ADD SWAP1 PUSH3 0x37 SWAP2 SWAP1 PUSH3 0x193 JUMP JUMPDEST DUP2 PUSH1 0x0 SWAP1 DUP1 MLOAD SWAP1 PUSH1 0x20 ADD SWAP1 PUSH3 0x4F SWAP3 SWAP2 SWAP1 PUSH3 0x71 JUMP JUMPDEST POP DUP1 PUSH1 0x1 SWAP1 DUP1 MLOAD SWAP1 PUSH1 0x20 ADD SWAP1 PUSH3 0x68 SWAP3 SWAP2 SWAP1 PUSH3 0x71 JUMP JUMPDEST POP POP POP PUSH3 0x337 JUMP JUMPDEST DUP3 DUP1 SLOAD PUSH3 0x7F SWAP1 PUSH3 0x2A3 JUMP JUMPDEST SWAP1 PUSH1 0x0 MSTORE PUSH1 0x20 PUSH1 0x0 KECCAK256 SWAP1 PUSH1 0x1F ADD PUSH1 0x20 SWAP1 DIV DUP2 ADD SWAP3 DUP3 PUSH3 0xA3 JUMPI PUSH1 0x0 DUP6 SSTORE PUSH3 0xEF JUMP JUMPDEST DUP3 PUSH1 0x1F LT PUSH3 0xBE JUMPI DUP1 MLOAD PUSH1 0xFF NOT AND DUP4 DUP1 ADD OR DUP6 SSTORE PUSH3 0xEF JUMP JUMPDEST DUP3 DUP1 ADD PUSH1 0x1 ADD DUP6 SSTORE DUP3 ISZERO PUSH3 0xEF JUMPI SWAP2 DUP3 ADD JUMPDEST DUP3 DUP2 GT ISZERO PUSH3 0xEE JUMPI DUP3 MLOAD DUP3 SSTORE SWAP2 PUSH1 0x20 ADD SWAP2 SWAP1 PUSH1 0x1 ADD SWAP1 PUSH3 0xD1 JUMP JUMPDEST JUMPDEST POP SWAP1 POP PUSH3 0xFE SWAP2 SWAP1 PUSH3 0x102 JUMP JUMPDEST POP SWAP1 JUMP JUMPDEST JUMPDEST DUP1 DUP3 GT ISZERO PUSH3 0x11D JUMPI PUSH1 0x0 DUP2 PUSH1 0x0 SWAP1 SSTORE POP PUSH1 0x1 ADD PUSH3 0x103 JUMP JUMPDEST POP SWAP1 JUMP JUMPDEST PUSH1 0x0 PUSH3 0x138 PUSH3 0x132 DUP5 PUSH3 0x23A JUMP JUMPDEST PUSH3 0x206 JUMP JUMPDEST SWAP1 POP DUP3 DUP2 MSTORE PUSH1 0x20 DUP2 ADD DUP5 DUP5 DUP5 ADD GT ISZERO PUSH3 0x151 JUMPI PUSH1 0x0 DUP1 REVERT JUMPDEST PUSH3 0x15E DUP5 DUP3 DUP6 PUSH3 0x26D JUMP JUMPDEST POP SWAP4 SWAP3 POP POP POP JUMP JUMPDEST PUSH1 0x0 DUP3 PUSH1 0x1F DUP4 ADD SLT PUSH3 0x178 JUMPI PUSH1 0x0 DUP1 REVERT JUMPDEST DUP2 MLOAD PUSH3 0x18A DUP5 DUP3 PUSH1 0x20 DUP7 ADD PUSH3 0x121 JUMP JUMPDEST SWAP2 POP POP SWAP3 SWAP2 POP POP JUMP JUMPDEST PUSH1 0x0 DUP1 PUSH1 0x40 DUP4 DUP6 SUB SLT ISZERO PUSH3 0x1A7 JUMPI PUSH1 0x0 DUP1 REVERT JUMPDEST PUSH1 0x0 DUP4 ADD MLOAD PUSH8 0xFFFFFFFFFFFFFFFF DUP2 GT ISZERO PUSH3 0x1C2 JUMPI PUSH1 0x0 DUP1 REVERT JUMPDEST PUSH3 0x1D0 DUP6 DUP3 DUP7 ADD PUSH3 0x166 JUMP JUMPDEST SWAP3 POP POP PUSH1 0x20 DUP4 ADD MLOAD PUSH8 0xFFFFFFFFFFFFFFFF DUP2 GT ISZERO PUSH3 0x1EE JUMPI PUSH1 0x0 DUP1 REVERT JUMPDEST PUSH3 0x1FC DUP6 DUP3 DUP7 ADD PUSH3 0x166 JUMP JUMPDEST SWAP2 POP POP SWAP3 POP SWAP3 SWAP1 POP JUMP JUMPDEST PUSH1 0x0 PUSH1 0x40 MLOAD SWAP1 POP DUP2 DUP2 ADD DUP2 DUP2 LT PUSH8 0xFFFFFFFFFFFFFFFF DUP3 GT OR ISZERO PUSH3 0x230 JUMPI PUSH3 0x22F PUSH3 0x308 JUMP JUMPDEST JUMPDEST DUP1 PUSH1 0x40 MSTORE POP SWAP2 SWAP1 POP JUMP JUMPDEST PUSH1 0x0 PUSH8 0xFFFFFFFFFFFFFFFF DUP3 GT ISZERO PUSH3 0x258 JUMPI PUSH3 0x257 PUSH3 0x308 JUMP JUMPDEST JUMPDEST PUSH1 0x1F NOT PUSH1 0x1F DUP4 ADD AND SWAP1 POP PUSH1 0x20 DUP2 ADD SWAP1 POP SWAP2 SWAP1 POP JUMP JUMPDEST PUSH1 0x0 JUMPDEST DUP4 DUP2 LT ISZERO PUSH3 0x28D JUMPI DUP1 DUP3 ADD MLOAD DUP2 DUP5 ADD MSTORE PUSH1 0x20 DUP2 ADD SWAP1 POP PUSH3 0x270 JUMP JUMPDEST DUP4 DUP2 GT ISZERO PUSH3 0x29D JUMPI PUSH1 0x0 DUP5 DUP5 ADD MSTORE JUMPDEST POP POP POP POP JUMP JUMPDEST PUSH1 0x0 PUSH1 0x2 DUP3 DIV SWAP1 POP PUSH1 0x1 DUP3 AND DUP1 PUSH3 0x2BC JUMPI PUSH1 0x7F DUP3 AND SWAP2 POP JUMPDEST PUSH1 0x20 DUP3 LT DUP2 EQ ISZERO PUSH3 0x2D3 JUMPI PUSH3 0x2D2 PUSH3 0x2D9 JUMP JUMPDEST JUMPDEST POP SWAP2 SWAP1 POP JUMP JUMPDEST PUSH32 0x4E487B7100000000000000000000000000000000000000000000000000000000 PUSH1 0x0 MSTORE PUSH1 0x22 PUSH1 0x4 MSTORE PUSH1 0x24 PUSH1 0x0 REVERT JUMPDEST PUSH32 0x4E487B7100000000000000000000000000000000000000000000000000000000 PUSH1 0x0 MSTORE PUSH1 0x41 PUSH1 0x4 MSTORE PUSH1 0x24 PUSH1 0x0 REVERT JUMPDEST PUSH2 0x1FA8 DUP1 PUSH3 0x347 PUSH1 0x0 CODECOPY PUSH1 0x0 RETURN INVALID PUSH1 0x80 PUSH1 0x40 MSTORE PUSH1 0x4 CALLDATASIZE LT PUSH2 0xC2 JUMPI PUSH1 0x0 CALLDATALOAD PUSH1 0xE0 SHR DUP1 PUSH4 0x70A08231 GT PUSH2 0x7F JUMPI DUP1 PUSH4 0xA5B12653 GT PUSH2 0x59 JUMPI DUP1 PUSH4 0xA5B12653 EQ PUSH2 0x272 JUMPI DUP1 PUSH4 0xC87B56DD EQ PUSH2 0x29D JUMPI DUP1 PUSH4 0xD85D3D27 EQ PUSH2 0x2DA JUMPI DUP1 PUSH4 0xE985E9C5 EQ PUSH2 0x303 JUMPI PUSH2 0xC2 JUMP JUMPDEST DUP1 PUSH4 0x70A08231 EQ PUSH2 0x1E1 JUMPI DUP1 PUSH4 0x95D89B41 EQ PUSH2 0x21E JUMPI DUP1 PUSH4 0xA22CB465 EQ PUSH2 0x249 JUMPI PUSH2 0xC2 JUMP JUMPDEST DUP1 PUSH4 0x1FFC9A7 EQ PUSH2 0xC7 JUMPI DUP1 PUSH4 0x6FDDE03 EQ PUSH2 0x104 JUMPI DUP1 PUSH4 0x81812FC EQ PUSH2 0x12F JUMPI DUP1 PUSH4 0x95EA7B3 EQ PUSH2 0x16C JUMPI DUP1 PUSH4 0x23B872DD EQ PUSH2 0x188 JUMPI DUP1 PUSH4 0x6352211E EQ PUSH2 0x1A4 JUMPI JUMPDEST PUSH1 0x0 DUP1 REVERT JUMPDEST CALLVALUE DUP1 ISZERO PUSH2 0xD3 JUMPI PUSH1 0x0 DUP1 REVERT JUMPDEST POP PUSH2 0xEE PUSH1 0x4 DUP1 CALLDATASIZE SUB DUP2 ADD SWAP1 PUSH2 0xE9 SWAP2 SWAP1 PUSH2 0x14C7 JUMP JUMPDEST PUSH2 0x340 JUMP JUMPDEST PUSH1 0x40 MLOAD PUSH2 0xFB SWAP2 SWAP1 PUSH2 0x1A98 JUMP JUMPDEST PUSH1 0x40 MLOAD DUP1 SWAP2 SUB SWAP1 RETURN JUMPDEST CALLVALUE DUP1 ISZERO PUSH2 0x110 JUMPI PUSH1 0x0 DUP1 REVERT JUMPDEST POP PUSH2 0x119 PUSH2 0x372 JUMP JUMPDEST PUSH1 0x40 MLOAD PUSH2 0x126 SWAP2 SWAP1 PUSH2 0x1AB3 JUMP JUMPDEST PUSH1 0x40 MLOAD DUP1 SWAP2 SUB SWAP1 RETURN JUMPDEST CALLVALUE DUP1 ISZERO PUSH2 0x13B JUMPI PUSH1 0x0 DUP1 REVERT JUMPDEST POP PUSH2 0x156 PUSH1 0x4 DUP1 CALLDATASIZE SUB DUP2 ADD SWAP1 PUSH2 0x151 SWAP2 SWAP1 PUSH2 0x1531 JUMP JUMPDEST PUSH2 0x404 JUMP JUMPDEST PUSH1 0x40 MLOAD PUSH2 0x163 SWAP2 SWAP1 PUSH2 0x1A5B JUMP JUMPDEST PUSH1 0x40 MLOAD DUP1 SWAP2 SUB SWAP1 RETURN JUMPDEST PUSH2 0x186 PUSH1 0x4 DUP1 CALLDATASIZE SUB DUP2 ADD SWAP1 PUSH2 0x181 SWAP2 SWAP1 PUSH2 0x148B JUMP JUMPDEST PUSH2 0x489 JUMP JUMPDEST STOP JUMPDEST PUSH2 0x1A2 PUSH1 0x4 DUP1 CALLDATASIZE SUB DUP2 ADD SWAP1 PUSH2 0x19D SWAP2 SWAP1 PUSH2 0x1400 JUMP JUMPDEST PUSH2 0x661 JUMP JUMPDEST STOP JUMPDEST CALLVALUE DUP1 ISZERO PUSH2 0x1B0 JUMPI PUSH1 0x0 DUP1 REVERT JUMPDEST POP PUSH2 0x1CB PUSH1 0x4 DUP1 CALLDATASIZE SUB DUP2 ADD SWAP1 PUSH2 0x1C6 SWAP2 SWAP1 PUSH2 0x1531 JUMP JUMPDEST PUSH2 0x961 JUMP JUMPDEST PUSH1 0x40 MLOAD PUSH2 0x1D8 SWAP2 SWAP1 PUSH2 0x1A5B JUMP JUMPDEST PUSH1 0x40 MLOAD DUP1 SWAP2 SUB SWAP1 RETURN JUMPDEST CALLVALUE DUP1 ISZERO PUSH2 0x1ED JUMPI PUSH1 0x0 DUP1 REVERT JUMPDEST POP PUSH2 0x208 PUSH1 0x4 DUP1 CALLDATASIZE SUB DUP2 ADD SWAP1 PUSH2 0x203 SWAP2 SWAP1 PUSH2 0x139B JUMP JUMPDEST PUSH2 0xA13 JUMP JUMPDEST PUSH1 0x40 MLOAD PUSH2 0x215 SWAP2 SWAP1 PUSH2 0x1C35 JUMP JUMPDEST PUSH1 0x40 MLOAD DUP1 SWAP2 SUB SWAP1 RETURN JUMPDEST CALLVALUE DUP1 ISZERO PUSH2 0x22A JUMPI PUSH1 0x0 DUP1 REVERT JUMPDEST POP PUSH2 0x233 PUSH2 0xACB JUMP JUMPDEST PUSH1 0x40 MLOAD PUSH2 0x240 SWAP2 SWAP1 PUSH2 0x1AB3 JUMP JUMPDEST PUSH1 0x40 MLOAD DUP1 SWAP2 SUB SWAP1 RETURN JUMPDEST CALLVALUE DUP1 ISZERO PUSH2 0x255 JUMPI PUSH1 0x0 DUP1 REVERT JUMPDEST POP PUSH2 0x270 PUSH1 0x4 DUP1 CALLDATASIZE SUB DUP2 ADD SWAP1 PUSH2 0x26B SWAP2 SWAP1 PUSH2 0x144F JUMP JUMPDEST PUSH2 0xB5D JUMP JUMPDEST STOP JUMPDEST CALLVALUE DUP1 ISZERO PUSH2 0x27E JUMPI PUSH1 0x0 DUP1 REVERT JUMPDEST POP PUSH2 0x287 PUSH2 0xCC9 JUMP JUMPDEST PUSH1 0x40 MLOAD PUSH2 0x294 SWAP2 SWAP1 PUSH2 0x1A76 JUMP JUMPDEST PUSH1 0x40 MLOAD DUP1 SWAP2 SUB SWAP1 RETURN JUMPDEST CALLVALUE DUP1 ISZERO PUSH2 0x2A9 JUMPI PUSH1 0x0 DUP1 REVERT JUMPDEST POP PUSH2 0x2C4 PUSH1 0x4 DUP1 CALLDATASIZE SUB DUP2 ADD SWAP1 PUSH2 0x2BF SWAP2 SWAP1 PUSH2 0x1531 JUMP JUMPDEST PUSH2 0xD5E JUMP JUMPDEST PUSH1 0x40 MLOAD PUSH2 0x2D1 SWAP2 SWAP1 PUSH2 0x1AB3 JUMP JUMPDEST PUSH1 0x40 MLOAD DUP1 SWAP2 SUB SWAP1 RETURN JUMPDEST CALLVALUE DUP1 ISZERO PUSH2 0x2E6 JUMPI PUSH1 0x0 DUP1 REVERT JUMPDEST POP PUSH2 0x301 PUSH1 0x4 DUP1 CALLDATASIZE SUB DUP2 ADD SWAP1 PUSH2 0x2FC SWAP2 SWAP1 PUSH2 0x14F0 JUMP JUMPDEST PUSH2 0xEA6 JUMP JUMPDEST STOP JUMPDEST CALLVALUE DUP1 ISZERO PUSH2 0x30F JUMPI PUSH1 0x0 DUP1 REVERT JUMPDEST POP PUSH2 0x32A PUSH1 0x4 DUP1 CALLDATASIZE SUB DUP2 ADD SWAP1 PUSH2 0x325 SWAP2 SWAP1 PUSH2 0x13C4 JUMP JUMPDEST PUSH2 0x105E JUMP JUMPDEST PUSH1 0x40 MLOAD PUSH2 0x337 SWAP2 SWAP1 PUSH2 0x1A98 JUMP JUMPDEST PUSH1 0x40 MLOAD DUP1 SWAP2 SUB SWAP1 RETURN JUMPDEST PUSH1 0x0 PUSH4 0x80AC58CD PUSH1 0xE0 SHL DUP3 PUSH28 0xFFFFFFFFFFFFFFFFFFFFFFFFFFFFFFFFFFFFFFFFFFFFFFFFFFFFFFFF NOT AND EQ SWAP1 POP SWAP2 SWAP1 POP JUMP JUMPDEST PUSH1 0x60 PUSH1 0x0 DUP1 SLOAD PUSH2 0x381 SWAP1 PUSH2 0x1E46 JUMP JUMPDEST DUP1 PUSH1 0x1F ADD PUSH1 0x20 DUP1 SWAP2 DIV MUL PUSH1 0x20 ADD PUSH1 0x40 MLOAD SWAP1 DUP2 ADD PUSH1 0x40 MSTORE DUP1 SWAP3 SWAP2 SWAP1 DUP2 DUP2 MSTORE PUSH1 0x20 ADD DUP3 DUP1 SLOAD PUSH2 0x3AD SWAP1 PUSH2 0x1E46 JUMP JUMPDEST DUP1 ISZERO PUSH2 0x3FA JUMPI DUP1 PUSH1 0x1F LT PUSH2 0x3CF JUMPI PUSH2 0x100 DUP1 DUP4 SLOAD DIV MUL DUP4 MSTORE SWAP2 PUSH1 0x20 ADD SWAP2 PUSH2 0x3FA JUMP JUMPDEST DUP3 ADD SWAP2 SWAP1 PUSH1 0x0 MSTORE PUSH1 0x20 PUSH1 0x0 KECCAK256 SWAP1 JUMPDEST DUP2 SLOAD DUP2 MSTORE SWAP1 PUSH1 0x1 ADD SWAP1 PUSH1 0x20 ADD DUP1 DUP4 GT PUSH2 0x3DD JUMPI DUP3 SWAP1 SUB PUSH1 0x1F AND DUP3 ADD SWAP2 JUMPDEST POP POP POP POP POP SWAP1 POP SWAP1 JUMP JUMPDEST PUSH1 0x0 PUSH2 0x40F DUP3 PUSH2 0x10F2 JUMP JUMPDEST PUSH2 0x44E JUMPI PUSH1 0x40 MLOAD PUSH32 0x8C379A000000000000000000000000000000000000000000000000000000000 DUP2 MSTORE PUSH1 0x4 ADD PUSH2 0x445 SWAP1 PUSH2 0x1BB5 JUMP JUMPDEST PUSH1 0x40 MLOAD DUP1 SWAP2 SUB SWAP1 REVERT JUMPDEST PUSH1 0x7 PUSH1 0x0 DUP4 DUP2 MSTORE PUSH1 0x20 ADD SWAP1 DUP2 MSTORE PUSH1 0x20 ADD PUSH1 0x0 KECCAK256 PUSH1 0x0 SWAP1 SLOAD SWAP1 PUSH2 0x100 EXP SWAP1 DIV PUSH20 0xFFFFFFFFFFFFFFFFFFFFFFFFFFFFFFFFFFFFFFFF AND SWAP1 POP SWAP2 SWAP1 POP JUMP JUMPDEST PUSH1 0x0 PUSH1 0x5 PUSH1 0x0 DUP4 DUP2 MSTORE PUSH1 0x20 ADD SWAP1 DUP2 MSTORE PUSH1 0x20 ADD PUSH1 0x0 KECCAK256 PUSH1 0x0 SWAP1 SLOAD SWAP1 PUSH2 0x100 EXP SWAP1 DIV PUSH20 0xFFFFFFFFFFFFFFFFFFFFFFFFFFFFFFFFFFFFFFFF AND SWAP1 POP DUP1 PUSH20 0xFFFFFFFFFFFFFFFFFFFFFFFFFFFFFFFFFFFFFFFF AND DUP4 PUSH20 0xFFFFFFFFFFFFFFFFFFFFFFFFFFFFFFFFFFFFFFFF AND EQ ISZERO PUSH2 0x530 JUMPI PUSH1 0x40 MLOAD PUSH32 0x8C379A000000000000000000000000000000000000000000000000000000000 DUP2 MSTORE PUSH1 0x4 ADD PUSH2 0x527 SWAP1 PUSH2 0x1BD5 JUMP JUMPDEST PUSH1 0x40 MLOAD DUP1 SWAP2 SUB SWAP1 REVERT JUMPDEST DUP1 PUSH20 0xFFFFFFFFFFFFFFFFFFFFFFFFFFFFFFFFFFFFFFFF AND CALLER PUSH20 0xFFFFFFFFFFFFFFFFFFFFFFFFFFFFFFFFFFFFFFFF AND EQ DUP1 PUSH2 0x570 JUMPI POP PUSH2 0x56F DUP2 CALLER PUSH2 0x105E JUMP JUMPDEST JUMPDEST PUSH2 0x5AF JUMPI PUSH1 0x40 MLOAD PUSH32 0x8C379A000000000000000000000000000000000000000000000000000000000 DUP2 MSTORE PUSH1 0x4 ADD PUSH2 0x5A6 SWAP1 PUSH2 0x1AF5 JUMP JUMPDEST PUSH1 0x40 MLOAD DUP1 SWAP2 SUB SWAP1 REVERT JUMPDEST DUP3 PUSH1 0x7 PUSH1 0x0 DUP5 DUP2 MSTORE PUSH1 0x20 ADD SWAP1 DUP2 MSTORE PUSH1 0x20 ADD PUSH1 0x0 KECCAK256 PUSH1 0x0 PUSH2 0x100 EXP DUP2 SLOAD DUP2 PUSH20 0xFFFFFFFFFFFFFFFFFFFFFFFFFFFFFFFFFFFFFFFF MUL NOT AND SWAP1 DUP4 PUSH20 0xFFFFFFFFFFFFFFFFFFFFFFFFFFFFFFFFFFFFFFFF AND MUL OR SWAP1 SSTORE POP DUP2 DUP4 PUSH20 0xFFFFFFFFFFFFFFFFFFFFFFFFFFFFFFFFFFFFFFFF AND CALLER PUSH20 0xFFFFFFFFFFFFFFFFFFFFFFFFFFFFFFFFFFFFFFFF AND PUSH32 0x8C5BE1E5EBEC7D5BD14F71427D1E84F3DD0314C0F7B2291E5B200AC8C7C3B925 PUSH1 0x40 MLOAD PUSH1 0x40 MLOAD DUP1 SWAP2 SUB SWAP1 LOG4 POP POP POP JUMP JUMPDEST PUSH2 0x66B CALLER DUP3 PUSH2 0x115E JUMP JUMPDEST PUSH2 0x6AA JUMPI PUSH1 0x40 MLOAD PUSH32 0x8C379A000000000000000000000000000000000000000000000000000000000 DUP2 MSTORE PUSH1 0x4 ADD PUSH2 0x6A1 SWAP1 PUSH2 0x1C15 JUMP JUMPDEST PUSH1 0x40 MLOAD DUP1 SWAP2 SUB SWAP1 REVERT JUMPDEST DUP3 PUSH20 0xFFFFFFFFFFFFFFFFFFFFFFFFFFFFFFFFFFFFFFFF AND PUSH2 0x6CA DUP3 PUSH2 0x961 JUMP JUMPDEST PUSH20 0xFFFFFFFFFFFFFFFFFFFFFFFFFFFFFFFFFFFFFFFF AND EQ PUSH2 0x720 JUMPI PUSH1 0x40 MLOAD PUSH32 0x8C379A000000000000000000000000000000000000000000000000000000000 DUP2 MSTORE PUSH1 0x4 ADD PUSH2 0x717 SWAP1 PUSH2 0x1AD5 JUMP JUMPDEST PUSH1 0x40 MLOAD DUP1 SWAP2 SUB SWAP1 REVERT JUMPDEST PUSH1 0x0 PUSH20 0xFFFFFFFFFFFFFFFFFFFFFFFFFFFFFFFFFFFFFFFF AND DUP3 PUSH20 0xFFFFFFFFFFFFFFFFFFFFFFFFFFFFFFFFFFFFFFFF AND EQ ISZERO PUSH2 0x790 JUMPI PUSH1 0x40 MLOAD PUSH32 0x8C379A000000000000000000000000000000000000000000000000000000000 DUP2 MSTORE PUSH1 0x4 ADD PUSH2 0x787 SWAP1 PUSH2 0x1B15 JUMP JUMPDEST PUSH1 0x40 MLOAD DUP1 SWAP2 SUB SWAP1 REVERT JUMPDEST PUSH2 0x79B PUSH1 0x0 DUP3 PUSH2 0x489 JUMP JUMPDEST PUSH1 0x1 PUSH1 0x4 PUSH1 0x0 DUP6 PUSH20 0xFFFFFFFFFFFFFFFFFFFFFFFFFFFFFFFFFFFFFFFF AND PUSH20 0xFFFFFFFFFFFFFFFFFFFFFFFFFFFFFFFFFFFFFFFF AND DUP2 MSTORE PUSH1 0x20 ADD SWAP1 DUP2 MSTORE PUSH1 0x20 ADD PUSH1 0x0 KECCAK256 PUSH1 0x0 DUP3 DUP3 SLOAD PUSH2 0x7EB SWAP2 SWAP1 PUSH2 0x1D5C JUMP JUMPDEST SWAP3 POP POP DUP2 SWAP1 SSTORE POP PUSH1 0x1 PUSH1 0x4 PUSH1 0x0 DUP5 PUSH20 0xFFFFFFFFFFFFFFFFFFFFFFFFFFFFFFFFFFFFFFFF AND PUSH20 0xFFFFFFFFFFFFFFFFFFFFFFFFFFFFFFFFFFFFFFFF AND DUP2 MSTORE PUSH1 0x20 ADD SWAP1 DUP2 MSTORE PUSH1 0x20 ADD PUSH1 0x0 KECCAK256 PUSH1 0x0 DUP3 DUP3 SLOAD PUSH2 0x842 SWAP2 SWAP1 PUSH2 0x1D06 JUMP JUMPDEST SWAP3 POP POP DUP2 SWAP1 SSTORE POP DUP2 PUSH1 0x5 PUSH1 0x0 DUP4 DUP2 MSTORE PUSH1 0x20 ADD SWAP1 DUP2 MSTORE PUSH1 0x20 ADD PUSH1 0x0 KECCAK256 PUSH1 0x0 PUSH2 0x100 EXP DUP2 SLOAD DUP2 PUSH20 0xFFFFFFFFFFFFFFFFFFFFFFFFFFFFFFFFFFFFFFFF MUL NOT AND SWAP1 DUP4 PUSH20 0xFFFFFFFFFFFFFFFFFFFFFFFFFFFFFFFFFFFFFFFF AND MUL OR SWAP1 SSTORE POP PUSH1 0x9 PUSH1 0x0 DUP4 PUSH20 0xFFFFFFFFFFFFFFFFFFFFFFFFFFFFFFFFFFFFFFFF AND PUSH20 0xFFFFFFFFFFFFFFFFFFFFFFFFFFFFFFFFFFFFFFFF AND DUP2 MSTORE PUSH1 0x20 ADD SWAP1 DUP2 MSTORE PUSH1 0x20 ADD PUSH1 0x0 KECCAK256 DUP2 SWAP1 DUP1 PUSH1 0x1 DUP2 SLOAD ADD DUP1 DUP3 SSTORE DUP1 SWAP2 POP POP PUSH1 0x1 SWAP1 SUB SWAP1 PUSH1 0x0 MSTORE PUSH1 0x20 PUSH1 0x0 KECCAK256 ADD PUSH1 0x0 SWAP1 SWAP2 SWAP1 SWAP2 SWAP1 SWAP2 POP SSTORE DUP1 DUP3 PUSH20 0xFFFFFFFFFFFFFFFFFFFFFFFFFFFFFFFFFFFFFFFF AND DUP5 PUSH20 0xFFFFFFFFFFFFFFFFFFFFFFFFFFFFFFFFFFFFFFFF AND PUSH32 0xDDF252AD1BE2C89B69C2B068FC378DAA952BA7F163C4A11628F55A4DF523B3EF PUSH1 0x40 MLOAD PUSH1 0x40 MLOAD DUP1 SWAP2 SUB SWAP1 LOG4 POP POP POP JUMP JUMPDEST PUSH1 0x0 DUP1 PUSH1 0x5 PUSH1 0x0 DUP5 DUP2 MSTORE PUSH1 0x20 ADD SWAP1 DUP2 MSTORE PUSH1 0x20 ADD PUSH1 0x0 KECCAK256 PUSH1 0x0 SWAP1 SLOAD SWAP1 PUSH2 0x100 EXP SWAP1 DIV PUSH20 0xFFFFFFFFFFFFFFFFFFFFFFFFFFFFFFFFFFFFFFFF AND SWAP1 POP PUSH1 0x0 PUSH20 0xFFFFFFFFFFFFFFFFFFFFFFFFFFFFFFFFFFFFFFFF AND DUP2 PUSH20 0xFFFFFFFFFFFFFFFFFFFFFFFFFFFFFFFFFFFFFFFF AND EQ ISZERO PUSH2 0xA0A JUMPI PUSH1 0x40 MLOAD PUSH32 0x8C379A000000000000000000000000000000000000000000000000000000000 DUP2 MSTORE PUSH1 0x4 ADD PUSH2 0xA01 SWAP1 PUSH2 0x1B95 JUMP JUMPDEST PUSH1 0x40 MLOAD DUP1 SWAP2 SUB SWAP1 REVERT JUMPDEST DUP1 SWAP2 POP POP SWAP2 SWAP1 POP JUMP JUMPDEST PUSH1 0x0 DUP1 PUSH20 0xFFFFFFFFFFFFFFFFFFFFFFFFFFFFFFFFFFFFFFFF AND DUP3 PUSH20 0xFFFFFFFFFFFFFFFFFFFFFFFFFFFFFFFFFFFFFFFF AND EQ ISZERO PUSH2 0xA84 JUMPI PUSH1 0x40 MLOAD PUSH32 0x8C379A000000000000000000000000000000000000000000000000000000000 DUP2 MSTORE PUSH1 0x4 ADD PUSH2 0xA7B SWAP1 PUSH2 0x1B75 JUMP JUMPDEST PUSH1 0x40 MLOAD DUP1 SWAP2 SUB SWAP1 REVERT JUMPDEST PUSH1 0x4 PUSH1 0x0 DUP4 PUSH20 0xFFFFFFFFFFFFFFFFFFFFFFFFFFFFFFFFFFFFFFFF AND PUSH20 0xFFFFFFFFFFFFFFFFFFFFFFFFFFFFFFFFFFFFFFFF AND DUP2 MSTORE PUSH1 0x20 ADD SWAP1 DUP2 MSTORE PUSH1 0x20 ADD PUSH1 0x0 KECCAK256 SLOAD SWAP1 POP SWAP2 SWAP1 POP JUMP JUMPDEST PUSH1 0x60 PUSH1 0x1 DUP1 SLOAD PUSH2 0xADA SWAP1 PUSH2 0x1E46 JUMP JUMPDEST DUP1 PUSH1 0x1F ADD PUSH1 0x20 DUP1 SWAP2 DIV MUL PUSH1 0x20 ADD PUSH1 0x40 MLOAD SWAP1 DUP2 ADD PUSH1 0x40 MSTORE DUP1 SWAP3 SWAP2 SWAP1 DUP2 DUP2 MSTORE PUSH1 0x20 ADD DUP3 DUP1 SLOAD PUSH2 0xB06 SWAP1 PUSH2 0x1E46 JUMP JUMPDEST DUP1 ISZERO PUSH2 0xB53 JUMPI DUP1 PUSH1 0x1F LT PUSH2 0xB28 JUMPI PUSH2 0x100 DUP1 DUP4 SLOAD DIV MUL DUP4 MSTORE SWAP2 PUSH1 0x20 ADD SWAP2 PUSH2 0xB53 JUMP JUMPDEST DUP3 ADD SWAP2 SWAP1 PUSH1 0x0 MSTORE PUSH1 0x20 PUSH1 0x0 KECCAK256 SWAP1 JUMPDEST DUP2 SLOAD DUP2 MSTORE SWAP1 PUSH1 0x1 ADD SWAP1 PUSH1 0x20 ADD DUP1 DUP4 GT PUSH2 0xB36 JUMPI DUP3 SWAP1 SUB PUSH1 0x1F AND DUP3 ADD SWAP2 JUMPDEST POP POP POP POP POP SWAP1 POP SWAP1 JUMP JUMPDEST DUP2 PUSH20 0xFFFFFFFFFFFFFFFFFFFFFFFFFFFFFFFFFFFFFFFF AND CALLER PUSH20 0xFFFFFFFFFFFFFFFFFFFFFFFFFFFFFFFFFFFFFFFF AND EQ ISZERO PUSH2 0xBCC JUMPI PUSH1 0x40 MLOAD PUSH32 0x8C379A000000000000000000000000000000000000000000000000000000000 DUP2 MSTORE PUSH1 0x4 ADD PUSH2 0xBC3 SWAP1 PUSH2 0x1B35 JUMP JUMPDEST PUSH1 0x40 MLOAD DUP1 SWAP2 SUB SWAP1 REVERT JUMPDEST DUP1 PUSH1 0x6 PUSH1 0x0 CALLER PUSH20 0xFFFFFFFFFFFFFFFFFFFFFFFFFFFFFFFFFFFFFFFF AND PUSH20 0xFFFFFFFFFFFFFFFFFFFFFFFFFFFFFFFFFFFFFFFF AND DUP2 MSTORE PUSH1 0x20 ADD SWAP1 DUP2 MSTORE PUSH1 0x20 ADD PUSH1 0x0 KECCAK256 PUSH1 0x0 DUP5 PUSH20 0xFFFFFFFFFFFFFFFFFFFFFFFFFFFFFFFFFFFFFFFF AND PUSH20 0xFFFFFFFFFFFFFFFFFFFFFFFFFFFFFFFFFFFFFFFF AND DUP2 MSTORE PUSH1 0x20 ADD SWAP1 DUP2 MSTORE PUSH1 0x20 ADD PUSH1 0x0 KECCAK256 PUSH1 0x0 PUSH2 0x100 EXP DUP2 SLOAD DUP2 PUSH1 0xFF MUL NOT AND SWAP1 DUP4 ISZERO ISZERO MUL OR SWAP1 SSTORE POP DUP2 PUSH20 0xFFFFFFFFFFFFFFFFFFFFFFFFFFFFFFFFFFFFFFFF AND CALLER PUSH20 0xFFFFFFFFFFFFFFFFFFFFFFFFFFFFFFFFFFFFFFFF AND PUSH32 0x17307EAB39AB6107E8899845AD3D59BD9653F200F220920489CA2B5937696C31 DUP4 PUSH1 0x40 MLOAD PUSH2 0xCBD SWAP2 SWAP1 PUSH2 0x1A98 JUMP JUMPDEST PUSH1 0x40 MLOAD DUP1 SWAP2 SUB SWAP1 LOG3 POP POP JUMP JUMPDEST PUSH1 0x60 PUSH1 0x9 PUSH1 0x0 CALLER PUSH20 0xFFFFFFFFFFFFFFFFFFFFFFFFFFFFFFFFFFFFFFFF AND PUSH20 0xFFFFFFFFFFFFFFFFFFFFFFFFFFFFFFFFFFFFFFFF AND DUP2 MSTORE PUSH1 0x20 ADD SWAP1 DUP2 MSTORE PUSH1 0x20 ADD PUSH1 0x0 KECCAK256 DUP1 SLOAD DUP1 PUSH1 0x20 MUL PUSH1 0x20 ADD PUSH1 0x40 MLOAD SWAP1 DUP2 ADD PUSH1 0x40 MSTORE DUP1 SWAP3 SWAP2 SWAP1 DUP2 DUP2 MSTORE PUSH1 0x20 ADD DUP3 DUP1 SLOAD DUP1 ISZERO PUSH2 0xD54 JUMPI PUSH1 0x20 MUL DUP3 ADD SWAP2 SWAP1 PUSH1 0x0 MSTORE PUSH1 0x20 PUSH1 0x0 KECCAK256 SWAP1 JUMPDEST DUP2 SLOAD DUP2 MSTORE PUSH1 0x20 ADD SWAP1 PUSH1 0x1 ADD SWAP1 DUP1 DUP4 GT PUSH2 0xD40 JUMPI JUMPDEST POP POP POP POP POP SWAP1 POP SWAP1 JUMP JUMPDEST PUSH1 0x60 PUSH1 0x0 PUSH20 0xFFFFFFFFFFFFFFFFFFFFFFFFFFFFFFFFFFFFFFFF AND PUSH1 0x5 PUSH1 0x0 DUP5 DUP2 MSTORE PUSH1 0x20 ADD SWAP1 DUP2 MSTORE PUSH1 0x20 ADD PUSH1 0x0 KECCAK256 PUSH1 0x0 SWAP1 SLOAD SWAP1 PUSH2 0x100 EXP SWAP1 DIV PUSH20 0xFFFFFFFFFFFFFFFFFFFFFFFFFFFFFFFFFFFFFFFF AND PUSH20 0xFFFFFFFFFFFFFFFFFFFFFFFFFFFFFFFFFFFFFFFF AND EQ ISZERO PUSH2 0xE03 JUMPI PUSH1 0x40 MLOAD PUSH32 0x8C379A000000000000000000000000000000000000000000000000000000000 DUP2 MSTORE PUSH1 0x4 ADD PUSH2 0xDFA SWAP1 PUSH2 0x1BF5 JUMP JUMPDEST PUSH1 0x40 MLOAD DUP1 SWAP2 SUB SWAP1 REVERT JUMPDEST PUSH1 0x8 PUSH1 0x0 DUP4 DUP2 MSTORE PUSH1 0x20 ADD SWAP1 DUP2 MSTORE PUSH1 0x20 ADD PUSH1 0x0 KECCAK256 DUP1 SLOAD PUSH2 0xE21 SWAP1 PUSH2 0x1E46 JUMP JUMPDEST DUP1 PUSH1 0x1F ADD PUSH1 0x20 DUP1 SWAP2 DIV MUL PUSH1 0x20 ADD PUSH1 0x40 MLOAD SWAP1 DUP2 ADD PUSH1 0x40 MSTORE DUP1 SWAP3 SWAP2 SWAP1 DUP2 DUP2 MSTORE PUSH1 0x20 ADD DUP3 DUP1 SLOAD PUSH2 0xE4D SWAP1 PUSH2 0x1E46 JUMP JUMPDEST DUP1 ISZERO PUSH2 0xE9A JUMPI DUP1 PUSH1 0x1F LT PUSH2 0xE6F JUMPI PUSH2 0x100 DUP1 DUP4 SLOAD DIV MUL DUP4 MSTORE SWAP2 PUSH1 0x20 ADD SWAP2 PUSH2 0xE9A JUMP JUMPDEST DUP3 ADD SWAP2 SWAP1 PUSH1 0x0 MSTORE PUSH1 0x20 PUSH1 0x0 KECCAK256 SWAP1 JUMPDEST DUP2 SLOAD DUP2 MSTORE SWAP1 PUSH1 0x1 ADD SWAP1 PUSH1 0x20 ADD DUP1 DUP4 GT PUSH2 0xE7D JUMPI DUP3 SWAP1 SUB PUSH1 0x1F AND DUP3 ADD SWAP2 JUMPDEST POP POP POP POP POP SWAP1 POP SWAP2 SWAP1 POP JUMP JUMPDEST PUSH1 0x1 PUSH1 0x2 PUSH1 0x0 DUP3 DUP3 SLOAD PUSH2 0xEB9 SWAP2 SWAP1 PUSH2 0x1D06 JUMP JUMPDEST SWAP3 POP POP DUP2 SWAP1 SSTORE POP PUSH1 0x1 PUSH1 0x4 PUSH1 0x0 CALLER PUSH20 0xFFFFFFFFFFFFFFFFFFFFFFFFFFFFFFFFFFFFFFFF AND PUSH20 0xFFFFFFFFFFFFFFFFFFFFFFFFFFFFFFFFFFFFFFFF AND DUP2 MSTORE PUSH1 0x20 ADD SWAP1 DUP2 MSTORE PUSH1 0x20 ADD PUSH1 0x0 KECCAK256 PUSH1 0x0 DUP3 DUP3 SLOAD PUSH2 0xF10 SWAP2 SWAP1 PUSH2 0x1D06 JUMP JUMPDEST SWAP3 POP POP DUP2 SWAP1 SSTORE POP CALLER PUSH1 0x5 PUSH1 0x0 PUSH1 0x2 SLOAD DUP2 MSTORE PUSH1 0x20 ADD SWAP1 DUP2 MSTORE PUSH1 0x20 ADD PUSH1 0x0 KECCAK256 PUSH1 0x0 PUSH2 0x100 EXP DUP2 SLOAD DUP2 PUSH20 0xFFFFFFFFFFFFFFFFFFFFFFFFFFFFFFFFFFFFFFFF MUL NOT AND SWAP1 DUP4 PUSH20 0xFFFFFFFFFFFFFFFFFFFFFFFFFFFFFFFFFFFFFFFF AND MUL OR SWAP1 SSTORE POP DUP1 PUSH1 0x8 PUSH1 0x0 PUSH1 0x2 SLOAD DUP2 MSTORE PUSH1 0x20 ADD SWAP1 DUP2 MSTORE PUSH1 0x20 ADD PUSH1 0x0 KECCAK256 SWAP1 DUP1 MLOAD SWAP1 PUSH1 0x20 ADD SWAP1 PUSH2 0xF94 SWAP3 SWAP2 SWAP1 PUSH2 0x123C JUMP JUMPDEST POP PUSH1 0x9 PUSH1 0x0 CALLER PUSH20 0xFFFFFFFFFFFFFFFFFFFFFFFFFFFFFFFFFFFFFFFF AND PUSH20 0xFFFFFFFFFFFFFFFFFFFFFFFFFFFFFFFFFFFFFFFF AND DUP2 MSTORE PUSH1 0x20 ADD SWAP1 DUP2 MSTORE PUSH1 0x20 ADD PUSH1 0x0 KECCAK256 PUSH1 0x2 SLOAD SWAP1 DUP1 PUSH1 0x1 DUP2 SLOAD ADD DUP1 DUP3 SSTORE DUP1 SWAP2 POP POP PUSH1 0x1 SWAP1 SUB SWAP1 PUSH1 0x0 MSTORE PUSH1 0x20 PUSH1 0x0 KECCAK256 ADD PUSH1 0x0 SWAP1 SWAP2 SWAP1 SWAP2 SWAP1 SWAP2 POP SSTORE PUSH1 0x2 SLOAD CALLER PUSH20 0xFFFFFFFFFFFFFFFFFFFFFFFFFFFFFFFFFFFFFFFF AND PUSH1 0x0 PUSH20 0xFFFFFFFFFFFFFFFFFFFFFFFFFFFFFFFFFFFFFFFF AND PUSH32 0xDDF252AD1BE2C89B69C2B068FC378DAA952BA7F163C4A11628F55A4DF523B3EF PUSH1 0x40 MLOAD PUSH1 0x40 MLOAD DUP1 SWAP2 SUB SWAP1 LOG4 POP JUMP JUMPDEST PUSH1 0x0 PUSH1 0x6 PUSH1 0x0 DUP5 PUSH20 0xFFFFFFFFFFFFFFFFFFFFFFFFFFFFFFFFFFFFFFFF AND PUSH20 0xFFFFFFFFFFFFFFFFFFFFFFFFFFFFFFFFFFFFFFFF AND DUP2 MSTORE PUSH1 0x20 ADD SWAP1 DUP2 MSTORE PUSH1 0x20 ADD PUSH1 0x0 KECCAK256 PUSH1 0x0 DUP4 PUSH20 0xFFFFFFFFFFFFFFFFFFFFFFFFFFFFFFFFFFFFFFFF AND PUSH20 0xFFFFFFFFFFFFFFFFFFFFFFFFFFFFFFFFFFFFFFFF AND DUP2 MSTORE PUSH1 0x20 ADD SWAP1 DUP2 MSTORE PUSH1 0x20 ADD PUSH1 0x0 KECCAK256 PUSH1 0x0 SWAP1 SLOAD SWAP1 PUSH2 0x100 EXP SWAP1 DIV PUSH1 0xFF AND SWAP1 POP SWAP3 SWAP2 POP POP JUMP JUMPDEST PUSH1 0x0 DUP1 PUSH20 0xFFFFFFFFFFFFFFFFFFFFFFFFFFFFFFFFFFFFFFFF AND PUSH1 0x5 PUSH1 0x0 DUP5 DUP2 MSTORE PUSH1 0x20 ADD SWAP1 DUP2 MSTORE PUSH1 0x20 ADD PUSH1 0x0 KECCAK256 PUSH1 0x0 SWAP1 SLOAD SWAP1 PUSH2 0x100 EXP SWAP1 DIV PUSH20 0xFFFFFFFFFFFFFFFFFFFFFFFFFFFFFFFFFFFFFFFF AND PUSH20 0xFFFFFFFFFFFFFFFFFFFFFFFFFFFFFFFFFFFFFFFF AND EQ ISZERO SWAP1 POP SWAP2 SWAP1 POP JUMP JUMPDEST PUSH1 0x0 PUSH2 0x1169 DUP3 PUSH2 0x10F2 JUMP JUMPDEST PUSH2 0x11A8 JUMPI PUSH1 0x40 MLOAD PUSH32 0x8C379A000000000000000000000000000000000000000000000000000000000 DUP2 MSTORE PUSH1 0x4 ADD PUSH2 0x119F SWAP1 PUSH2 0x1B55 JUMP JUMPDEST PUSH1 0x40 MLOAD DUP1 SWAP2 SUB SWAP1 REVERT JUMPDEST PUSH1 0x0 PUSH2 0x11B3 DUP4 PUSH2 0x961 JUMP JUMPDEST SWAP1 POP DUP1 PUSH20 0xFFFFFFFFFFFFFFFFFFFFFFFFFFFFFFFFFFFFFFFF AND DUP5 PUSH20 0xFFFFFFFFFFFFFFFFFFFFFFFFFFFFFFFFFFFFFFFF AND EQ DUP1 PUSH2 0x1222 JUMPI POP DUP4 PUSH20 0xFFFFFFFFFFFFFFFFFFFFFFFFFFFFFFFFFFFFFFFF AND PUSH2 0x120A DUP5 PUSH2 0x404 JUMP JUMPDEST PUSH20 0xFFFFFFFFFFFFFFFFFFFFFFFFFFFFFFFFFFFFFFFF AND EQ JUMPDEST DUP1 PUSH2 0x1233 JUMPI POP PUSH2 0x1232 DUP2 DUP6 PUSH2 0x105E JUMP JUMPDEST JUMPDEST SWAP2 POP POP SWAP3 SWAP2 POP POP JUMP JUMPDEST DUP3 DUP1 SLOAD PUSH2 0x1248 SWAP1 PUSH2 0x1E46 JUMP JUMPDEST SWAP1 PUSH1 0x0 MSTORE PUSH1 0x20 PUSH1 0x0 KECCAK256 SWAP1 PUSH1 0x1F ADD PUSH1 0x20 SWAP1 DIV DUP2 ADD SWAP3 DUP3 PUSH2 0x126A JUMPI PUSH1 0x0 DUP6 SSTORE PUSH2 0x12B1 JUMP JUMPDEST DUP3 PUSH1 0x1F LT PUSH2 0x1283 JUMPI DUP1 MLOAD PUSH1 0xFF NOT AND DUP4 DUP1 ADD OR DUP6 SSTORE PUSH2 0x12B1 JUMP JUMPDEST DUP3 DUP1 ADD PUSH1 0x1 ADD DUP6 SSTORE DUP3 ISZERO PUSH2 0x12B1 JUMPI SWAP2 DUP3 ADD JUMPDEST DUP3 DUP2 GT ISZERO PUSH2 0x12B0 JUMPI DUP3 MLOAD DUP3 SSTORE SWAP2 PUSH1 0x20 ADD SWAP2 SWAP1 PUSH1 0x1 ADD SWAP1 PUSH2 0x1295 JUMP JUMPDEST JUMPDEST POP SWAP1 POP PUSH2 0x12BE SWAP2 SWAP1 PUSH2 0x12C2 JUMP JUMPDEST POP SWAP1 JUMP JUMPDEST JUMPDEST DUP1 DUP3 GT ISZERO PUSH2 0x12DB JUMPI PUSH1 0x0 DUP2 PUSH1 0x0 SWAP1 SSTORE POP PUSH1 0x1 ADD PUSH2 0x12C3 JUMP JUMPDEST POP SWAP1 JUMP JUMPDEST PUSH1 0x0 PUSH2 0x12F2 PUSH2 0x12ED DUP5 PUSH2 0x1C81 JUMP JUMPDEST PUSH2 0x1C50 JUMP JUMPDEST SWAP1 POP DUP3 DUP2 MSTORE PUSH1 0x20 DUP2 ADD DUP5 DUP5 DUP5 ADD GT ISZERO PUSH2 0x130A JUMPI PUSH1 0x0 DUP1 REVERT JUMPDEST PUSH2 0x1315 DUP5 DUP3 DUP6 PUSH2 0x1E04 JUMP JUMPDEST POP SWAP4 SWAP3 POP POP POP JUMP JUMPDEST PUSH1 0x0 DUP2 CALLDATALOAD SWAP1 POP PUSH2 0x132C DUP2 PUSH2 0x1F16 JUMP JUMPDEST SWAP3 SWAP2 POP POP JUMP JUMPDEST PUSH1 0x0 DUP2 CALLDATALOAD SWAP1 POP PUSH2 0x1341 DUP2 PUSH2 0x1F2D JUMP JUMPDEST SWAP3 SWAP2 POP POP JUMP JUMPDEST PUSH1 0x0 DUP2 CALLDATALOAD SWAP1 POP PUSH2 0x1356 DUP2 PUSH2 0x1F44 JUMP JUMPDEST SWAP3 SWAP2 POP POP JUMP JUMPDEST PUSH1 0x0 DUP3 PUSH1 0x1F DUP4 ADD SLT PUSH2 0x136D JUMPI PUSH1 0x0 DUP1 REVERT JUMPDEST DUP2 CALLDATALOAD PUSH2 0x137D DUP5 DUP3 PUSH1 0x20 DUP7 ADD PUSH2 0x12DF JUMP JUMPDEST SWAP2 POP POP SWAP3 SWAP2 POP POP JUMP JUMPDEST PUSH1 0x0 DUP2 CALLDATALOAD SWAP1 POP PUSH2 0x1395 DUP2 PUSH2 0x1F5B JUMP JUMPDEST SWAP3 SWAP2 POP POP JUMP JUMPDEST PUSH1 0x0 PUSH1 0x20 DUP3 DUP5 SUB SLT ISZERO PUSH2 0x13AD JUMPI PUSH1 0x0 DUP1 REVERT JUMPDEST PUSH1 0x0 PUSH2 0x13BB DUP5 DUP3 DUP6 ADD PUSH2 0x131D JUMP JUMPDEST SWAP2 POP POP SWAP3 SWAP2 POP POP JUMP JUMPDEST PUSH1 0x0 DUP1 PUSH1 0x40 DUP4 DUP6 SUB SLT ISZERO PUSH2 0x13D7 JUMPI PUSH1 0x0 DUP1 REVERT JUMPDEST PUSH1 0x0 PUSH2 0x13E5 DUP6 DUP3 DUP7 ADD PUSH2 0x131D JUMP JUMPDEST SWAP3 POP POP PUSH1 0x20 PUSH2 0x13F6 DUP6 DUP3 DUP7 ADD PUSH2 0x131D JUMP JUMPDEST SWAP2 POP POP SWAP3 POP SWAP3 SWAP1 POP JUMP JUMPDEST PUSH1 0x0 DUP1 PUSH1 0x0 PUSH1 0x60 DUP5 DUP7 SUB SLT ISZERO PUSH2 0x1415 JUMPI PUSH1 0x0 DUP1 REVERT JUMPDEST PUSH1 0x0 PUSH2 0x1423 DUP7 DUP3 DUP8 ADD PUSH2 0x131D JUMP JUMPDEST SWAP4 POP POP PUSH1 0x20 PUSH2 0x1434 DUP7 DUP3 DUP8 ADD PUSH2 0x131D JUMP JUMPDEST SWAP3 POP POP PUSH1 0x40 PUSH2 0x1445 DUP7 DUP3 DUP8 ADD PUSH2 0x1386 JUMP JUMPDEST SWAP2 POP POP SWAP3 POP SWAP3 POP SWAP3 JUMP JUMPDEST PUSH1 0x0 DUP1 PUSH1 0x40 DUP4 DUP6 SUB SLT ISZERO PUSH2 0x1462 JUMPI PUSH1 0x0 DUP1 REVERT JUMPDEST PUSH1 0x0 PUSH2 0x1470 DUP6 DUP3 DUP7 ADD PUSH2 0x131D JUMP JUMPDEST SWAP3 POP POP PUSH1 0x20 PUSH2 0x1481 DUP6 DUP3 DUP7 ADD PUSH2 0x1332 JUMP JUMPDEST SWAP2 POP POP SWAP3 POP SWAP3 SWAP1 POP JUMP JUMPDEST PUSH1 0x0 DUP1 PUSH1 0x40 DUP4 DUP6 SUB SLT ISZERO PUSH2 0x149E JUMPI PUSH1 0x0 DUP1 REVERT JUMPDEST PUSH1 0x0 PUSH2 0x14AC DUP6 DUP3 DUP7 ADD PUSH2 0x131D JUMP JUMPDEST SWAP3 POP POP PUSH1 0x20 PUSH2 0x14BD DUP6 DUP3 DUP7 ADD PUSH2 0x1386 JUMP JUMPDEST SWAP2 POP POP SWAP3 POP SWAP3 SWAP1 POP JUMP JUMPDEST PUSH1 0x0 PUSH1 0x20 DUP3 DUP5 SUB SLT ISZERO PUSH2 0x14D9 JUMPI PUSH1 0x0 DUP1 REVERT JUMPDEST PUSH1 0x0 PUSH2 0x14E7 DUP5 DUP3 DUP6 ADD PUSH2 0x1347 JUMP JUMPDEST SWAP2 POP POP SWAP3 SWAP2 POP POP JUMP JUMPDEST PUSH1 0x0 PUSH1 0x20 DUP3 DUP5 SUB SLT ISZERO PUSH2 0x1502 JUMPI PUSH1 0x0 DUP1 REVERT JUMPDEST PUSH1 0x0 DUP3 ADD CALLDATALOAD PUSH8 0xFFFFFFFFFFFFFFFF DUP2 GT ISZERO PUSH2 0x151C JUMPI PUSH1 0x0 DUP1 REVERT JUMPDEST PUSH2 0x1528 DUP5 DUP3 DUP6 ADD PUSH2 0x135C JUMP JUMPDEST SWAP2 POP POP SWAP3 SWAP2 POP POP JUMP JUMPDEST PUSH1 0x0 PUSH1 0x20 DUP3 DUP5 SUB SLT ISZERO PUSH2 0x1543 JUMPI PUSH1 0x0 DUP1 REVERT JUMPDEST PUSH1 0x0 PUSH2 0x1551 DUP5 DUP3 DUP6 ADD PUSH2 0x1386 JUMP JUMPDEST SWAP2 POP POP SWAP3 SWAP2 POP POP JUMP JUMPDEST PUSH1 0x0 PUSH2 0x1566 DUP4 DUP4 PUSH2 0x1A3D JUMP JUMPDEST PUSH1 0x20 DUP4 ADD SWAP1 POP SWAP3 SWAP2 POP POP JUMP JUMPDEST PUSH2 0x157B DUP2 PUSH2 0x1D90 JUMP JUMPDEST DUP3 MSTORE POP POP JUMP JUMPDEST PUSH1 0x0 PUSH2 0x158C DUP3 PUSH2 0x1CC1 JUMP JUMPDEST PUSH2 0x1596 DUP2 DUP6 PUSH2 0x1CE4 JUMP JUMPDEST SWAP4 POP PUSH2 0x15A1 DUP4 PUSH2 0x1CB1 JUMP JUMPDEST DUP1 PUSH1 0x0 JUMPDEST DUP4 DUP2 LT ISZERO PUSH2 0x15D2 JUMPI DUP2 MLOAD PUSH2 0x15B9 DUP9 DUP3 PUSH2 0x155A JUMP JUMPDEST SWAP8 POP PUSH2 0x15C4 DUP4 PUSH2 0x1CD7 JUMP JUMPDEST SWAP3 POP POP PUSH1 0x1 DUP2 ADD SWAP1 POP PUSH2 0x15A5 JUMP JUMPDEST POP DUP6 SWAP4 POP POP POP POP SWAP3 SWAP2 POP POP JUMP JUMPDEST PUSH2 0x15E8 DUP2 PUSH2 0x1DA2 JUMP JUMPDEST DUP3 MSTORE POP POP JUMP JUMPDEST PUSH1 0x0 PUSH2 0x15F9 DUP3 PUSH2 0x1CCC JUMP JUMPDEST PUSH2 0x1603 DUP2 DUP6 PUSH2 0x1CF5 JUMP JUMPDEST SWAP4 POP PUSH2 0x1613 DUP2 DUP6 PUSH1 0x20 DUP7 ADD PUSH2 0x1E13 JUMP JUMPDEST PUSH2 0x161C DUP2 PUSH2 0x1F05 JUMP JUMPDEST DUP5 ADD SWAP2 POP POP SWAP3 SWAP2 POP POP JUMP JUMPDEST PUSH1 0x0 PUSH2 0x1634 PUSH1 0x25 DUP4 PUSH2 0x1CF5 JUMP JUMPDEST SWAP2 POP PUSH32 0x4552433732313A207472616E736665722066726F6D20696E636F727265637420 PUSH1 0x0 DUP4 ADD MSTORE PUSH32 0x6F776E6572000000000000000000000000000000000000000000000000000000 PUSH1 0x20 DUP4 ADD MSTORE PUSH1 0x40 DUP3 ADD SWAP1 POP SWAP2 SWAP1 POP JUMP JUMPDEST PUSH1 0x0 PUSH2 0x169A PUSH1 0x3C DUP4 PUSH2 0x1CF5 JUMP JUMPDEST SWAP2 POP PUSH32 0x4552433732313A20617070726F76652063616C6C6572206973206E6569746865 PUSH1 0x0 DUP4 ADD MSTORE PUSH32 0x72206F776E6572206E6F7220617070726F76656420666F7220616C6C00000000 PUSH1 0x20 DUP4 ADD MSTORE PUSH1 0x40 DUP3 ADD SWAP1 POP SWAP2 SWAP1 POP JUMP JUMPDEST PUSH1 0x0 PUSH2 0x1700 PUSH1 0x24 DUP4 PUSH2 0x1CF5 JUMP JUMPDEST SWAP2 POP PUSH32 0x4552433732313A207472616E7366657220746F20746865207A65726F20616464 PUSH1 0x0 DUP4 ADD MSTORE PUSH32 0x7265737300000000000000000000000000000000000000000000000000000000 PUSH1 0x20 DUP4 ADD MSTORE PUSH1 0x40 DUP3 ADD SWAP1 POP SWAP2 SWAP1 POP JUMP JUMPDEST PUSH1 0x0 PUSH2 0x1766 PUSH1 0x19 DUP4 PUSH2 0x1CF5 JUMP JUMPDEST SWAP2 POP PUSH32 0x4552433732313A20617070726F766520746F2063616C6C657200000000000000 PUSH1 0x0 DUP4 ADD MSTORE PUSH1 0x20 DUP3 ADD SWAP1 POP SWAP2 SWAP1 POP JUMP JUMPDEST PUSH1 0x0 PUSH2 0x17A6 PUSH1 0x2C DUP4 PUSH2 0x1CF5 JUMP JUMPDEST SWAP2 POP PUSH32 0x4552433732313A206F70657261746F7220717565727920666F72206E6F6E6578 PUSH1 0x0 DUP4 ADD MSTORE PUSH32 0x697374656E7420746F6B656E0000000000000000000000000000000000000000 PUSH1 0x20 DUP4 ADD MSTORE PUSH1 0x40 DUP3 ADD SWAP1 POP SWAP2 SWAP1 POP JUMP JUMPDEST PUSH1 0x0 PUSH2 0x180C PUSH1 0x2A DUP4 PUSH2 0x1CF5 JUMP JUMPDEST SWAP2 POP PUSH32 0x4552433732313A2062616C616E636520717565727920666F7220746865207A65 PUSH1 0x0 DUP4 ADD MSTORE PUSH32 0x726F206164647265737300000000000000000000000000000000000000000000 PUSH1 0x20 DUP4 ADD MSTORE PUSH1 0x40 DUP3 ADD SWAP1 POP SWAP2 SWAP1 POP JUMP JUMPDEST PUSH1 0x0 PUSH2 0x1872 PUSH1 0x29 DUP4 PUSH2 0x1CF5 JUMP JUMPDEST SWAP2 POP PUSH32 0x4552433732313A206F776E657220717565727920666F72206E6F6E6578697374 PUSH1 0x0 DUP4 ADD MSTORE PUSH32 0x656E7420746F6B656E0000000000000000000000000000000000000000000000 PUSH1 0x20 DUP4 ADD MSTORE PUSH1 0x40 DUP3 ADD SWAP1 POP SWAP2 SWAP1 POP JUMP JUMPDEST PUSH1 0x0 PUSH2 0x18D8 PUSH1 0x2C DUP4 PUSH2 0x1CF5 JUMP JUMPDEST SWAP2 POP PUSH32 0x4552433732313A20617070726F76656420717565727920666F72206E6F6E6578 PUSH1 0x0 DUP4 ADD MSTORE PUSH32 0x697374656E7420746F6B656E0000000000000000000000000000000000000000 PUSH1 0x20 DUP4 ADD MSTORE PUSH1 0x40 DUP3 ADD SWAP1 POP SWAP2 SWAP1 POP JUMP JUMPDEST PUSH1 0x0 PUSH2 0x193E PUSH1 0x21 DUP4 PUSH2 0x1CF5 JUMP JUMPDEST SWAP2 POP PUSH32 0x4552433732313A20617070726F76616C20746F2063757272656E74206F776E65 PUSH1 0x0 DUP4 ADD MSTORE PUSH32 0x7200000000000000000000000000000000000000000000000000000000000000 PUSH1 0x20 DUP4 ADD MSTORE PUSH1 0x40 DUP3 ADD SWAP1 POP SWAP2 SWAP1 POP JUMP JUMPDEST PUSH1 0x0 PUSH2 0x19A4 PUSH1 0x16 DUP4 PUSH2 0x1CF5 JUMP JUMPDEST SWAP2 POP PUSH32 0x546F6B656E496420646F6573206E6F7420657869737400000000000000000000 PUSH1 0x0 DUP4 ADD MSTORE PUSH1 0x20 DUP3 ADD SWAP1 POP SWAP2 SWAP1 POP JUMP JUMPDEST PUSH1 0x0 PUSH2 0x19E4 PUSH1 0x31 DUP4 PUSH2 0x1CF5 JUMP JUMPDEST SWAP2 POP PUSH32 0x4552433732313A207472616E736665722063616C6C6572206973206E6F74206F PUSH1 0x0 DUP4 ADD MSTORE PUSH32 0x776E6572206E6F7220617070726F766564000000000000000000000000000000 PUSH1 0x20 DUP4 ADD MSTORE PUSH1 0x40 DUP3 ADD SWAP1 POP SWAP2 SWAP1 POP JUMP JUMPDEST PUSH2 0x1A46 DUP2 PUSH2 0x1DFA JUMP JUMPDEST DUP3 MSTORE POP POP JUMP JUMPDEST PUSH2 0x1A55 DUP2 PUSH2 0x1DFA JUMP JUMPDEST DUP3 MSTORE POP POP JUMP JUMPDEST PUSH1 0x0 PUSH1 0x20 DUP3 ADD SWAP1 POP PUSH2 0x1A70 PUSH1 0x0 DUP4 ADD DUP5 PUSH2 0x1572 JUMP JUMPDEST SWAP3 SWAP2 POP POP JUMP JUMPDEST PUSH1 0x0 PUSH1 0x20 DUP3 ADD SWAP1 POP DUP2 DUP2 SUB PUSH1 0x0 DUP4 ADD MSTORE PUSH2 0x1A90 DUP2 DUP5 PUSH2 0x1581 JUMP JUMPDEST SWAP1 POP SWAP3 SWAP2 POP POP JUMP JUMPDEST PUSH1 0x0 PUSH1 0x20 DUP3 ADD SWAP1 POP PUSH2 0x1AAD PUSH1 0x0 DUP4 ADD DUP5 PUSH2 0x15DF JUMP JUMPDEST SWAP3 SWAP2 POP POP JUMP JUMPDEST PUSH1 0x0 PUSH1 0x20 DUP3 ADD SWAP1 POP DUP2 DUP2 SUB PUSH1 0x0 DUP4 ADD MSTORE PUSH2 0x1ACD DUP2 DUP5 PUSH2 0x15EE JUMP JUMPDEST SWAP1 POP SWAP3 SWAP2 POP POP JUMP JUMPDEST PUSH1 0x0 PUSH1 0x20 DUP3 ADD SWAP1 POP DUP2 DUP2 SUB PUSH1 0x0 DUP4 ADD MSTORE PUSH2 0x1AEE DUP2 PUSH2 0x1627 JUMP JUMPDEST SWAP1 POP SWAP2 SWAP1 POP JUMP JUMPDEST PUSH1 0x0 PUSH1 0x20 DUP3 ADD SWAP1 POP DUP2 DUP2 SUB PUSH1 0x0 DUP4 ADD MSTORE PUSH2 0x1B0E DUP2 PUSH2 0x168D JUMP JUMPDEST SWAP1 POP SWAP2 SWAP1 POP JUMP JUMPDEST PUSH1 0x0 PUSH1 0x20 DUP3 ADD SWAP1 POP DUP2 DUP2 SUB PUSH1 0x0 DUP4 ADD MSTORE PUSH2 0x1B2E DUP2 PUSH2 0x16F3 JUMP JUMPDEST SWAP1 POP SWAP2 SWAP1 POP JUMP JUMPDEST PUSH1 0x0 PUSH1 0x20 DUP3 ADD SWAP1 POP DUP2 DUP2 SUB PUSH1 0x0 DUP4 ADD MSTORE PUSH2 0x1B4E DUP2 PUSH2 0x1759 JUMP JUMPDEST SWAP1 POP SWAP2 SWAP1 POP JUMP JUMPDEST PUSH1 0x0 PUSH1 0x20 DUP3 ADD SWAP1 POP DUP2 DUP2 SUB PUSH1 0x0 DUP4 ADD MSTORE PUSH2 0x1B6E DUP2 PUSH2 0x1799 JUMP JUMPDEST SWAP1 POP SWAP2 SWAP1 POP JUMP JUMPDEST PUSH1 0x0 PUSH1 0x20 DUP3 ADD SWAP1 POP DUP2 DUP2 SUB PUSH1 0x0 DUP4 ADD MSTORE PUSH2 0x1B8E DUP2 PUSH2 0x17FF JUMP JUMPDEST SWAP1 POP SWAP2 SWAP1 POP JUMP JUMPDEST PUSH1 0x0 PUSH1 0x20 DUP3 ADD SWAP1 POP DUP2 DUP2 SUB PUSH1 0x0 DUP4 ADD MSTORE PUSH2 0x1BAE DUP2 PUSH2 0x1865 JUMP JUMPDEST SWAP1 POP SWAP2 SWAP1 POP JUMP JUMPDEST PUSH1 0x0 PUSH1 0x20 DUP3 ADD SWAP1 POP DUP2 DUP2 SUB PUSH1 0x0 DUP4 ADD MSTORE PUSH2 0x1BCE DUP2 PUSH2 0x18CB JUMP JUMPDEST SWAP1 POP SWAP2 SWAP1 POP JUMP JUMPDEST PUSH1 0x0 PUSH1 0x20 DUP3 ADD SWAP1 POP DUP2 DUP2 SUB PUSH1 0x0 DUP4 ADD MSTORE PUSH2 0x1BEE DUP2 PUSH2 0x1931 JUMP JUMPDEST SWAP1 POP SWAP2 SWAP1 POP JUMP JUMPDEST PUSH1 0x0 PUSH1 0x20 DUP3 ADD SWAP1 POP DUP2 DUP2 SUB PUSH1 0x0 DUP4 ADD MSTORE PUSH2 0x1C0E DUP2 PUSH2 0x1997 JUMP JUMPDEST SWAP1 POP SWAP2 SWAP1 POP JUMP JUMPDEST PUSH1 0x0 PUSH1 0x20 DUP3 ADD SWAP1 POP DUP2 DUP2 SUB PUSH1 0x0 DUP4 ADD MSTORE PUSH2 0x1C2E DUP2 PUSH2 0x19D7 JUMP JUMPDEST SWAP1 POP SWAP2 SWAP1 POP JUMP JUMPDEST PUSH1 0x0 PUSH1 0x20 DUP3 ADD SWAP1 POP PUSH2 0x1C4A PUSH1 0x0 DUP4 ADD DUP5 PUSH2 0x1A4C JUMP JUMPDEST SWAP3 SWAP2 POP POP JUMP JUMPDEST PUSH1 0x0 PUSH1 0x40 MLOAD SWAP1 POP DUP2 DUP2 ADD DUP2 DUP2 LT PUSH8 0xFFFFFFFFFFFFFFFF DUP3 GT OR ISZERO PUSH2 0x1C77 JUMPI PUSH2 0x1C76 PUSH2 0x1ED6 JUMP JUMPDEST JUMPDEST DUP1 PUSH1 0x40 MSTORE POP SWAP2 SWAP1 POP JUMP JUMPDEST PUSH1 0x0 PUSH8 0xFFFFFFFFFFFFFFFF DUP3 GT ISZERO PUSH2 0x1C9C JUMPI PUSH2 0x1C9B PUSH2 0x1ED6 JUMP JUMPDEST JUMPDEST PUSH1 0x1F NOT PUSH1 0x1F DUP4 ADD AND SWAP1 POP PUSH1 0x20 DUP2 ADD SWAP1 POP SWAP2 SWAP1 POP JUMP JUMPDEST PUSH1 0x0 DUP2 SWAP1 POP PUSH1 0x20 DUP3 ADD SWAP1 POP SWAP2 SWAP1 POP JUMP JUMPDEST PUSH1 0x0 DUP2 MLOAD SWAP1 POP SWAP2 SWAP1 POP JUMP JUMPDEST PUSH1 0x0 DUP2 MLOAD SWAP1 POP SWAP2 SWAP1 POP JUMP JUMPDEST PUSH1 0x0 PUSH1 0x20 DUP3 ADD SWAP1 POP SWAP2 SWAP1 POP JUMP JUMPDEST PUSH1 0x0 DUP3 DUP3 MSTORE PUSH1 0x20 DUP3 ADD SWAP1 POP SWAP3 SWAP2 POP POP JUMP JUMPDEST PUSH1 0x0 DUP3 DUP3 MSTORE PUSH1 0x20 DUP3 ADD SWAP1 POP SWAP3 SWAP2 POP POP JUMP JUMPDEST PUSH1 0x0 PUSH2 0x1D11 DUP3 PUSH2 0x1DFA JUMP JUMPDEST SWAP2 POP PUSH2 0x1D1C DUP4 PUSH2 0x1DFA JUMP JUMPDEST SWAP3 POP DUP3 PUSH32 0xFFFFFFFFFFFFFFFFFFFFFFFFFFFFFFFFFFFFFFFFFFFFFFFFFFFFFFFFFFFFFFFF SUB DUP3 GT ISZERO PUSH2 0x1D51 JUMPI PUSH2 0x1D50 PUSH2 0x1E78 JUMP JUMPDEST JUMPDEST DUP3 DUP3 ADD SWAP1 POP SWAP3 SWAP2 POP POP JUMP JUMPDEST PUSH1 0x0 PUSH2 0x1D67 DUP3 PUSH2 0x1DFA JUMP JUMPDEST SWAP2 POP PUSH2 0x1D72 DUP4 PUSH2 0x1DFA JUMP JUMPDEST SWAP3 POP DUP3 DUP3 LT ISZERO PUSH2 0x1D85 JUMPI PUSH2 0x1D84 PUSH2 0x1E78 JUMP JUMPDEST JUMPDEST DUP3 DUP3 SUB SWAP1 POP SWAP3 SWAP2 POP POP JUMP JUMPDEST PUSH1 0x0 PUSH2 0x1D9B DUP3 PUSH2 0x1DDA JUMP JUMPDEST SWAP1 POP SWAP2 SWAP1 POP JUMP JUMPDEST PUSH1 0x0 DUP2 ISZERO ISZERO SWAP1 POP SWAP2 SWAP1 POP JUMP JUMPDEST PUSH1 0x0 PUSH32 0xFFFFFFFF00000000000000000000000000000000000000000000000000000000 DUP3 AND SWAP1 POP SWAP2 SWAP1 POP JUMP JUMPDEST PUSH1 0x0 PUSH20 0xFFFFFFFFFFFFFFFFFFFFFFFFFFFFFFFFFFFFFFFF DUP3 AND SWAP1 POP SWAP2 SWAP1 POP JUMP JUMPDEST PUSH1 0x0 DUP2 SWAP1 POP SWAP2 SWAP1 POP JUMP JUMPDEST DUP3 DUP2 DUP4 CALLDATACOPY PUSH1 0x0 DUP4 DUP4 ADD MSTORE POP POP POP JUMP JUMPDEST PUSH1 0x0 JUMPDEST DUP4 DUP2 LT ISZERO PUSH2 0x1E31 JUMPI DUP1 DUP3 ADD MLOAD DUP2 DUP5 ADD MSTORE PUSH1 0x20 DUP2 ADD SWAP1 POP PUSH2 0x1E16 JUMP JUMPDEST DUP4 DUP2 GT ISZERO PUSH2 0x1E40 JUMPI PUSH1 0x0 DUP5 DUP5 ADD MSTORE JUMPDEST POP POP POP POP JUMP JUMPDEST PUSH1 0x0 PUSH1 0x2 DUP3 DIV SWAP1 POP PUSH1 0x1 DUP3 AND DUP1 PUSH2 0x1E5E JUMPI PUSH1 0x7F DUP3 AND SWAP2 POP JUMPDEST PUSH1 0x20 DUP3 LT DUP2 EQ ISZERO PUSH2 0x1E72 JUMPI PUSH2 0x1E71 PUSH2 0x1EA7 JUMP JUMPDEST JUMPDEST POP SWAP2 SWAP1 POP JUMP JUMPDEST PUSH32 0x4E487B7100000000000000000000000000000000000000000000000000000000 PUSH1 0x0 MSTORE PUSH1 0x11 PUSH1 0x4 MSTORE PUSH1 0x24 PUSH1 0x0 REVERT JUMPDEST PUSH32 0x4E487B7100000000000000000000000000000000000000000000000000000000 PUSH1 0x0 MSTORE PUSH1 0x22 PUSH1 0x4 MSTORE PUSH1 0x24 PUSH1 0x0 REVERT JUMPDEST PUSH32 0x4E487B7100000000000000000000000000000000000000000000000000000000 PUSH1 0x0 MSTORE PUSH1 0x41 PUSH1 0x4 MSTORE PUSH1 0x24 PUSH1 0x0 REVERT JUMPDEST PUSH1 0x0 PUSH1 0x1F NOT PUSH1 0x1F DUP4 ADD AND SWAP1 POP SWAP2 SWAP1 POP JUMP JUMPDEST PUSH2 0x1F1F DUP2 PUSH2 0x1D90 JUMP JUMPDEST DUP2 EQ PUSH2 0x1F2A JUMPI PUSH1 0x0 DUP1 REVERT JUMPDEST POP JUMP JUMPDEST PUSH2 0x1F36 DUP2 PUSH2 0x1DA2 JUMP JUMPDEST DUP2 EQ PUSH2 0x1F41 JUMPI PUSH1 0x0 DUP1 REVERT JUMPDEST POP JUMP JUMPDEST PUSH2 0x1F4D DUP2 PUSH2 0x1DAE JUMP JUMPDEST DUP2 EQ PUSH2 0x1F58 JUMPI PUSH1 0x0 DUP1 REVERT JUMPDEST POP JUMP JUMPDEST PUSH2 0x1F64 DUP2 PUSH2 0x1DFA JUMP JUMPDEST DUP2 EQ PUSH2 0x1F6F JUMPI PUSH1 0x0 DUP1 REVERT JUMPDEST POP JUMP INVALID LOG2 PUSH5 0x6970667358 0x22 SLT KECCAK256 0x5F 0xCE 0xD1 0xF8 LOG2 PUSH29 0xEF1900951E811F19F40D3C360AEC85239CA5C3974145B77794EB64736F PUSH13 0x63430008000033000000000000 "
				},
				"gasEstimates": {
					"creation": {
						"codeDepositCost": "1620800",
						"executionCost": "infinite",
						"totalCost": "infinite"
					},
					"external": {
						"approve(address,uint256)": "25622",
						"balanceOf(address)": "1602",
						"getApproved(uint256)": "2605",
						"isApprovedForAll(address,address)": "infinite",
						"mint(string)": "infinite",
						"name()": "infinite",
						"ownerOf(uint256)": "1759",
						"setApprovalForAll(address,bool)": "infinite",
						"supportsInterface(bytes4)": "636",
						"symbol()": "infinite",
						"tokenURI(uint256)": "infinite",
						"transferFrom(address,address,uint256)": "infinite",
						"viewMyTokens()": "infinite"
					},
					"internal": {
						"_checkOnERC721Received()": "infinite",
						"_exists(uint256)": "969",
						"_isApprovedOrOwner(address,uint256)": "infinite"
					}
				},
				"methodIdentifiers": {
					"approve(address,uint256)": "095ea7b3",
					"balanceOf(address)": "70a08231",
					"getApproved(uint256)": "081812fc",
					"isApprovedForAll(address,address)": "e985e9c5",
					"mint(string)": "d85d3d27",
					"name()": "06fdde03",
					"ownerOf(uint256)": "6352211e",
					"setApprovalForAll(address,bool)": "a22cb465",
					"supportsInterface(bytes4)": "01ffc9a7",
					"symbol()": "95d89b41",
					"tokenURI(uint256)": "c87b56dd",
					"transferFrom(address,address,uint256)": "23b872dd",
					"viewMyTokens()": "a5b12653"
				}
			},
			"userdoc": {
				"kind": "user",
				"methods": {},
				"version": 1
			}
		}
	}
}